S017000048432D313020426C7565546F6F74682E737265633E
S2144000009029402041124000F1124000F112400079
S214400010F1124000F1124000F112400000000000D2
S214400020000000000000000000000000F112400048
S214400030F112400000000000F1124000F1124000B2
S214400040F1124000F1124000F1124000F11240005F
S214400050F1124000F1124000F1124000F11240004F
S214400060F112400000000000810A4000990A40005A
S214400070B10A4000F1124000F1124000F112400077
S214400080C90A4000E10A4000F1124000F112400067
S214400090F1124000F1124000F1124000F11240000F
S2144000A0F1124000F1124000F1124000F1124000FF
S2144000B0F1124000F1124000F1124000F1124000EF
S2144000C0F1124000F1124000F1124000F1124000DF
S2144000D000000000F112400000000000F112400055
S2144000E0F1124000F1124000F1124000F1124000BF
S2144000F0F1124000F1124000F1124000F1124000AF
S214400100F1124000F1124000F1124000F11240009E
S214400110F112400000000000000000000000000057
S214400120F1124000F1124000F1124000F11240007E
S214400130F112400000000000F1124000F1124000B1
S21440014010B5054C237833B9044B13B10448AFF3CC
S21440015000800123237010BDB4084020000000003A
S21440016058884000084B10B51BB108490848AFF303
S21440017000800848036803B910BD074B002BFBD02E
S214400180BDE81040184700BF00000000B8084020F7
S21440019058884000588840000000000080B582B073
S2144001A000AF78607B68072B31D801A252F823F065
S2144001B00D024000D1014000D9014000E10140005D
S2144001C0E9014000F1014000F9014000030240000F
S2144001D00020114B98471AE001200F4B984716E035
S2144001E000200E4B984712E010200C4B98470EE02C
S2144001F020200A4B98470AE03E210020084B9847AB
S21440020005E03E210120064B984700E000BF00BFB6
S2144002100837BD4680BD00BFF90B4000650C400066
S214400220D50C400080B582B000AF78607B68072B65
S21440023026D801A252F823F0590240005D02400041
S2144002405D0240006F0240006F0240006F024000B7
S2144002506F0240006F024000012312E00B4B9847AC
S2144002600346002B14BF01230023DBB209E0084BF2
S21440027098470346002B14BF01230023DBB200E05F
S214400280002318460837BD4680BD00BF310C4000ED
S2144002904D0D400080B483B000AF78607B68072B7C
S2144002A025D801A252F823F0C9024000CF024000F0
S2144002B0D5024000DB024000DF024000E30240007F
S2144002C0E7024000EB0240004FF4FA4310E04FF4E0
S2144002D000430DE04FF400430AE0084B08E0084BAB
S2144002E006E0084B04E0074B02E0064B00E0002324
S2144002F018460C37BD465DF8047B704700093D0044
S21440030000127A00001BB70080B582B000AF0346EB
S214400310FB7100BFFB791846054B9847034683F0B0
S2144003200103DBB2002BF5D100BF0837BD4680BDC8
S2144003302502400080B586B000AFF8607A603B602A
S2144003400B46FB727B68002B07D13B68002B04D121
S214400350FB684FF470021A6019E0FB7A18460E4BA1
S214400360984702467B68B2FBF3F37B617B693A6849
S21440037002FB03F37B613B68013B1A04074B1340C7
S2144003807A68D2B2134343F47C52FB681A6000BFCB
S2144003901837BD4680BD00BF950240000000FF07ED
S2144003A080B582B000AF786039603B68002B08D1DA
S2144003B0094B9847094A7B681B6843F00053936291
S2144003C005E0064A7B681B6843F48033D36100BF70
S2144003D00837BD4680BD00BF690D400000060E4090
S2144003E080B582B000AF78607B68002B03D1054BA8
S2144003F09847034602E0044B98470346184608379A
S214400400BD4680BD850D4000A10D400080B582B040
S21440041000AF0346FB71FB79033B042B08D8FB79FE
S2144004201846064B9847FB791846054B984700E018
S21440043000BF00BF0837BD4680BD00BF9D014000DD
S2144004400903400080B582B000AF786000BF78688E
S214400450044B98470346002BF9D00023184608372C
S214400460BD4680BDE103400080B500AF0620054B89
S2144004709847024613469B0013449A001344184676
S21440048080BD00BF9502400080B500AF024B984744
S2144004900346184680BD00BF6904400090B583B04F
S2144004A000AF1348134B98470620134B9847381D08
S2144004B0192301220621114CA0473B1D0021184656
S2144004C00F4B984700200F4B984702200E4B9847FB
S2144004D000200E4B98470E4B98470E4B98470346C6
S2144004E01846044B984700BF0C37BD4690BD00BF2A
S2144004F000A3E111651440000D04400035034000A0
S214400500A103400045044000F90A4000750B400036
S214400510F91240008904400080B586B000AFF8600C
S214400520B9607A6000237B61FB68002B12D04FF0E5
S214400530FF3313E00B4B1B680B4A1268B968104632
S2144005409847BB680133BB607B6901337B617B683E
S214400550013B7B607B68002BECDC7B6918461837D8
S214400560BD4680BD800940208809402080B586B0C1
S21440057000AFF860B9607A6000237B61FB68012BAE
S2144005801ED0FB68022B1BD0FB68032B18D04FF005
S214400590FF3319E00E4B1A680E4B1868BB68591C9F
S2144005A0B9601B78194690470346002B02DA4FF095
S2144005B0FF3309E07B6901337B617B68013B7B60ED
S2144005C07B68002BE6D17B6918461837BD4680BD50
S2144005D0840940208809402080B485B000AFF86088
S2144005E0B9607A607B68002B03D0FB68BA685A66AD
S2144005F002E0FB68BA681A6600BF1437BD465DF86D
S214400600047B704780B483B000AF786039607B6805
S2144006103A681A6300BF0C37BD465DF8047B7047E6
S21440062080B483B000AF786039607B683A685A63BC
S21440063000BF0C37BD465DF8047B704780B487B07A
S21440064000AFF860B9607A60FB687A685A64BB6845
S214400650B3F1C05F4AD0B3F1C05F08D8B3F1006FC2
S21440066016D0B3F1805F2CD0002B69D064E0B3F194
S214400670205F65D0B3F1205F03D8B3F1005F4AD066
S2144006805AE0B3F1405F5BD0B3F1605F58D053E0BF
S214400690FB681B6F7B61FB681A6F7B68D9437B697D
S2144006A00B401A40FB681A67FB685B6F7B61FB6810
S2144006B05A6F7B68D9437B690B401A40FB685A6780
S2144006C03AE0FB681B6F7B617A687B691A43FB687C
S2144006D01A67FB685B6F7B61FB685A6F7B68D94320
S2144006E07B690B401A40FB685A6725E0FB681B6F26
S2144006F07B61FB681A6F7B68D9437B690B401A4065
S214400700FB681A67FB685B6F7B617A687B691A4394
S214400710FB685A6710E0FB681B6F7B617A687B69F1
S2144007201A43FB681A67FB685B6F7B617A687B6974
S2144007301A43FB685A6700BFFB687A685A6000E055
S21440074000BF1C37BD465DF8047B704780B584B05B
S21440075000AFF860B9607A60B968F868194B984796
S2144007607B6803F001031A46B968F868164B984749
S2144007707B6803F00A03002B03D0FB68BA681A6252
S21440078002E0FB68BA685A627B6803F00203002BFB
S21440079004D0FB68BA68C3F8802008E07B6803F0A2
S2144007A00803002B03D0FB68BA68C3F88420FB68B4
S2144007B0BA685A61FB68BA681A6000BF1037BD460F
S2144007C080BD00BFE1084000D905400080B584B038
S2144007D000AFF860B9607A603B60B968F868124B61
S2144007E09847BA69B968F868104B98473B68002B39
S2144007F003D0FB68BA681A6502E0FB68BA685A65B7
S2144008007B68002B03D0FB68BA681A6302E0FB687B
S214400810BA685A63FB68BA681A61FB68BA681A60B5
S21440082000BF1037BD4680BDE1084000D9054000F6
S21440083080B483B000AF786039607B689A6B3B6861
S2144008401340002B01D1002300E0012318460C374B
S214400850BD465DF8047B704780B485B000AFF86055
S214400860B9607A607B6803F01003002B20D0FB68E9
S214400870BA68C3F8B0207B6803F02003002B04D08E
S214400880FB68BA68C3F8D42003E0FB68BA68C3F8CC
S214400890D0207B6803F04003002B04D0FB68BA6886
S2144008A0C3F8C02008E0FB68BA68C3F8C42003E079
S2144008B0FB68BA68C3F8B42000BF1437BD465DF87D
S2144008C0047B704780B483B000AF786039607B6843
S2144008D03A681A6400BF0C37BD465DF8047B704723
S2144008E080B483B000AF786039607B683A685A64F9
S2144008F000BF0C37BD465DF8047B704780B483B0BC
S21440090000AF78607B68DB6C18460C37BD465DF8F8
S214400910047B704780B483B000AF78607B689B6C84
S21440092018460C37BD465DF8047B704780B584B0EA
S21440093000AF786039607868264B9847F8607868EA
S214400940254B98470246FB681340FB60FB68002B2C
S2144009503CD00023BB6034E0204ABB681B011344F4
S2144009601A683B689A4226D11C4ABB681B0113444E
S21440097004331A68FB681340002B1CD0174ABB6828
S2144009801B0113440C331B681449BA6812010A440D
S21440099010681249BA6812010A44043212681146B5
S2144009A098470E4ABB681B01134404331B68DB435D
S2144009B0FA681340FB60BB680133BB60BB68062B1C
S2144009C003D8FB68002BC7D100E000BF00BF10373C
S2144009D0BD4680BDFD08400015094000D0084020B7
S2144009E080B586B000AFF860B9607A603B60214B56
S2144009F01B68062B01D9012338E00023FB7511E064
S214400A00FB7D1B011C4A13443B613B691A68BB686B
S214400A109A4204D13B695A687B689A4208D0FB7D6B
S214400A200133FB75FA7D134B1B689A42E8D900E008
S214400A3000BF3B69BA681A603B697A685A603B698E
S214400A403A689A603B693A6ADA60FA7D094B1B68F5
S214400A5001339A4204D1074B1B680133054A1360A1
S214400A603A687968F868054B98470023184618375F
S214400A70BD4680BD40094020D0084020590840006F
S214400A8080B500AF0A210248024B984700BF80BDA0
S214400A90000E0E402D09400080B500AF0B210248E5
S214400AA0024B984700BF80BD00100E402D09400005
S214400AB080B500AF0C210248024B984700BF80BD6E
S214400AC000120E402D09400080B500AF10210248AC
S214400AD0024B984700BF80BD00140E402D094000D1
S214400AE080B500AF11210248024B984700BF80BD39
S214400AF000160E402D09400080B483B000AF7860E9
S214400B007B68013B032B1AD801A252F823F000BFA2
S214400B10210B4000270B40002F0B4000370B4000B6
S214400B2000237B600EE04FF480737B600AE04FF456
S214400B3040737B6006E04FF400737B6002E0002366
S214400B407B6000BF0A490A4B1B6B23F440727B68EC
S214400B5013430B6300BF064B9B6E03F00803002B4A
S214400B60F9D000BF0C37BD465DF8047B704700BF28
S214400B7000060E4080B485B000AF78601D491D4B1E
S214400B801B6B23F070027B6813430B634FF4805358
S214400B90FB6007E0FB68002B01D1012323E0FB68E4
S214400BA0013BFB60134B9B6E03F00803002BF1D018
S214400BB0104A104B1B6B23F0030343F002031363EE
S214400BC04FF48053FB6007E0FB68002B01D1012304
S214400BD009E0FB68013BFB60064B9B6E03F0080395
S214400BE0002BF1D0002318461437BD465DF8047B31
S214400BF0704700BF00060E4080B483B000AF7860F8
S214400C007B68012B05D10749064B9A68064B134370
S214400C108B60044B054A1A6000BF0C37BD465DF832
S214400C20047B704710180E40000010A5080000A571
S214400C3080B400AF094B5B6903F08003002B07D0FC
S214400C40074B9B6E03F08003002B01D0012300E08E
S214400C5000231846BD465DF8047B704710180E40CA
S214400C6000060E4080B483B000AF78601549154B3F
S214400C701A6A154B13430B6200BF124B9B6E03F46C
S214400C800033002BF9D00F490E4B1A6A0F4B134016
S214400C907A68134343F45C130B6200BF094B9B6EA8
S214400CA003F40033002BF9D00649064B1A6A084B6A
S214400CB0134043F45C130B6200BF0C37BD465DF82F
S214400CC0047B704700060E40080037008FFFC8FFC1
S214400CD0FFFFC8FE80B483B000AF786039607B68A1
S214400CE0002B08D01349134B1B6A134A1A40134B68
S214400CF013430B6218E00F490E4B1A6A104B134011
S214400D003A68120292B21A430E4B13430B6200BF6C
S214400D10084B9B6E03F00103002BF9D00549054BA9
S214400D201A6A094B13430B6200BF0C37BD465DF889
S214400D30047B704700060E40FCFFC8FE02003701E9
S214400D40FCFFC8FF010037000000370180B400AF49
S214400D50044B9B6E03F480331846BD465DF8047B17
S214400D60704700BF00060E4080B400AF044B4FF003
S214400D7000529A6200BFBD465DF8047B704700BFD4
S214400D8000060E4080B400AF044B9B6E03F0020397
S214400D901846BD465DF8047B704700BF00060E400F
S214400DA080B400AF044B9B6E03F040031846BD462C
S214400DB05DF8047B704700BF00060E4080B483B0E9
S214400DC000AF78607B683F2B01D901232FE07B681A
S214400DD01F2B13D8194B9A6901217B6801FA03F33C
S214400DE01A4001217B6801FA03F39A421ED0134A47
S214400DF001217B6801FA03F3136117E07B68203B0F
S214400E007B600E4BD3F8082101217B6801FA03F37F
S214400E101A4001217B6801FA03F39A4206D0074A3A
S214400E2001217B6801FA03F3C2F80031002318461B
S214400E300C37BD465DF8047B704700BF00060E4089
S214400E4080B485B000AF786039600023FB607B6873
S214400E50AC221A603B681A683B685B68B2FBF3F3E7
S214400E601B09FB60FB68002B03D0FB68B3F5803F93
S214400E7001D301230AE07B68FA681A623B689A68E5
S214400E807B685A607B6850221A60002318461437E5
S214400E90BD465DF8047B704780B483B000AF786091
S214400EA07B685B6903F40073002B14BF01230023A7
S214400EB0DBB218460C37BD465DF8047B704700BF72
S214400EC080B483B000AF78600B46FB707B685B698C
S214400ED003F00203002B01D1012303E0FA787B687C
S214400EE0DA61002318460C37BD465DF8047B704730
S214400EF080B483B000AF786039607B685B6903F08C
S214400F000103002B01D1012305E07B689B69DAB21F
S214400F103B681A70002318460C37BD465DF8047BC4
S214400F20704700BF80B489B000AFF860B9607A609F
S214400F30BB681A017B689A4202D81023FB6101E025
S214400F400823FB617B68DA00FB69B96801FB03F3A1
S214400F505B081A44FB69B96801FB03F3B2FBF3F381
S214400F60BB61BB69DB087B61BB6903F007033B6180
S214400F707B69002B03D07B69B3F5803F01D3012307
S214400F800FE0FB69082B05D1FB685B6843F4002241
S214400F90FB685A603B691A047B691A43FB681A620D
S214400FA0002318462437BD465DF8047B704700BFD3
S214400FB080B582B000AF786078680D4B98477B6804
S214400FC000225A607B6800225A627B6800229A623E
S214400FD07868084B98477868074B98477868074B77
S214400FE098477868064B984700BF0837BD4680BD8F
S214400FF099114000A5104000DD104000F910400057
S2144010001511400080B584B000AFF860B9607A60D2
S214401010F8681A4B98471A4B00221A60BB68002B98
S21440102009D0BB681B687A681946F868154B98471C
S2144010300346002B01D001231BE0BB685A68BB68FF
S2144010409B681A43BB681B691A43BB68DB681A4334
S2144010500B4B1B6813430A4A1360094B1B68084A2C
S2144010601360FB685A68064B1B681A43FB685A6055
S214401070002318461037BD4680BD00BFB10F400064
S21440108044094020250F400080B483B000AF78600C
S2144010907B6840221A6000BF0C37BD465DF8047B73
S2144010A0704700BF80B483B000AF78607B6888220A
S2144010B01A6000BF0C37BD465DF8047B704700BF22
S2144010C080B483B000AF78607B6810221A6000BF9F
S2144010D00C37BD465DF8047B704700BF80B483B0D4
S2144010E000AF78607B6824221A6000BF0C37BD468C
S2144010F05DF8047B704700BF80B483B000AF786073
S2144011007B684FF480721A6000BF0C37BD465DF8AE
S214401110047B704780B483B000AF78607B684FF440
S21440112000221A6000BF0C37BD465DF8047B70474E
S21440113080B483B000AF786039607B685B6903F049
S2144011400203002B01D1012305E03B68C3F30802EC
S2144011507B68DA61002318460C37BD465DF8047B91
S214401160704700BF80B483B000AF786039607B685A
S2144011705B6903F00103002B01D1012306E07B6885
S2144011809B69C3F308023B681A60002318460C3775
S214401190BD465DF8047B704780B483B000AF78608E
S2144011A07B68044AC3F8E42000BF0C37BD465DF8B0
S2144011B0047B70470041535580B483B000AFEFF3D3
S2144011C010837B607B68002B0CBF01230023DBB2BF
S2144011D03B6072B6BFF35F8F044B00221A703B68C9
S2144011E018460C37BD465DF8047B70470C0040201F
S2144011F080B483B000AF78607B68002B14BF0123B7
S2144012000023DBB218460C37BD465DF8047B7047BA
S21440121080B582B000AF78607868074B9847034641
S214401220002B05D0054B01221A70BFF35F8F62B6C4
S21440123000BF0837BD4680BDF11140000C0040207D
S21440124080B584B000AF1E4BFB601E4BBB60FA6897
S214401250BB689A420CD007E0BB681A1DBA60FA68B1
S214401260111DF96012681A60BB68174A9342F3D39F
S214401270164BBB6004E0BB681A1DBA6000221A60B9
S214401280BB68134A9342F6D3124BFB60124AFB6884
S21440129023F07F039360114B98477860104A104BB9
S2144012A01B6843F470031360BFF34F8FBFF36F8F19
S2144012B078680C4B98470C4B98470C4B9847FEE782
S2144012C05888400000004020B4084020B408402021
S2144012D0900940200000400000ED00E0B9114000B9
S2144012E088ED00E011124000E9214000D51D400085
S2144012F080B400AFFEE700BF80B400AF524B1B6B1C
S21440130003F00303012B14D0012B02D3022B38D059
S2144013107AE04E4B5B6903F08003002B04D04C4BC5
S2144013204FF400421A606FE0494B4FF4FA421A609D
S2144013306AE0454B1B6A03F08073002B03D0444B96
S214401340444A1A6060E0424B434A1A603E4B1B6A6E
S21440135003F07003102B04D0202B08D0002B0ED0A7
S2144013600EE03B4B1B685B00394A136008E0384B85
S2144013701A6813465B001344354A136000E000BF0A
S21440138042E0314B1B6A03F08073002B03D0304B96
S214401390304A1A601CE02E4B2F4A1A602A4B1B6AB2
S2144013A003F07003102B04D0202B08D0002B0ED057
S2144013B00EE0274B1B685B00254A136008E0244B71
S2144013C01A6813465B001344214A136000E000BFCE
S2144013D01D4B1B6B03F00303022B14D11A4B9A6A66
S2144013E01E4B13401B0C0133194A126802FB03F3D1
S2144013F0174A1360144B9B6ADBB2154A1268B2FB5D
S214401400F3F3134A136000BF0F4B1B6B03F07003DC
S214401410702B08D10E4B1B68114AA2FB03235B08B6
S2144014200B4A13600AE0084B1B6B03F070031B0962
S214401430074A126822FA03F3054A136000BFBD4606
S2144014405DF8047B704700BF00060E4010180E4043
S21440145010004020001BB70000093D000000FF07B9
S214401460ABAAAAAA80B483B000AF78607B68194A5A
S214401470934204D8184B4FF080621A6023E07B6892
S214401480164A934203D8144B154A1A601BE07B68F1
S214401490144A934203D8104B134A1A6013E07B68F1
S2144014A0124A934203D80C4B114A1A600BE07B68F1
S2144014B0104A934204D8084B4FF004221A6002E0C8
S2144014C0054B0D4A1A6000BF0C37BD465DF8047BDD
S2144014D0704700BFFF2C3101000C0E40FF596202DE
S2144014E000010004FF86930300020004FFB3C40417
S2144014F000030004FFE0F5050005000480B485B055
S21440150000AF7860104BFB60104B1B68002B02D17D
S2144015100E4B0F4A1A600D4B1B68BB60BA687B685F
S2144015201A44FB689A4202DD4FF0FF3306E0074B51
S2144015301A687B681344054A1360BB68184614371C
S214401540BD465DF8047B7047FCFF452048094020B7
S214401550902B402080B483B000AF78604FF0FF33CC
S21440156018460C37BD465DF8047B704780B483B0A0
S21440157000AF786039603B684FF400525A600023F1
S21440158018460C37BD465DF8047B704780B483B080
S21440159000AF7860012318460C37BD465DF8047BE3
S2144015A0704700BF80B485B000AFF860B9607A601D
S2144015B0002318461437BD465DF8047B704700BFCD
S2144015C080B483B000AF0346FB71094997F90730F2
S2144015D05B09FA7902F01F02012000FA02F241F894
S2144015E0232000BF0C37BD465DF8047B704700BF24
S2144015F000E100E080B483B000AF03463960FB7181
S21440160097F90730002B0BDA0D49FB7903F00F03EF
S214401610043B3A68D2B25201D2B20B441A7609E081
S214401620084997F907303A68D2B25201D2B20B4411
S21440163083F8002300BF0C37BD465DF8047B704737
S21440164000ED00E000E100E080B483B000AF7860D9
S2144016507B68072B25D801A252F823F07D16400060
S21440166083164000891640008F16400093164000AF
S214401670971640009B1640009F1640004FF4FA43D2
S21440168010E04FF400430DE04FF400430AE0084BEF
S21440169008E0084B06E0084B04E0074B02E0064B28
S2144016A000E0002318460C37BD465DF8047B7047C3
S2144016B000093D0000127A00001BB70080B500AF5D
S2144016C00620054B9847024613469B0013449A0053
S2144016D01344184680BD00BF4916400080B500AF91
S2144016E0024B98470346184680BD00BFBD164000D3
S2144016F080B500AF024B984703465B08184680BD4E
S214401700BD16400080B582B000AF78607868034B65
S214401710984700BF0837BD4680BD00BFBD0D40009E
S21440172080B58CB000AF78603960494B9847034627
S2144017307B623B681B68BB623B689B68FB623B689E
S2144017401B68FB603B685B683B613B689B687B61F2
S2144017503B68DB68BB610023FB617B683D4A934284
S21440176008D107203C4B984707F124031946786870
S2144017703A4B98477B683A4A934208D10820364B02
S214401780984707F1240319467868344B98477B6896
S214401790344A934208D12C202F4B984707F1240314
S2144017A0194678682D4B98477B682F4A934208D154
S2144017B02D20294B984707F1240319467868274B74
S2144017C098477B68294A934211D10D20224B98476F
S2144017D01F4B9847024607F10C0319467868244B7E
S2144017E098477868234B98477868234B98477B6898
S2144017F0224A934211D10E20174B9847144B9847D4
S214401800024607F10C0319467868194B98477868E2
S214401810184B98477868184B98477B68184A934205
S21440182011D10F200C4B9847094B9847024607F1B9
S2144018300C03194678680E4B984778680D4B9847C6
S21440184078680D4B984700BF3037BD4680BD00BF17
S214401850F116400000080E4005174000410E4000BB
S214401860000A0E40001A0E40001C0E400040024087
S2144018700510400089104000C11040000080024022
S21440188000C0024080B582B000AF78600B46FB7067
S2144018907B68364A93420AD100BFFB78194678687F
S2144018A0334B98470346002BF7D101235AE07B6819
S2144018B0304A93420AD100BFFB78194678682C4BD1
S2144018C098470346002BF7D101234BE07B682A4A12
S2144018D093420AD100BFFB7819467868244B984754
S2144018E00346002BF7D101233CE07B68234A934212
S2144018F00AD100BFFB78194678681D4B98470346C7
S214401900002BF7D101232DE07B681D4A93420AD174
S21440191000BFFB78194678681A4B98470346002B59
S214401920F7D101231EE07B68174A93420AD100BFD5
S214401930FB7819467868134B98470346002BF7D137
S21440194001230FE07B68114A93420AD100BFFB781F
S214401950194678680B4B98470346002BF7D101236E
S21440196000E0002318460837BD4680BD00080E40FC
S214401970C10E4000000A0E40001A0E40001C0E40E9
S21440198000400240311140000080024000C002404A
S21440199080B584B000AF786039600023FB607B6818
S2144019A0344A934207D100BF39687868324B98472B
S2144019B00346002BF8D17B68304A934207D100BFDC
S2144019C0396878682C4B98470346002BF8D17B68DB
S2144019D02B4A934207D100BF39687868264B984710
S2144019E00346002BF8D17B68264A934207D100BFB6
S2144019F039687868204B98470346002BF8D17B68B7
S214401A00214A93420DD100BF07F10C03194678686E
S214401A101E4B98470346002BF6D1FB68DAB23B686C
S214401A201A707B681A4A93420DD100BF07F10C0327
S214401A3019467868154B98470346002BF6D1FB6845
S214401A40DAB23B681A707B68124A93420DD100BFE7
S214401A5007F10C03194678680C4B98470346002B51
S214401A60F6D1FB68DAB23B681A7000BF1037BD4645
S214401A7080BD00BF00080E40F10E4000000A0E4038
S214401A80001A0E40001C0E40004002406511400007
S214401A900080024000C0024080B582B000AF78604F
S214401AA039600F4A7B6813600E4B0F4A1A600F4B23
S214401AB00F4A1A60396878680E4B98470E4B1B6879
S214401AC09B68002118460D4B98470B4B1B685B687C
S214401AD000211846094B984700BF0837BD4680BDD1
S214401AE0880940208409402085184000800940200D
S214401AF0911940002117400040044020FD2240003C
S214401B0080B582B000AF786039604FF080510648AB
S214401B10064B98474FF480710548044B984700BFE2
S214401B200837BD4680BD00BF00140E40351B400040
S214401B3000120E4080B582B000AF786039603968D8
S214401B407868094B98470346002B04D03968786874
S214401B50064B984703E039687868054B984700BFBE
S214401B600837BD4680BD00BF310840002106400012
S214401B700506400090B583B002AF0A20104B984748
S214401B8009224FF400610F480F4B98474FF400610D
S214401B900C480E4B98470E4B009350234FF4006270
S214401BA00A2108480B4CA0470A200B4B98470121B6
S214401BB00A200A4B984700BF0437BD4690BD00BF79
S214401BC0BD0D4000000E0E404D074000C5084000C9
S214401BD0011B4000E1094000C1154000F5154000DA
S214401BE090B585B002AF78600C20074B98477A686E
S214401BF00023009300234FF480710448044CA04710
S214401C0000BF0C37BD4690BDBD0D400000120E40D3
S214401C10CD07400090B585B000AF0B20154B9847D8
S214401C200A20144B984710224FF000511248134B8D
S214401C3098474FF400124FF0006111480F4B9847F9
S214401C40104A104BD3F8143143F01003C2F8143145
S214401C500D4B3C460FCB84E80F000E20054B9847B3
S214401C603B46194609480A4B984700BF1437BD46BD
S214401C7090BD00BF0517400000100E403D064000D6
S214401C80000E0E400080084054864000008002400F
S214401C90991A400080B586B000AF0B20194B984784
S214401CA001224FF0C0511848184B984702224FF077
S214401CB0C0511548154B98473B4600221A605A605B
S214401CC09A60DA601A615A614FF416533B60C0233B
S214401CD07B604FF40063BB600D200A4B98470C4B6B
S214401CE0984702463B4619460A480B4B98470948D0
S214401CF00A4B984707480A4B984700BF1837BD46D7
S214401D0080BD00BF0517400000100E403D06400055
S214401D10F116400000400240051040008910400087
S214401D20C110400080B584B000AF78600023FB60EF
S214401D3010E0FB685A1CFA607A6813441B78194610
S214401D400A480B4B984700BF08480A4B984703463B
S214401D50002BF9D07A68FB6813441B78002BE8D137
S214401D60FB6818461037BD4680BD00BF00400240A5
S214401D7085184000990E400080B584B000AF78606A
S214401D800023FB607A68FB68134419460F48104BE3
S214401D90984709E0FB680133FB607A68FB681344A8
S214401DA019460A480A4B98477A68FB6813441B78DA
S214401DB00A2BEFD1FB6801337A68134400221A706D
S214401DC0FB6818461037BD4680BD00BF0040024045
S214401DD0911940002DE9F04FB3B000AF2C4B984717
S214401DE02C4B4FF400425A602B4B984701202B4B0C
S214401DF098472B4B98472B4B98473B462A4A2B49AC
S214401E0018462B4B98472B482B4B98473B46184633
S214401E102A4B984707F164031846294B9847294BA5
S214401E209847034618464FF0000102460B464FEAD5
S214401E30830B4BEA927B4FEA820A52465B465D0131
S214401E4045EAD2655401A41A65EB0305241845EB10
S214401E5001054FEAC50949EA54794FEAC4084446A1
S214401E604D462046294641F22B724FF0000380181B
S214401E7041EB0301144E41F22C724FF00003B04781
S214401E8002460B4613461846104B9847B5E700BF28
S214401E909D04400050180E40151C4000E11B4000B9
S214401EA0751B4000951C40006486400070864000CC
S214401EB05D2440007886400039224000251D4000C1
S214401EC0791D4000DD164000D11E40000100402034
S214401ED053B94AB9002908BF00281CBF4FF0FF314C
S214401EE04FF0FF3000F07EB9ADF1080C6DE904CE3E
S214401EF000F006F8DDF804E0DDE9022304B07047A0
S214401F002DE9F0478C460E460446089D002B50D1DE
S214401F108A4217466CD9B2FA82FEBEF1000F0BD049
S214401F20CEF1200420FA04F401FA0EF644EA060C38
S214401F3002FA0EF700FA0EF44FEA1749220CBCFBE1
S214401F40F9F01FFA87F809FB10C642EA064600FB7E
S214401F5008F3B34209D9F61900F1FF3280F0228126
S214401F60B34240F21F8102383E44F61AA2B2B6FB94
S214401F70F9F309FB136642EA064403FB08F8A0455A
S214401F8009D9E41903F1FF3280F00A81A04540F2F6
S214401F900781023B3C44C8EB040443EA004000216E
S214401FA0002D62D024FA0EF400232C606B60BDE84E
S214401FB0F0878B4207D9002D55D0002185E8410097
S214401FC00846BDE8F087B3FA83F1002940F09080D8
S214401FD0B34202D3824200F2F880841A66EB0306CC
S214401FE00120B446002D40D085E81010BDE8F087AB
S214401FF012B90127B7FBF2F7B7FA87FEBEF1000F1A
S21440200035D1F31B4FEA17481FFA87FC0121B3FB73
S214402010F8F0220C08FB103642EA06460CFB00F3AA
S214402020B34207D9F61900F1FF3202D2B34200F2AA
S214402030CE801046F61AA2B2B6FBF8F308FB13663B
S21440204042EA06440CFB03FCA44507D9E41903F115
S214402050FF3202D2A44500F2B5801346CCEB04040E
S21440206043EA00409CE729462846BDE8F087CEF183
S214402070200106FA0EF307FA0EF720FA01F94FEAA6
S2144020801748CE4049EA0309B6FBF8FA4FEA194426
S21440209008FB1A661FFA87FC44EA06430AFB0CF262
S2144020A09A4200FA0EF40AD9DB190AF1FF3180F0A1
S2144020B087809A4240F28480AAF1020A3B449B1AE7
S2144020C01FFA89F9B3FBF8F108FB113349EA0343D9
S2144020D001FB0CF69E4207D9DB1901F1FF326BD2A9
S2144020E09E4269D902393B449B1B41EA0A418EE72E
S2144020F0C1F1200E22FA0EF48B40234320FA0EF74D
S21440210006FA01F44FEA134C26FA0EF63C43B6FBA9
S214402110FCF9270C0CFB19661FFA83F847EA0646BB
S21440212009FB08F7B74202FA01F200FA01FA08D9A9
S214402130F61809F1FF3041D2B7423FD9A9F102095A
S2144021401E44F61BA0B2B6FBFCF40CFB146640EA39
S214402150064704FB08F8B84507D9FF1804F1FF30D6
S21440216028D2B84526D9023C1F4444EA0940C8EB69
S2144021700707A0FB02894F4544464E4614D329D054
S21440218065B3BAEB040367EB060707FA0EFECB40CF
S214402190CF404EEA030385E888000021BDE8F0877B
S2144021A01346F8E61046E0E6B8EB020469EB030691
S2144021B00138E5E70446D8E7114695E78146C0E78B
S2144021C08A467CE7023B3C4448E708460AE7023832
S2144021D03E442FE7C245E7D33E46D1E72946BDE811
S2144021E0F08700BF704700BF70B50F4E0F4D761B8F
S2144021F0B61018BF002405D0013455F8043B984764
S214402200A642F9D10A4E0B4D761B06F00FFBB610D0
S21440221018BF002406D0013455F8043B9847A64220
S214402220F9D170BD70BD00BF388840003888400086
S21440223040884000388840000FB400B5074983B056
S21440224004AB086853F8042B8168019301F0B6FC90
S21440225003B05DF804EB04B0704700BF4004402074
S21440226070B4840746D0541E002A41D0CDB20346EF
S21440227002E0621EE4B3144603F8015B9A07F8D105
S214402280032C2ED9CDB245EA05250F2C45EA054547
S21440229019D903F110022646103E0F2E42F8105C64
S2144022A042F80C5C42F8085C42F8045C02F110020A
S2144022B0F2D8A4F1100222F00F0204F00F041032FC
S2144022C0032C13440DD91E462246043A032A46F8E8
S2144022D0045BFAD8221F22F003020432134404F0AF
S2144022E003042CB1C9B21C4403F8011BA342FBD122
S2144022F070BC704714460346C2E700BF00290CBFB7
S214402300022200224FF4806300F000B82DE9F0432B
S214402310514C256883B004460F4690461E4615B17C
S214402320AB6B002B79D0B8F1020F04D0B8F1010F97
S2144023307FD8002E7DDB2146284603F04DFC216BDE
S21440234041B104F14003994202D0284603F0A2FD71
S21440235000232363B4F90C300022A26162601A069F
S21440236054D423F44A6323F00303B8F1020FA38145
S21440237039D001AB6A462146284604F02DF8A38999
S2144023801843A08126B327B3AB6B002B4DD0009BE0
S214402390B4F90C0027609E421CBF40F40060A08148
S2144023A0B8F1010F08BF40F0010083B208BFA0811A
S2144023B003F0080080B22761666118B313F001008D
S2144023C02FD000207642A661A06003B0BDE8F0831F
S2144023D0009E304604F074F8074668B3A38943F07D
S2144023E08003A381D0E7002004F1430243F00203B8
S2144023F000250121A381A56022602261616103B0AE
S214402400BDE8F083A06003B0BDE8F08321692846AC
S21440241003F040FDB4F90C30A3E7284603F070FC07
S21440242081E7A66003B0BDE8F083284603F068FC69
S214402430ADE74FF0FF30E2E7DDF80090B14506D05B
S214402440484604F03DF8074608B14E46C6E7B4F99C
S2144024500C304FF0FF30C7E7400440200EB4F0B5D4
S2144024609CB021AB0F4953F8042B019305466FF0FF
S2144024700044086802954FF402774FF6FF7602A9AB
S2144024800695ADF8147004940794ADF8166000F005
S2144024900BF8029B00221A701CB0BDE8F04003B057
S2144024A0704700BF400440202DE9F04FC1B00C46B5
S2144024B0099115460E930A9003F08AFF0368179316
S2144024C0184605F07DF9A38916901E0603D52369A4
S2144024D0002B01F0198100231A461293259324936A
S2144024E019930B93DFF864A4149230AB2393994668
S2144024F01592A84698F800304446EBB1252B02D1F9
S2144025001AE0252B03D014F8013F002BF9D1C8EB75
S21440251004058DB1249B259AC9F8008001332A44CE
S214402520072BC9F804502592249300F3A68009F19E
S21440253008090B9B2B440B932378002B00F0A680B6
S21440254000231A468DF86F3019460C9307934FF0C8
S214402550FF3B637804F101085D4608F10108A3F1EA
S2144025602000582800F22584DFE810F08803230472
S2144025702304900323042304230423042304230472
S2144025809703A50323045D00E2002304FE00050133
S21440259005010501050105010501050105010501C6
S2144025A023042304230423042304230423042304AE
S2144025B023042304150181022304810223042304F7
S2144025C023042304C60223042304CD022304230445
S2144025D0230423042304F7022304230425032304AB
S2144025E0230423042304230423042304230423046E
S2144025F02304660379038102810281028103790301
S21440260023042304D1032304DB03A3006400EE0366
S2144026102304F5032304AA0323042304BC030C98D1
S2144026200E9340420C90079B43F00403079398F8A0
S214402630003092E70E98AB46002104688DF86F1084
S214402640071D0798302378228B458DF870304FF061
S21440265000058DF8712040F00203C0F2C78320F0D9
S214402660800343F00203079354EA05030E9700F0F5
S21440267093830F461192B348CEE223AA09990A984B
S21440268005F00CF948B90DF1C00952E7259B23B176
S2144026900A98099923AA05F001F9099B9B8913F02A
S2144026A0400F0B9B18BF4FF0FF33184641B0BDE8B4
S2144026B0F08F1193AB46002A41F02382079A12F01E
S2144026C0200300F02E820E9F073727F007030027CF
S2144026D003F10801BB450E91D3E900458DF86F70B4
S2144026E0C0F2528722F08003079354EA050300F0B5
S2144026F0758330AEE20842EA4572E90804F0070303
S2144027000D461446303354EA050206F8013DF1D131
S214402710079AD10740F18480302B00F08180302228
S214402720731E06F8012C30AAD21A0D921E467AE085
S21440273098F800302A2B08F1010401F0B181A3F18A
S2144027403000092898BF002501F2648114F8013B47
S21440275005EB850500EB4505A3F130000928F5D9C2
S21440276045EAE575A046FAE6079B43F080030793E3
S21440277098F80030F1E6A3F1300000231C4618F824
S214402780013B04EB840400EB4404A3F13000092829
S214402790F5D90C94E3E61193AB46002A41F0C98183
S2144027A0079B43F010030793079B980640F130853C
S2144027B00E9F073727F00707D7E9002307F10801E0
S2144027C00E9114461D46002A73F10003C0F25B8545
S2144027D0BBF1000F9DF86F70C0F23885079B23F061
S2144027E08003079354EA050300F0DB81002D08BF01
S2144027F00A2CC0F0DB8130AE204629460A22002350
S214402800FFF766FB303206F8012D204629460023A6
S2144028100A22FFF75DFB04460D4654EA0503EBD15A
S21440282030AB9B1B0D930D9B5B45B8BF5B46089337
S2144028300023139317B1089B01330893079B13F0AB
S21440284002030F9302D0089B02330893079B13F0B2
S2144028508403109340F0D7820C9B089A9D1A002D53
S21440286040F3D182102D2599249A374F27DD1896AC
S21440287048461024B946099E2F460A9D04E0103F5C
S214402880102F00F1080016DD01322F4B2492103134
S214402890072A259180E81800F1DD23AA314628460C
S2144028A004F0FCFF00287FF4F8AE103F102F259967
S2144028B0249A30A8E8DC189E3D464F4681460132B1
S2144028C06C18072A25942492C9F80070C9F8045059
S2144028D000F328849DF86F7009F1080977B1249BAE
S2144028E0013301340DF16F010122072B2594249307
S2144028F089E8060000F3A08309F108090F9B6BB135
S214402900249B013302341CA90222072B25942493CE
S21440291089E8060000F39C8309F10809109B802B88
S21440292000F0D5820D9BC3EB0B07002F39DD074A1D
S214402930249B0F92102F28DD22464FF0100B0A9D45
S214402940099C0AE0C0864000E08640008C86400035
S214402950103F102F09F1080916DD01331032072BFE
S2144029602592249389E8000CF2DD23AA21462846C6
S21440297004F094FF00287FF490AE103F102F259A65
S214402980249B0DF1C009E8DC144601330F9A2493CA
S2144029903C44072B259489E8840000F3418309F1E1
S2144029A00809079BDA0500F13082249B0D99C9F887
S2144029B0006001330C44072B2594C9F80410249377
S2144029C000F3188309F10809079B59073FD50C9B6C
S2144029D0089A9D1A002D3ADD102D249BBC4F23DD0E
S2144029E022461026DDF828B0099C04E0103D102D44
S2144029F009F1080917DD0133B54924931032072B36
S214402A00259289E84200F1DD23AA2146584604F083
S214402A1045FF00287FF441AE103D102D259A249B9B
S214402A200DF1C009E7DC144601332C44072B2594EE
S214402A302493C9F80070C9F8045008DD23AA099900
S214402A400A9804F02BFF00287FF427AE259C0B9BAA
S214402A500C9A08998A42ACBF9B185B180B93002CC3
S214402A6040F0D482002324930DF1C00942E511932F
S214402A70AB46002A41F059800E9F073727F00703E0
S214402A8003F108020E921A6814925B681593159B20
S214402A90149D23F00044284621464FF0FF328D4BCC
S214402AA005F09AFD002840F0C184284621464FF0A4
S214402AB0FF32884B05F072FD002840F0B78414982A
S214402AC015990022002305F05FFD002840F04B8753
S214402AD09DF86F70804E814B079921F080010791D9
S214402AE0119903224FF0000B08924729D8BF1E4683
S214402AF00D92CDF84CB09DE6079B43F00803079334
S214402B0098F8003029E51193AB46002A41F0098039
S214402B10079B43F010030793079A12F020037FF4B5
S214402B20D2AD079911F0100200F007850E988DF887
S214402B306F30BBF1000F046800F104074FF000054A
S214402B40C0F221850A4622F08002079254EA050226
S214402B500E9700F043811F46CBE51193AB46002A03
S214402B6040F0D787079B43F010030793079A12F06D
S214402B70200300F032830E9F073727F00703002715
S214402B8003F10801BB450E91D3E900458DF86F70FF
S214402B90C0F25C8322F08003079354EA05037FF477
S214402BA025AEBBF1000F00F0FE80002440AE30346E
S214402BB006F8414D34E61193AB46002A40F0A5870F
S214402BC0079B47489D0640F197800E9F073727F0A2
S214402BD00703D3E9004503F108020E92079A12F064
S214402BE0010700F0418254EA050300F0F5849DF8A1
S214402BF044208DF871200027079A8DF86F70302397
S214402C00BB458DF8703042F00203C0F2A98622F030
S214402C10800343F00203079330AE230904F00F010C
S214402C2043EA05732A091C461546435C06F8013DEF
S214402C3054EA0503F1D1F3E50E9911930A688DF82D
S214402C40982000230A461F468DF86F300432012331
S214402C500893BB4613970E920D9326AEEEE511935E
S214402C60AB46002A3FF4A0AD8DF86F109CE5079B5D
S214402C7043F04003079398F800306EE498F800302D
S214402C8000297FF46AAC0122202166E4079B43F0CA
S214402C900103079398F800305FE40E9C23680C937A
S214402CA018460028234603F10403FFF6B8AC0E93FB
S214402CB098F8003051E498F8003001222B214CE47B
S214402CC01193AB46002A3FF451AF8DF86F104DE795
S214402CD0E0864000FFFFEF7FA08640009C864000D5
S214402CE0AC8640001193AB46002A40F00387079B12
S214402CF099489D063FF569AF079BDC0640F15E8428
S214402D000E9A1346043314680E93002566E798F827
S214402D1000306C2B00F0E184079840F010000790DC
S214402D201BE4002A40F0DB86079B9B0640F12F847D
S214402D300E9A0B991368CD170846043229460E9210
S214402D40C3E90001FFF7D6BB079B43F02003079378
S214402D5098F8003001E40E9A1193166800248DF816
S214402D606F40171D002E00F0BD85002DC0F20F8568
S214402D702A462146304603F063FE002800F00486CB
S214402D80831B0D93A34623EAE3730E970893CDF86F
S214402D904CB09DF86F704DE56F481192BBF1000F37
S214402DA040F073815F464FF0000BCDF834B030AE44
S214402DB039E51193002A40F0B086119A002A3FF474
S214402DC065AC002301211F4608918DF898208DF8A8
S214402DD06F309B4613930D9126AE2FE5BBF1000F47
S214402DE000F0DD8500270024002582E45A4807933A
S214402DF0119254EA05030E974FF000077FF40CAF8C
S214402E000024002508E7259C68E5119B652B40F3C8
S214402E10A980149815990022002305F0ABFB0028E2
S214402E2000F03581249B4D4AC9F800200133013417
S214402E300122072B25942493C9F8042000F3E68347
S214402E4009F108091D9B129A934203DB079BDB0797
S214402E507FF5BAAD249B1699179AC9F8002001331E
S214402E600C44072B2594C9F80410249300F33F84A0
S214402E7009F10809129B5D1E002D7FF7A5AD384A63
S214402E80249B0F92102D40F3E68110260A9FDDF812
S214402E9024B005E009F10809103D102D40F3DB8110
S214402EA001331034072B25942493C9F800A0C9F8A1
S214402EB00460EFDD23AA5946384604F0EFFC0028AC
S214402EC07FF4EBAB259C249B0DF1C009E4E70C9BFB
S214402ED0089A9F1A002F7FF725AD214A249B0F9210
S214402EE0102F2BDD4A462146B946102537460A9C08
S214402EF0099E06E0A9F11009B9F1100F02F1080287
S214402F0018DD01331031072B25912493C2F800A019
S214402F105560EFDD23AA3146204604F0BFFC00286A
S214402F207FF4BBABA9F11009B9F1100F2599249B8A
S214402F3030AAE6DC3E460C464F46914601330F9A91
S214402F4024933C44072B259489E8840000F345826B
S214402F5009F10809E6E400BFC0864000DC86400070
S214402F608C864000129B249D012B40F3088201353D
S214402F7001340123072D25942495C9F80060C9F82B
S214402F80043000F30D8209F10809169A179BC9F818
S214402F90003001351444072D25942495C9F80420A3
S214402FA000F30E8209F108090023149815990022AF
S214402FB005F0E0FA129B002840F0C380013B013543
S214402FC001361C44072D24952594C9F80060C9F89D
S214402FD0043000F3F58009F10809199AC9F804206D
S214402FE0013514441FAB072D25942495C9F80030AD
S214402FF07FF7E8AC23AA09990A9804F04FFC00280A
S2144030007FF44BAB259C0DF1C009DDE423AA09995A
S2144030100A9804F043FC00283FF424ADFFF73DBB7C
S21440302023AA09990A9804F039FC00287FF435ABA6
S214403030259C0DF1C009B4E423AA09990A9804F026
S2144030402DFC00287FF429AB259C0DF1C00955E4E2
S21440305023AA09990A9804F021FC00287FF41DABA6
S214403060259C0DF1C00959E4BBF1000F8DF86F7037
S214403070C0F2D88222F08003079354EA05037FF417
S214403080CBADBBF1000F3FF48DAE0027B8E61D9DDB
S214403090002D40F3CA82139B129A9342A8BF134650
S2144030A0002B1D460DDD249BC9F8006001332C44DF
S2144030B0072B2594C9F80450249300F39C8309F108
S2144030C00809139B002DA8BF5B1B002B1D4640F331
S2144030D0F680BA4A249B0F92102D40F38A822246ED
S2144030E01027DDF828B0099C05E009F10809103DD5
S2144030F0102D40F37D8201331032072B2592249306
S214403100C9F800A0C9F80470EFDD23AA2146584646
S21440311004F0C4FB00287FF4C0AA259A249B0DF136
S214403120C009E4E723AA09990A9804F0B7FB0028E7
S2144031307FF4B3AA9DF86F70259C0DF1C009FFF788
S214403140CDBB5E1E002E7FF748AF9C4B0F93102ED4
S2144031502CDDCDF834801027B046DDF828B0099E27
S21440316006E0A8F11008B8F1100F09F108091ADDB9
S21440317001351034072D25942495C9F800A0C9F8C8
S2144031800470EEDD23AA3146584604F087FB00283B
S2144031907FF483AAA8F11008B8F1100F259C249D4F
S2144031A00DF1C009E4DC4646DDF834800F9B01355E
S2144031B03444072D2594249589E848007FF70BAFC3
S2144031C023AA09990A9804F069FB00287FF465AAA7
S2144031D0259C249D0DF1C009FFE6079911F01002C9
S2144031E000F008810E988DF86F30BBF1000F046830
S2144031F000F104074FF0000526DB0A4622F0800265
S214403200079254EA05020E971F467FF4EFAAC8E4D9
S214403210079BD9062AD4079B5A0627D50E99B1F99B
S21440322000400431E51722462B460E91FFF7CBBAF5
S2144032300E998DF86F30BBF1000F0C6801F1040752
S2144032404FF0000580F247820E971F4654EA05036A
S2144032507FF4CCAAAAE401330F9A24932C44072B7C
S214403260259489E824007FF7ADABC3E60E9A146830
S21440327013460433E51722460E93002A2B4673F175
S2144032800003BFF6A5AA64424FF02D0765EB45053F
S214403290BBF1000F8DF86F70FFF6A8AA079B23F0CE
S2144032A080030793FFF7A2BA23AA09990A9804F065
S2144032B0F5FA00287FF4F1A9259C0DF1C009139A70
S2144032C01D9B32441746129A934247DB079AD5070E
S2144032D044D412990E44F51BCB1A9D42A8BF1D46F6
S2144032E0002D2E460DDD249AC9F8007001322C447C
S2144032F0072A2594C9F80450249200F30B8309F159
S2144033000809002EACBF9D1B1D46002D7FF75CAB09
S2144033102A4A249B0F92102D9DDD10260A9FDDF829
S21440332024B004E009F10809103D102D93DD013367
S2144033301034072B25942493C9F800A0C9F80460DC
S214403340F0DD23AA5946384604F0A8FA00287FF450
S214403350A4A9259C249B0DF1C009E5E7249A16985C
S2144033601799C9F8001001320444072A2594C9F871
S2144033700400249200F3A98209F10809A9E7079BF3
S214403380D8073FF5F4AD013501340123072D2594C8
S2144033902495C9F80060C9F804307FF71CAE0FE7E3
S2144033A023AA09990A9804F079FA00287FF475A9A7
S2144033B0259C249D0DF1C009E7E500BF8C864000A2
S2144033C023AA09990A9804F069FA00287FF465A9A7
S2144033D0259C249D0DF1C009E6E523AA09990A9883
S2144033E004F05CFA00287FF458A9259C0DF1C0092A
S2144033F0FFF798BA079911F040033FF419AF0E98BB
S2144034008DF86F20BBF1000F048800F104074FF0E1
S2144034100005C0F2B98121F08003079354EA050302
S2144034200E9717467FF4E2A9FFF7BBBB149C2246D3
S2144034302046159C2346214605F0CEF8002840F04D
S2144034401783119BBBF1FF3F23F020030D9300F041
S2144034507082472B00F09281079B43F48073109351
S214403460159B1F1E149B0893BBBF3B4603F10047AA
S21440347000232D230F93119B662B00F05D82462B75
S21440348000F051810D9B089A452B21A81EA90CBF20
S2144034900BF101055D46049003911DA802213B46B1
S2144034A00290019500910A9801F0C6FB119B672B8C
S2144034B0064640F09082079BDA0740F1AF827419C7
S2144034C0089839460022002305F054F8002840F0BA
S2144034D09081219B9C4206D930215A1C219219701A
S2144034E0219B9C42F9D89B1B12930D9B472B00F0C7
S2144034F07981119B652B40F37D82119B662B1D9B2A
S214403500139300F05B82139A12998A42C0F230827B
S214403510079BD90700F1848222EAE2730D92672264
S21440352011920F9A002A40F053810893109B0793FC
S21440353093469DF86F70FFF77DB9079911F04003E9
S21440354015D00E988DF86F20BBF1000F048800F15F
S21440355004074FF0000516DB21F08003079354EA7A
S21440356005030E973FF43AAC1746FFF7C2B80E99DC
S2144035708DF86F30BBF1000F0C6801F104074FF077
S214403580000580F2A5800E970027FFF7B2B8079B8C
S214403590DF060BD4079B5E0608D50E9A13680432E6
S2144035A00E92BDF82C201A80FEF7A4BF0E9A136820
S2144035B004320E920B9A1A60FEF79CBF0E9A079B37
S2144035C013F0400F134603F104030CBF146814882D
S2144035D00E930025FFF702BB0027BB458DF86F70A2
S2144035E0FFF60EAC079B23F080030793FFF7D6BB8E
S2144035F0144601330F9A24932C44072B259489E8CC
S21440360024003FF751AE09F1080958E623AA099964
S2144036100A9804F043F900287FF43FA8259C0DF152
S214403620C0090FE40E9FFFF7E4BB249BB54AC9F8D8
S2144036300020013301340122072B25942493C9F836
S214403640042000F38E8009F108092DB9129B1BB99E
S214403650079BDF077FF5B8A9249B1699179AC9F8E8
S214403660002001330C44072B2594C9F804102493FA
S21440367000F3C28109F108096D42002D40F39B809A
S214403680A14A0F92102D40F3C38022461027DDF842
S21440369028B0099C05E009F10809103D102D40F3BB
S2144036A0B68001331032072B25922493C9F800A028
S2144036B0C9F80470EFDD23AA2146584604F0EEF818
S2144036C000287EF4EAAF259A249B0DF1C009E4E772
S2144036D0079AFFF738BA079A90E5079B43F020030E
S2144036E0079308F1010898F80030FEF736BF23AA82
S2144036F009990A9804F0D2F800287EF4CEAF259CAB
S2144037000DF1C009FFF7B6BB40210A9802F0E0FE73
S214403710099A10601061002800F0E581099A40235C
S2144037205361FEF7D8BE21A81EA9049003911DA898
S21440373003210290089ACDF804B03B4600910A98BF
S21440374001F07AFA5D460646119B462B06EB0504C9
S2144037507FF4B6AE3378302B00F07C811D9D2C4430
S214403760AEE623AA09990A9804F098F800287EF451
S21440377094AF1D9D259C0DF1C00966E7BBF1000F77
S21440378008BF4FF0010B67E60E9717465EE53046DA
S21440379004F016F8A34603460D90FFF7F4BA23AAA2
S2144037A009990A9804F07AF800287EF476AF259CAA
S2144037B0249B0DF1C0091299C9F8006001330C44EE
S2144037C0072B25942493C9F804107FF7FBA811E42F
S2144037D02D270893109B07938DF86F704FF0000BC2
S2144037E0FFF729B81D9BDD1C1EDB9B451CDB139396
S2144037F089E6234677E623AA09990A9804F04EF804
S21440380000287EF44AAF259C0DF1C00959E41446C1
S21440381001330F9A24932C44072B259489E82400DF
S214403820BDDC09F10809C6E7119A023A1192013B3C
S214403830002B9DF844201D93B8BF5B428DF87C203A
S214403840B4BF2D222B22092B8DF87D2040F3F1802A
S2144038500DF18B0004462D4A82FB0321DA17C2EB9A
S214403860A10202EB8201A3EB410303F13001092AD6
S214403870134604F8011DEEDC21463033DAB201F877
S214403880012D884240F23A810DF17E01234601E047
S21440389013F8012B01F8012B9842F9D1431C1B1B4E
S2144038A00DF17E0213441FAA9B1A129A1993012AFD
S2144038B013440D9340F3EA800D9B169A134400225E
S2144038C00D93139223EAE3732BE623AA09990A98E9
S2144038D003F0E4FF00287EF4E0AE1D9B259C0DF12E
S2144038E0C009F6E4062D2B4628BF06230D9323EA8F
S2144038F0E373B3460E97139637460893044EFEF787
S21440390099BF00BFDC8640008C86400067666666CE
S214403910D486400023AA09990A9803F0BFFF0028DE
S2144039207EF4BBAE1D9B129A259CD31A0DF1C0099E
S214403930E7E44FF0060B8FE521A81EA904900391FB
S2144039401DA803210290089ACDF804B03B4600918A
S2144039500A9801F071F95D46064600EB0B04F9E65D
S2144039600793FFF759B92D278DF86F70FFF7B2B858
S214403970169A129B1344139A0D93002A7EDD6722F3
S21440398023EAE3731192CCE525EAE5730E97089394
S2144039900D95834613909DF86F70FEF74BBF079BBF
S2144039A0DB075F4605D540AE302306F8413DFEF7BF
S2144039B037BFCDF834B030AEFEF735BF002B7DDDD7
S2144039C0BBF1000F3DD1079AD4073AD41A460D9260
S2144039D023EAE373A5E5119B472B7FF470AD079B65
S2144039E0DB073FF5B1AE219B9B1B12930D9B472BEC
S2144039F03FF4F8AE1D9B1AE723AA09990A9803F0EC
S214403A004DFF00287EF449AE1D9D259C249B0DF15C
S214403A10C00931E6A0460025FEF7A1BD219B62E520
S214403A20169A139B134467220D93119223EAE3736D
S214403A3077E5303330228DF87F308DF87E2020AB0E
S214403A4031E7139B169A9D1805EB0B030D9323EA5B
S214403A50E37366E5089839460022002304F08AFDA1
S214403A6000287FF47BAEC5F101051D952C4427E563
S214403A70324E334B9DF86F70FFF72EB8139B0D9A5E
S214403A80C3F101031A4413460D9278E7079B13F0DF
S214403A9001037FF411AF13930D9B23EAE37340E5D4
S214403AA00E9898F8013005680430002D0E90A04618
S214403AB0BEF653AD4FF0FF35FEF74FBDBBF1000FDE
S214403AC002D1079BD80707D5169B5D1C05EB0B0359
S214403AD00D9323EAE37324E501230D9321E58DF846
S214403AE06F10FFF721B90A9A0C2313604FF0FF308E
S214403AF0FEF7DCBD8DF86F10FFF7F9B80DF17E03C9
S214403B00D1E68DF86F10FEF7D9BD8DF86F10FFF730
S214403B1057B88DF86F10FFF725B88DF86F10FFF780
S214403B204CB98DF86F10FEF7F3BF8DF86F10FEF7A7
S214403B30A3BF8DF86F10FEF733BE00BFA8864000C7
S214403B40A48640004B6E2DE9F0479C0492462CD547
S214403B50936812683BB30F46804602F1080919E99C
S214403B606000B60817D0043D002401E0A64210D0FD
S214403B703A4655F8041F404602F02CF9431C04F11F
S214403B800104F3D10023CAF80830CAF80430BDE86F
S214403B90F087DAF80830A3EB8603CAF8083009F154
S214403BA00809002BDBD10020ECE702F05BFA00238B
S214403BB0CAF80830CAF80430BDE8F0872DE9F04F5F
S214403BC0ABB01C46009190460493059018B1836BA9
S214403BD0002B00F0DE800098B0F90C108AB29504F5
S214403BE007D4436E41F4005223F400538281436667
S214403BF092B2110740F1B180009B1B69002B00F088
S214403C00AC8002F01A020A2A00F0B58000230DF1BB
S214403C10680B02930F930E93CDF834B0DA4698F8BB
S214403C2000304446FBB1252B02D11CE0252B03D0A7
S214403C3014F8013F002BF9D1C8EB04059DB10E9B4B
S214403C400F9ACAF8008001332A44072BCAF804505A
S214403C500F920E937BDD002A40F02885029B0E9241
S214403C602B44DA4602932378002B00F03E84002152
S214403C704FF000034FF0FF328DF82F3004F101086B
S214403C806378019208460E460C4608F10108A3F1F7
S214403C902002582A00F29383DFE812F0460391038D
S214403CA091034E0391039103910391039103910372
S214403CB089026702910380006C029103C601590293
S214403CC059025902590259025902590259025902D7
S214403CD091039103910391039103910391039103FF
S214403CE091039103CB0191039103910391039103B7
S214403CF0910391039103910391031402910391035D
S214403D00910391039103EE029103910311039103F2
S214403D1091039103910391039103910391039103BE
S214403D20910334038A0391039103910367038A0343
S214403D30910391036C039103790395028500E90290
S214403D4091039B029103BA029103910353030AF134
S214403D50080A029B2B44029385E70099059800F0D9
S214403D6061FE002840F05885009B9A8902F01A02AE
S214403D700A2A7FF44BAF0099B1F90E30002BFFF6BC
S214403D8045AF23464246059800F016FE2BB0BDE8E8
S214403D90F08F01F0B5FF1EE76442049346F0040638
S214403DA098F8003071E7302104988DF8301001996A
S214403DB006944FF0000378228DF82F3000290346F2
S214403DC08DF83120046803F104034FF0000546F0F7
S214403DD00202C0F2258526F0800654EA050246F027
S214403DE00206049340F0BF84B348019B002B40F08A
S214403DF01C8499460023019303935F46019B039AD4
S214403E009342B8BF13461D46B9F1000F00D00135A6
S214403E1016F00203079318BF023516F08403089382
S214403E2040F0F182069B5C1B002C40F3EC82102C89
S214403E3040F35685DFF88492DDF838E00F9AD44692
S214403E401023C2467046A8464D46DDF8149007E05B
S214403E5000F1020E0CF1080C0846103C102C13DD45
S214403E60411C103207290F92CCF80050CCF8043091
S214403E700E91EDDD002A40F0B782103C102C104623
S214403E804FF0010EDC46EBDCA94670464546D04670
S214403E90E246224407280F92CAF80090CAF8044027
S214403EA00E9000F375839DF82F300AF1080A00F152
S214403EB0010E002B40F0B082079B002B00F0C3821F
S214403EC002320CA90223BEF1070F0F92CDF838E05C
S214403ED08AE80A0040F37883002A40F00A84089B68
S214403EE0802B4FF0010E1046DA4640F0B082069B1B
S214403EF05C1B002C40F3AB82102CDFF8C49140F3DF
S214403F000B85D6461023C246A8464D46DDF814908B
S214403F1007E000F1020C0EF1080E0846103C102C8B
S214403F2013DD411C103207290F92CEF80050CEF810
S214403F3004300E91EDDD002A40F01583103C102C25
S214403F404FF0010C1046DE46EBDCA9464546D0460F
S214403F50F2462244BCF1070F0F92CAF80090CAF806
S214403F600440CDF838C000F3D283019B03995C1A15
S214403F70002C0AF1080A0CF1010E604600F36D822F
S214403F800399CAF800700A44BEF1070F0F92CAF8A8
S214403F900410CDF838E040F3CE82002A40F03A8351
S214403FA070070E9238D5069B5C1B002C34DDDA4633
S214403FB0102C40F3AB84DFF804910E994F46102640
S214403FC0DDF8149006E0881C0AF1080A1946103CF1
S214403FD0102C13DD4B1C1032072B0F92CAF80070C2
S214403FE0CAF804600E93EEDD002A40F08E82103C44
S214403FF0102C4FF001001146DA46EBDCB94622445D
S21440400007280F92CAF80090CAF804400E9040F372
S2144040109B82002A40F02584029B069AAA42ACBFA7
S2144040209B185B19029399E246F0800698F8003098
S2144040302BE60694002940F0AF8446F01006B306FF
S21440404040F112830499073121F00701D1E900239A
S2144040500831049114461D46002A73F10003C0F24D
S2144040608683019B9DF82F90002BC0F21A8354EA5A
S214404070050326F0800600F0ED80002D08BF0A2CD0
S214404080C0F0ED805F46204629460A220023FDF711
S2144040901FFF303207F8012D2046294600230A220A
S2144040A0FDF716FF04460D4654EA0503EBD1C7EB71
S2144040B00B030393A2E600BFC08640000087400083
S2144040C0F08640000694002940F0628446F01006D0
S2144040D016F0200300F0AE82049B073323F007035C
S2144040E04FF000028DF82F20D3E9004503F1080277
S2144040F0019B0492002BC0F2748154EA050326F01B
S214404100800640F06E81019B002B00F030844FF01B
S2144041100009002400255F46E20842EA4572E908A5
S21440412004F007030D461446303354EA050207F8F8
S214404130013DF1D1F407BAD5302BB8D030227B1EE2
S21440414007F8012CC3EB0B0203921F4656E6A3F179
S2144041503002002418F8013B04EB840402EB4404CC
S214404160A3F13002092AF5D991E598F800300121EB
S2144041702B208AE598F800302A2B08F1010500F03C
S214404180DD83A3F13002092AA84698BF002500F235
S214404190CE8318F8013B05EB850502EB4505A3F1F8
S2144041A03002092AF5D945EAE57201926FE5049A8C
S2144041B014681346002C03F10403FFF6EDAD049398
S2144041C098F8003061E50694002981D08DF82F00DC
S2144041D07EE7049A069417684FF000038DF82F3058
S2144041E0141D019B002F00F08683002BC0F25F83D6
S2144041F01A460021384602F023FC002800F08F8340
S214404200C31B0393002304949DF82F900193F5E578
S2144042100694002940F0B98316F0200935D116F0EF
S214404220100303D116F0400940F02A83049A13463F
S2144042301468019A8DF82F90002A03F104034FF07A
S2144042400005C0F2328354EA050226F08006049345
S2144042507FF413AF019B002B3FF4CCAD00242AAF74
S214404260303407F8414DC7EB0B030393C6E546F0E1
S214404270200698F8003008E50694002940F06E8342
S21440428046F0100616F02009C9D0049B073323F0E9
S21440429007034FF000028DF82F20D3E9004503F1C5
S2144042A00802019B0492002BC0F2F98154EA0503F0
S2144042B026F080064FF000097FF4DFAECAE706948A
S2144042C0002940F05183B206AE4841D5049A0732E1
S2144042D022F00702D2E9004502F10801049116F0E7
S2144042E0010900F0778154EA050240F026824FF03B
S2144042F000038DF82F30019B002BC0F2968126F0EC
S214404300800672E5049A069413688DF8403013468A
S2144043104FF00001012504338DF82F1004930395C8
S21440432010AF0023019373E598F8003000287FF41F
S214404330ACAC01212020A8E446F0010698F80030F5
S214404340A3E40694002940F00C83B2068E48BDD400
S2144043500499F7060A4600F19D81750640F19A8158
S21440436004320C8804920025B9E746F0400698F8D7
S21440437000308AE498F800306C2B03BF98F8013080
S21440438046F0200608F1010846F010067DE40029B4
S21440439040F00983B40640F11C82049A02991368DF
S2144043A0CD170846043229460492C3E9000136E494
S2144043B0069400293FF443AE8DF82F003FE606945E
S2144043C0002940F0ED82002B00F08F8001258DF80B
S2144043D040304FF000038DF82F30039510AFA0E724
S2144043E004934FF0000996E60DAA009909934846B3
S2144043F0FFF7A8FB00287FD10E980F9A099B00F183
S214404400010EDC4629E50E980F9A00F1010E9DF844
S2144044102F30002B3FF450AD01320DF12F01012318
S214404420BEF1070F0F92CDF838E08AE80A0040F355
S214404430BF80002A40F04E810799002940F0BE8098
S2144044409E461046DA46089B802B3FF450AD019BB3
S21440445003995C1A002C7FF793AD102CDFF82C9153
S21440446025DDD4461023C246A8464D46DDF81490B6
S21440447007E000F1020E0CF1080C0846103C102C28
S21440448011DD411C103207290F92CCF80050CCF8B1
S21440449004300E91EDDDD2B9103C102C4FF0010ED9
S2144044A01046DC46EDDCA9464546D046E246224468
S2144044B0BEF1070F0F92CAF80090CAF80440CDF834
S2144044C038E02EDC0AF1080A0EF1010E58E50DAA76
S2144044D0009901934846FFF735FB68B90E980F9A46
S2144044E0019B00F1010EDC46C8E70F9B23B10598FF
S2144044F000990DAAFFF726FB009B9B895A0600F100
S2144045008B8102982BB0BDE8F08F0DAA00994846E3
S214404510FFF718FB0028EFD10E990F9A481CDA4691
S21440452055E5002A40F0FB80039A1B9201230F9228
S2144045301A970E93DA460AF1080A710704D5069BC5
S2144045405C1B002C3FF734AD029B0699A942ACBFDA
S2144045505B185B190293002A40F0B38000230E9349
S214404560DA46FFF75CBB0DAA009907934846FFF76B
S214404570E9FA0028C0D10E980F9A079B00F1010C6B
S214404580DE46CBE4AC864000C0864000F086400065
S214404590002A40F033819DF82F30002B00F0F58044
S2144045A001230DF12F011A461B939E461A91DA46B7
S2144045B070460AF1080A0EF1010E7DE40CA90222AB
S2144045C09E461A911B92DA4670460AF1080A0EF188
S2144045D0010E38E7019B8DF82F90002BC0F22A8100
S2144045E054EA050326F080063FF4FFAB5F462309F6
S2144045F004F00F0143EA05732A091C461546435C3E
S21440460007F8013D54EA0503F1D1C7EB0B030393CA
S214404610FFF7F4BB0DAA00990598FFF793FA002818
S2144046207FF46AAF0F9ADA4687E74FF00009002416
S2144046300025DBE716F0100200F0B28004998DF8F2
S2144046402F300A460C680199002902F104024FF007
S2144046500005C0F2598154EA050126F0800604920E
S2144046603FF451AD994656E5F7060AD4750608D587
S2144046700499B1F900400431E51722462B460491CF
S214404680EAE4049A146813460433E5170493224672
S2144046902B46E1E414680432049200251FE64FF0EE
S2144046A0000954EA05037FF4E8ACD8E50DAA009962
S2144046B00598FFF747FA00287FF41EAFDA46FFF763
S2144046C048BB0DAA00990598FFF73CFA00283FF42E
S2144046D045AF11E70DAA00990598FFF733FA002871
S2144046E07FF40AAF0E980F9A00F1010EDA46FFF7F4
S2144046F0E3BB0DAA00990598FFF724FA00287FF43B
S214404700FBAE0E980F9A00F1010EDA469BE6002AA1
S21440471040F0D8804FF0010E1046DA4697E60DAAD4
S21440472000990598FFF70EFA00287FF4E5AE0E9B39
S2144047300F9A03F1010EDA4622E430228DF830203B
S214404740019A8DF83130002A4FF000038DF82F3053
S21440475046F00203C0F2CB8026F0800646F0020602
S2144047604FF0000942E74FF0000990483EE7019BB2
S21440477064424FF02D0965EB4505002B8DF82F90D0
S214404780FFF67BAC26F0800677E4079B002B72D0C2
S2144047900CAB02221A931B924FF0010EDA4613E737
S2144047A016F0400948D004998DF82F200B460C8807
S2144047B00199002903F104034FF00005FFF610AEFF
S2144047C054EA050126F0800604933FF49CAC9146DB
S2144047D0A1E4F0060AD4710608D5049A1368043298
S2144047E00492BDF808201A80FFF719BA049A136895
S2144047F004320492029A1A60FFF711BA0DAA009981
S2144048000598FFF79FF900287FF476AE0E980F9A2A
S21440481000F1010EDA46FAE54FF0FF30FFF7B6BA80
S2144048206248164654EA050204934FF000097FF4A6
S214404830DDAEFCE6049BF5E7049A8DF82F90134610
S2144048401468019A002A03F104034FF00005FFF6AE
S214404850C7AD54EA050226F0800604937FF45BACAD
S21440486051E40DAA00990598FFF76CF900287FF4EB
S21440487043AE0F9A68E610464FF0010EDA46E6E57C
S21440488004998DF82F300A460C880199002902F1C8
S21440489004024FF000054EDB54EA050126F0800680
S2144048A0049299467FF4E9ABD4E40493F9E638469B
S2144048B0049402F085FF002303909DF82F90019307
S2144048C0FFF79CBA0DAA00990598FFF73BF9002818
S2144048D07FF412AE0E980F9A00F1010EDA46B6E556
S2144048E00E980F9ADFF8CC900130FFF7D2BA1E46EA
S2144048F04FF000097AE6062B28BF0623039304945C
S21440490023EAE3752A4F0CE504926AE50E98DFF831
S214404910A4900130FFF773BBF446FFF71ABB019B28
S2144049209DF82F90039304940190FFF767BA0022F6
S2144049300192FFF7ACB904929946B2E6049A13681E
S21440494001930432002B049298F80130A846BFF633
S2144049509CA94FF0FF320192FFF797B98DF82F00D0
S2144049608EE48DF82F00F0E48DF82F00ABE49946E6
S214404970F30705D52AAF302307F8413DFFF797BB2D
S214404980019B03935F46FFF739BA8DF82F0043E447
S2144049908DF82F00FFF79ABB8DF82F00FFF74DBB21
S2144049A08DF82F000FE58DF82F00F3E4C086400009
S2144049B0D486400000874000F0B50C46ADF26C4D02
S2144049C08989666EE589199621F00201666AADF816
S2144049D00E500025E769ADF80C10099606951AAEFC
S2144049E04FF48065694600960496029505950797AC
S2144049F00646FFF7E3F8051E07DB3046694601F03A
S214404A00EBF8002818BF4FF0FF35BDF80C305B06BA
S214404A1003D5A38943F04003A38128460DF26C4D8D
S214404A20F0BD00BF38B5304B1B6805460C4613B189
S214404A309A6B002A38D0B4F90C2093B218070CD5DC
S214404A402069A8B113F001021ED0636900225B42C0
S214404A50A361A260F0B1002038BDD9063CD5580706
S214404A6026D4206942F00803A3819BB20028E9D1EE
S214404A7003F42072B2F5007FE4D02846214601F0C8
S214404A80DBFCA3892069DDE7990758BF6269A2600D
S214404A900028E0D1B4F90C301A06DDD543F04003C7
S214404AA0A3814FF0FF3038BD184601F029F9C2E720
S214404AB0216B51B104F14003994204D0284601F0DD
S214404AC0E9F9B4F90C2000232363002320696360CE
S214404AD022F024022060C5E742F0400209232B6002
S214404AE04FF0FF30A28138BD40044020024B13B146
S214404AF0024800F005B8704700000000155D400011
S214404B00002301461A46184602F0ECBF02690B69BC
S214404B10934200F38D802DE9F04F03F1FF3801F109
S214404B20140700F1140B57F828205BF828304FEA9A
S214404B30880483B00132B3FBF2F90BEB0403009414
S214404B4007EB040A0193B9F1000F39D00025BC46A3
S214404B50DE462B465CF8046BDEF80020B4B209FB58
S214404B600455360C2C0C09FB0644ADB25B1BA6B2B2
S214404B7013FA82F3C6EB124606EB23469BB243EA91
S214404B800643E2454EF8043B4FEA14454FEA2643B7
S214404B90E0D2009B5BF8033093B9019C231F9B45F2
S214404BA00CD254F8043C4BB9A4F1080302E01A684E
S214404BB0043B1AB99B4508F1FF38F8D3C0F810807B
S214404BC0044602F097FA00282EDB09F101095D46FB
S214404BD0002357F8041B28688AB29A1A090C12FA5E
S214404BE080F2C1EB104303EB224391B241EA03410A
S214404BF0BA4545F8041B4FEA2343EAD25BF828201F
S214404C000BEB880382B91A1F93450BD253F8042C3A
S214404C1042B9083B02E01A68043B1AB99B4508F1C2
S214404C20FF38F8D3C4F81080484603B0BDE8F08F8C
S214404C3000207047000000002DE9F04F016C97B04F
S214404C408146239C92469B4649B1426C4A6001236A
S214404C5093408B6002F06CF80023C9F84030BBF1FB
S214404C60000FD84633DB00232360A54B1A4608EADC
S214404C700303934214D0504659460022002303F0C3
S214404C8079FC054648B3229A01231360249B002BE7
S214404C9000F0C5809B481860013817B0BDE8F08F1B
S214404CA0229A42F20F731360BAF1000F00F0A2800E
S214404CB09548249B002BF0D0C378002B00F0B180A1
S214404CC000F10803249A136017B0BDE8F08F012363
S214404CD02BF000482360C346C7E714AA15AB0192E1
S214404CE0009352465B46484602F0AEFA5FEA1854D6
S214404CF0089040F08880149D159C2C4404F2324362
S214404D00202B40F39182C3F1400304F2124008FA8C
S214404D1003F82AFA00F040EA080003F04DF90123B0
S214404D20013CA1F1F87110930022784B03F006F88D
S214404D306DA3D3E9002303F0B5F96DA3D3E90023AF
S214404D4002F0FEFF064620460F4603F045F96AA3EA
S214404D50D3E9002303F0A6F902460B46304639460F
S214404D6002F0EEFF06460F4603F04CFC002204908D
S214404D7000233046394603F007FC002840F03082D6
S214404D80049E162E00F22982614B03EBC603D3E93C
S214404D90000152465B4603F015FC002800F04982AD
S214404DA0731E049300230C932C1B631E029300F186
S214404DB0328200230593049B002BC0F22382029A82
S214404DC00B9311461944002302910A93209B092B0A
S214404DD029D8052B40F35886043B20930025209B7A
S214404DE0023B032B00F23586DFE813F02C03280243
S214404DF037035904444B474AC8F31300002814BFEE
S214404E001846104655E7CBF3130343F07F511095F1
S214404E105046A4F2FF3441F44011149D84E73E48C6
S214404E203BE7C31C4EE70021C9F844104846209192
S214404E3001F058FF4FF0FF330693209A0D9301235D
S214404E4007902192C9F840000993159B002BC0F2A9
S214404E50D180049A0E2A00F3CD802D4B03EBC2037B
S214404E60D3E90034CDE90234219B002BC0F2008305
S214404E7056465F4650465946DDE902AB52465B46CB
S214404E8003F03AFA03F0BEFB044603F0A5F8524698
S214404E905B4603F007F90B4602463946304602F0B9
S214404EA04DFF079D04F130032B70069B012B0646F1
S214404EB00F4605F1010562D00022184B03F0F2F8C8
S214404EC00022002306460F4603F054FB00287ED1FE
S214404ED0CDF81490DDF818A0DDF81CB0DDE90289A5
S214404EE029E000BFAFF3008061436F63A787D23FDE
S214404EF0B3C8608B288AC63FFB799F501344D33F84
S214404F000000F07FDD8640001C8740000000F83F30
S214404F103087400010874000DC8640000000244078
S214404F2003F0C0F80022002306460F4603F022FB9B
S214404F30002840F0B78342464B463046394603F099
S214404F40DBF903F05FFB044603F046F842464B4667
S214404F5003F0A8F802460B463046394602F0EEFE0D
S214404F6004F1300E05F801EBCBEB050ED6450646B0
S214404F700F464FF00002B04BD2D1DDF814903246C7
S214404F803B463046394602F0DBFE06460F460246B2
S214404F900B46DDE9020103F0F7FA40B932463B46DC
S214404FA0DDE9020103F0E6FA88B1E3070FD515F80C
S214404FB0014C079A6B1E04E09A4200F02C8413F8CA
S214404FC0014D392C03F10105F6D001341C700899C7
S214404FD0484601F0ADFE0022049B2A70229A013317
S214404FE01360249B002B00F0A78307981D6017B022
S214404FF0BDE8F08F099A002A00F01281209A012A13
S21440500040F35882069B0A9A5F1EBA42C0F29783C4
S214405010D71B069B002BC0F28A84059D069B059AEB
S2144050201A440592029A01211A444846029201F017
S21440503017FF064665B1029900290B4608DDA942CE
S214405040059AA8BF2B46D21AED1ACB1A05920293A0
S2144050500A9B002B40F3FC82099A002A00F001824A
S214405060002F00F0FE8131463A46484601F09AFF4E
S214405070DDF82080014642460646484601F0FAFEE4
S21440508041460446484601F053FE0A9BDB1B0A9302
S21440509040F0E6810121484601F0E2FE0B9B804647
S2144050A0002B00F0198201461A46484601F07AFF66
S2144050B0209B012B804640F3F8820027D8F810301A
S2144050C008EB8303186901F07DFEC0F12000029AC8
S2144050D0104410F01F0000F0F681C0F12003042BAE
S2144050E040F3CA84059BC0F11C0003440593134655
S2144050F0034405440293059B002B05DD21461A46D2
S214405100484601F09FFF0446029B002B05DD4146C2
S2144051101A46484601F096FF80460C9B002B40F00E
S2144051207C82069B002B40F39582099B002B40F027
S214405130F581DDF81CB0069F5D4602E001F002FEF8
S214405140044641462046FFF7E1FC00F1300A05F8E8
S21440515001ABCBEB0503BB424FF00A024FF0000316
S21440516021464846EADB079B069A012AACBF9B18B5
S21440517001331D464FF0000B21460122484601F000
S21440518061FF4146089001F0B5FF002840F30D83CB
S21440519015F8012C07996B1E04E08B4200F07882CC
S2144051A013F8012D392A03F10105F6D001321A70A1
S2144051B04146484601F0BCFD002E3FF408AFBBF127
S2144051C0000F05D0B34503D05946484601F0B0FD20
S2144051D03146484601F0ACFDF9E601230C93E3E581
S2144051E0DDF81080404602F0F7FE02460B46304699
S2144051F0394603F0BFF900287FF4C2AD08F1FF330B
S2144052000493BDE5059A049BD21A5B420A93002399
S21440521005920B93DAE55B42059300230293CAE5B9
S2144052200A9F059D099E05E7C3F120080AFA08F083
S21440523073E50C90B8E500BF0000244000230993B6
S214405240049B219A13440D930133002B069340F39D
S2144052508382069C26460021172EC9F844100BD997
S214405260012204235B0003F11400B042114602F110
S2144052700102F7D9C9F84410484601F033FD0E2C18
S2144052800790C9F840003FF6E0AD002D3FF4DDAD95
S21440529004995746D8460029CDE90E7840F39282C5
S2144052A0914B01F00F020E1103EBC203F006D3E957
S2144052B0004540F14C828D4B50465946D3E9082371
S2144052C003F01AF806F00F0682468B464FF00308A6
S2144052D086B1864FF10709D520462946D7E90023EF
S2144052E002F0E0FE08F1010804460D46761007F18C
S2144052F00807EFD122462B465046594602F0FCFF9F
S21440530006460F460C9B43B10022794B3046394641
S21440531003F03AF9002840F02083404602F05CFE55
S21440532032463B4602F0BEFE724B002202F008FDBB
S214405330069B0446A1F15075002B00F0DF81049BCC
S214405340DDF818801193099B002B00F09782664B7E
S214405350694903EBC80353E90223002002F0CCFF5F
S21440536022462B4602F0EAFC82468B4630463946B9
S21440537003F048F9044602F02FFE02460B4630463C
S214405380394602F0DBFC3034079DE4B206460F4651
S2144053902C7002460B4650465946013503F012F92A
S2144053A000284CD132463B460020514902F0C6FC0C
S2144053B002460B465046594603F004F9002840F092
S2144053C00D83B8F1010F40F3B381079B98440DE07D
S2144053D00020474902F0B2FC52465B4603F0D4F840
S2144053E0002840F0FB82454500F0A28150465946D1
S2144053F00022424B02F056FE0022404B82468B462D
S2144054003046394602F04EFE0F46064603F0FAF89E
S214405410044602F0E1FD02460B463046394602F0AD
S2144054208DFC3034E4B252465B4605F8014B0646E6
S2144054300F4603F0A9F832463B460028C8D0119BD9
S2144054400493C4E500230993219B002B40F38981F4
S2144054501E461C460D930693FDE601230993F3E78B
S21440546008940A9A0899484601F09CFD044611E6BD
S214405470069B002B3FF7FCAC40F0DA820022204B24
S214405480DDE9020102F00EFE52465B4603F090F85C
S214405490DDF818804646002800F0F280219B079DE4
S2144054A0DB4304934146484601F042FC002E3FF45D
S2144054B08EAD8DE6109A002A00F0418203F2334307
S2144054C00A9F059DABE51C20059B03440593029B64
S2144054D00344054402930EE6209B012B40F3828250
S2144054E00B9F0120F3E500BF30874000F88740005F
S2144054F00000F03F00001C400000E03F0000244059
S21440550000001440314600230A22484601F01AFCA7
S2144055100D9B002B064640F397820693002D05DD33
S21440552031462A46484601F08DFD0646002F40F09B
S2144055307C810596069B079ADDF814B0013BD3188C
S21440554008930AF0010309931746C246514620467F
S214405550FFF7DCFA31460546204601F0CBFD5A46B9
S21440556002905146484601F0E5FDC268804605F186
S2144055703003002A49D101462046069301F0BAFD81
S21440558041460590484601F0D3FB059A069B2AB94A
S214405590209919B90999002900F036820299002904
S2144055A0C0F2E48005D1209919B90999002900F084
S2144055B0DD80002A00F34D81089A3B7007F1010810
S2144055C09742454600F05481214600230A22484629
S2144055D001F0B8FB5E45044631464FF000034FF0FD
S2144055E00A0248460BD001F0ADFB5946064600235A
S2144055F00A22484601F0A6FB47468346A6E701F046
S214405600A1FB474606468346A0E701464846059323
S21440561001F08EFB0122059BC0E74146204601F083
S21440562069FD0028BFF67DAD2146049C0023013C61
S2144056300A224846049401F085FB099B0446002B49
S2144056407FF460AF0D9B002B40F3F681069370E528
S214405650089C1FE5209B022B7FF767AD069B002B1F
S21440566040F0798141460522484601F06BFB0146F1
S2144056708046204601F03EFD002808947FF70EAF96
S214405680049A07993123013204920B704D1C09E7A6
S214405690049A01320492079A3123137088E5012355
S2144056A00993CDE5DDF8149091E4BAF1000F7FF44C
S2144056B004ADCBF31303002B40F03F812BF00047A3
S2144056C03F0D3F0537B1059B01330593029B0133E0
S2144056D0029301270B9B0120002B3FF4F8ACEDE42E
S2144056E0404602F079FC32463B4602F0DBFC0022A4
S2144056F0BF4B02F025FB0446A1F1507530463946B3
S2144057000022BC4B02F01AFB22462B4606460F46AA
S21440571002F058FF8046002840F00581224605F1F9
S21440572000433046394602F02FFF08B14646B5E6FC
S214405730DDE90EABFFF789BB0798FFF7AEBA0A9BC9
S2144057400B9A0A97FB1A1A440B92002761E4DDE98C
S2144057500EAB4FF00208BBE51C460021C9F84410CA
S2144057608AE5012421940D940694F6E7002AD04653
S214405770CDF814B09A4611DD21460122484601F084
S21440578061FC4146044601F0B5FC002840F34981DF
S214405790BAF1390F00F0068105F1310AB34687F8B1
S2144057A000A07D1C059E089402E504D11AF0010F66
S2144057B001D0EDE4154615F8013C302B05F1FF32DB
S2144057C0F8D0F5E4049B5C42002C00F0BF808A4B86
S2144057D004F00F0203EBC203D3E90023DDE90E0118
S2144057E002F060FC241106460F4600F02A81834DE5
S2144057F04FF00208E20709D530463946D5E900237E
S21440580002F050FC08F1010806460F46641005F108
S2144058100805EFD176E5079930220A70049A15F804
S214405820014C01320492FFF7D0BB7168484601F044
S21440583059FA33699A1C0546920006F10C010C3061
S21440584001F04EF929460122484601F0FBFB05903F
S21440585070E6392BCDF814B0D04600F0A38003F1A3
S214405860010AB34687F800A07D1C059E08949FE475
S2144058705A46D046B3469A4616467DE45E4908F1F7
S214405880FF3A01EBCA0122462B46D1E9000102F05D
S21440589009FCCDE912013946304602F0B3FE044613
S2144058A002F09AFB02460B463046394602F046FA6C
S2144058B0079A3034B8F1010F06460F46147002F1CD
S2144058C001051ED0079B03EB080BA84600224C4B55
