S011000031312D54432D5254432E73726563D7
S2144000002029402089174000391840003918400000
S21440001039184000391840003918400000000000E8
S21440002000000000000000000000000039184000FA
S21440003039184000000000003918400039184000C8
S2144000403918400039184000391840003918400027
S2144000503918400039184000391840003918400017
S2144000603918400000000000CD0F4000E50F40006A
S214400070FD0F40003918400039184000391840003C
S214400080151040002D104000391840003918400027
S21440009039184000391840003918400039184000D7
S2144000A06520400039184000391840003918400093
S2144000B039184000391840003918400039184000B7
S2144000C039184000391840003918400039184000A7
S2144000D000000000391840000000000039184000B9
S2144000E03918400039184000391840003918400087
S2144000F03918400039184000391840003918400077
S2144001003918400039184000391840003918400066
S2144001103918400000000000000000000000000009
S2144001203918400039184000391840003918400046
S21440013039184000000000003918400039184000C7
S21440014010B5054C237833B9044B13B10448AFF3CC
S21440015000800123237010BD4408402000000000AA
S214400160F0324000084B10B51BB108490848AFF3C1
S21440017000800848036803B910BD074B002BFBD02E
S214400180BDE81040184700BF000000004808402067
S214400190F0324000F03240000000000080B582B0EF
S2144001A000AF78607B68072B31D801A252F823F065
S2144001B00D024000D1014000D9014000E10140005D
S2144001C0E9014000F1014000F9014000030240000F
S2144001D00020114B98471AE001200F4B984716E035
S2144001E000200E4B984712E010200C4B98470EE02C
S2144001F020200A4B98470AE03E210020084B9847AB
S21440020005E03E210120064B984700E000BF00BFB6
S2144002100837BD4680BD00BF45114000B1114000C3
S2144002202112400080B582B000AF78607B68072B13
S21440023026D801A252F823F0590240005D02400041
S2144002405D0240006F0240006F0240006F024000B7
S2144002506F0240006F024000012312E00B4B9847AC
S2144002600346002B14BF01230023DBB209E0084BF2
S21440027098470346002B14BF01230023DBB200E05F
S214400280002318460837BD4680BD00BF7D1140009C
S2144002909912400080B483B000AF78607B68072B2B
S2144002A025D801A252F823F0C9024000CF024000F0
S2144002B0D5024000DB024000DF024000E30240007F
S2144002C0E7024000EB0240004FF4FA4310E04FF4E0
S2144002D000430DE04FF400430AE0084B08E0084BAB
S2144002E006E0084B04E0074B02E0064B00E0002324
S2144002F018460C37BD465DF8047B704700093D0044
S21440030000127A00001BB70080B582B000AF0346EB
S214400310FB7100BFFB791846054B9847034683F0B0
S2144003200103DBB2002BF5D100BF0837BD4680BDC8
S2144003302502400080B586B000AFF8607A603B602A
S2144003400B46FB727B68002B07D13B68002B04D121
S214400350FB684FF470021A6019E0FB7A18460E4BA1
S214400360984702467B68B2FBF3F37B617B693A6849
S21440037002FB03F37B613B68013B1A04074B1340C7
S2144003807A68D2B2134343F47C52FB681A6000BFCB
S2144003901837BD4680BD00BF950240000000FF07ED
S2144003A080B582B000AF786039603B68002B08D1DA
S2144003B0094B9847094A7B681B6843F00053936291
S2144003C005E0064A7B681B6843F48033D36100BF70
S2144003D00837BD4680BD00BFB512400000060E403F
S2144003E080B582B000AF78607B68002B03D1054BA8
S2144003F09847034602E0044B98470346184608379A
S214400400BD4680BDD1124000ED12400080B582B09E
S21440041000AF0346FB71FB79033B042B08D8FB79FE
S2144004201846064B9847FB791846054B984700E018
S21440043000BF00BF0837BD4680BD00BF9D014000DD
S2144004400903400080B582B000AF786000BF78688E
S214400450044B98470346002BF9D00023184608372C
S214400460BD4680BDE103400080B500AF0620054B89
S2144004709847024613469B0013449A001344184676
S21440048080BD00BF9502400080B500AF024B984744
S2144004900346184680BD00BF6904400090B583B04F
S2144004A000AF1348134B98470620134B9847381D08
S2144004B0192301220621114CA0473B1D0021184656
S2144004C00F4B984700200F4B984702200E4B9847FB
S2144004D000200E4B98470E4B98470E4B98470346C6
S2144004E01846044B984700BF0C37BD4690BD00BF2A
S2144004F000A3E111AD1940000D0440003503400053
S214400500A10340004504400045104000C110400093
S214400510411840008904400080B586B000AFF860BE
S214400520B9607A6000237B61FB68002B12D04FF0E5
S214400530FF3313E00B4B1B680B4A1268B968104632
S2144005409847BB680133BB607B6901337B617B683E
S214400550013B7B607B68002BECDC7B6918461837D8
S214400560BD4680BD100940201809402080B586B0A1
S21440057000AFF860B9607A6000237B61FB68012BAE
S2144005801ED0FB68022B1BD0FB68032B18D04FF005
S214400590FF3319E00E4B1A680E4B1868BB68591C9F
S2144005A0B9601B78194690470346002B02DA4FF095
S2144005B0FF3309E07B6901337B617B68013B7B60ED
S2144005C07B68002BE6D17B6918461837BD4680BD50
S2144005D0140940201809402080B400AFBFF34F8F65
S2144005E0BFF36F8F094B0022C3F85022074A074BD0
S2144005F05B6943F400335361BFF34F8FBFF36F8F94
S21440060000BFBD465DF8047B704700BF00ED00E0CC
S21440061080B48BB000AF264BD3F88030FB61FB69CB
S2144006205B0BC3F30E037B62FB6903F007030433E3
S214400630BB61FB69DB08C3F309037B617B69FB6035
S214400640FB68B3FA83F37B607B68DBB203F01F037F
S2144006503B61BFF34F8F7B693B623A6A3B6902FA64
S21440066003F319467A6ABB6902FA03F30B43BB608D
S2144006700F4ABB68C2F860323B6A5A1E3A62002B89
S214400680EBD17B6A5A1E7A62002BE4D1BFF34F8FC0
S214400690074A074B5B6943F480335361BFF34F8F80
S2144006A0BFF36F8F00BF2C37BD465DF8047B7047A5
S2144006B000ED00E080B582B000AF78607868034B0C
S2144006C0984700BF0837BD4680BD00BF09134000AD
S2144006D080B500AF0A20084B98470B20064B98473A
S2144006E00C20054B98471020034B98471120024B8F
S2144006F0984700BF80BD00BFB506400080B489B0B3
S21440070000AF78607B68FB61FB69BB61BB695A09D7
S214400710FB697B617B6903F01F03012101FA03F348
S2144007203A61FB603B69BB60BA68064B13445B02A8
S2144007301A46FB68536000BF2437BD465DF8047B0D
S214400740704700BF0707200080B48DB000AF7860C8
S21440075039607B68FB623B68BB62FB6A7B627B6A94
S2144007605A09FB6A3B623B6A03F01F03012101FA08
S21440077003F3FA61BB61BB6A7B61FB693B613A6923
S214400780374B13445B02FB607B6903F00803002B86
S21440079003D0FB68BA695A6602E0FB68BA691A6613
S2144007A07B6903F01003002B04D0FB68BA69C3F8DA
S2144007B0942003E0FB68BA69C3F890207B6903F095
S2144007C02003002B03D0FB68BA691A6502E0FB6879
S2144007D0BA695A657B6903F0C003002B03D0FB68F7
S2144007E0BA691A6202E0FB68BA695A627B6903F02A
S2144007F08003002B04D0FB68BA69C3F8842003E06A
S214400800FB68BA69C3F880207B6903F00103002BBC
S21440081006D0FB681A6FBB691A43FB681A6706E086
S214400820FB681A6FBB69DB431A40FB681A677B6933
S21440083003F00203002B06D0FB685A6FBB691A43CD
S214400840FB685A6706E0FB685A6FBB69DB431A4091
S214400850FB685A6700BF3437BD465DF8047B704777
S2144008600707200080B48DB000AF78600B46FB7061
S2144008707B68FB62FB7887F82B30FB6A7B627B6A7F
S2144008803B623B6A5B09FB61FA69174B13445B02A8
S214400890BB6197F82B30012B09D1FB6A7B617B69E2
S2144008A003F01F0301229A40BB691A610CE097F8D7
S2144008B02B30002B08D1FB6A3B613B6903F01F03DA
S2144008C001229A40BB695A61FB6AFB60FB6803F0F1
S2144008D01F0301229A40BB69C3F8A02000BF3437EB
S2144008E0BD465DF8047B70470707200080B48BB098
S2144008F000AF78600B46FB707B687B62FB7887F8BE
S21440090023307B6AFB61FB69BB61BB695B097B612A
S2144009107A69104B13445B023B6197F82330002BF7
S21440092009D07B6AFB60FB6803F01F0301229A40F4
S2144009303B691A6308E07B6ABB60BB6803F01F0331
S21440094001229A403B695A6300BF2C37BD465DF88A
S214400950047B70470707200080B48DB000AF7860F6
S2144009600B46FB707B68FB62FB7887F82B30FB6A94
S2144009707B627B6A5A09FB6A3B623B6A03F01F0351
S214400980012101FA03F3FA61BB6197F82B30FB753E
S214400990FB693B613A69234B13445B02FB60FB7D7A
S2144009A0013B032B2ED801A252F823F0E109400068
S2144009B0F3094000BD094000CF094000FB68BA6912
S2144009C0C3F8C420FB68BA69C3F8D0201FE0FB68B0
S2144009D0BA69C3F8C420FB68BA69C3F8D42016E0E5
S2144009E0FB68BA69C3F8C020FB68BA69C3F8D02070
S2144009F00DE0FB68BA69C3F8C020FB68BA69C3F863
S214400A00D42004E0FB68BA69C3F8B42003E0FB686E
S214400A10BA69C3F8B02000BF3437BD465DF8047BE2
S214400A20704700BF0707200080B400AFBFF34F8F6A
S214400A30BFF36F8F0C4A0C4BD3F8903223F0010370
S214400A40C2F89032084A084BD3F8943223F0010398
S214400A50C2F89432BFF34F8FBFF36F8F00BFBD46CF
S214400A605DF8047B704700BF00ED00E080B500AF46
S214400A701E4B4FF400425A601D4B98471D4B9847FB
S214400A801D4B1E4A5A601C4B1D4A5A601D4B9847C8
S214400A901D4B9847012148201C4B98470121482070
S214400AA01B4B984700210B20184B984788210B205A
S214400AB0184B984702210B20174B984700211520CA
S214400AC0144B98471520154B9847154A144BD3F8A6
S214400AD0143143F01003C2F81431032124200D4B87
S214400AE0984724200D4B984700BF80BD50180E40B5
S214400AF0D905400011064000000C0E400C08005A74
S214400B000C07005A290A4000D106400065084000FC
S214400B10ED0840004907400059094000FD064000E6
S214400B200080084080B485B000AFF860B9607A6055
S214400B307B68002B03D0FB68BA685A6602E0FB6805
S214400B40BA681A6600BF1437BD465DF8047B704726
S214400B5080B483B000AF786039607B683A681A63C7
S214400B6000BF0C37BD465DF8047B704780B483B049
S214400B7000AF786039607B683A685A6300BF0C37CC
S214400B80BD465DF8047B704780B487B000AFF86020
S214400B90B9607A60FB687A685A64BB68B3F1C05F34
S214400BA04AD0B3F1C05F08D8B3F1006F16D0B3F1A6
S214400BB0805F2CD0002B69D064E0B3F1205F65D015
S214400BC0B3F1205F03D8B3F1005F4AD05AE0B3F1E7
S214400BD0405F5BD0B3F1605F58D053E0FB681B6F5B
S214400BE07B61FB681A6F7B68D9437B690B401A4070
S214400BF0FB681A67FB685B6F7B61FB685A6F7B68B4
S214400C00D9437B690B401A40FB685A673AE0FB6859
S214400C101B6F7B617A687B691A43FB681A67FB68BF
S214400C205B6F7B61FB685A6F7B68D9437B690B407F
S214400C301A40FB685A6725E0FB681B6F7B61FB68C0
S214400C401A6F7B68D9437B690B401A40FB681A676A
S214400C50FB685B6F7B617A687B691A43FB685A67FF
S214400C6010E0FB681B6F7B617A687B691A43FB6800
S214400C701A67FB685B6F7B617A687B691A43FB681F
S214400C805A6700BFFB687A685A6000E000BF1C37AE
S214400C90BD465DF8047B704780B584B000AFF86011
S214400CA0B9607A60B968F868194B98477B6803F072
S214400CB001031A46B968F868164B98477B6803F0F4
S214400CC00A03002B03D0FB68BA681A6202E0FB688E
S214400CD0BA685A627B6803F00203002B04D0FB68B4
S214400CE0BA68C3F8802008E07B6803F00803002B4E
S214400CF003D0FB68BA68C3F88420FB68BA685A61B8
S214400D00FB68BA681A6000BF1037BD4680BD00BF9A
S214400D102D0E4000250B400080B584B000AFF86033
S214400D20B9607A603B60B968F868124B9847BA6910
S214400D30B968F868104B98473B68002B03D0FB68AF
S214400D40BA681A6502E0FB68BA685A657B68002B89
S214400D5003D0FB68BA681A6302E0FB68BA685A6355
S214400D60FB68BA681A61FB68BA681A6000BF103739
S214400D70BD4680BD2D0E4000250B400080B483B09C
S214400D8000AF786039607B689A6B3B681340002BF5
S214400D9001D1002300E0012318460C37BD465DF81C
S214400DA0047B704780B485B000AFF860B9607A6065
S214400DB07B6803F01003002B20D0FB68BA68C3F8AA
S214400DC0B0207B6803F02003002B04D0FB68BA6891
S214400DD0C3F8D42003E0FB68BA68C3F8D0207B6829
S214400DE003F04003002B04D0FB68BA68C3F8C02069
S214400DF008E0FB68BA68C3F8C42003E0FB68BA683A
S214400E00C3F8B42000BF1437BD465DF8047B704776
S214400E1080B483B000AF786039607B683A681A6403
S214400E2000BF0C37BD465DF8047B704780B483B086
S214400E3000AF786039607B683A685A6400BF0C3708
S214400E40BD465DF8047B704780B483B000AF7860E1
S214400E507B68DB6C18460C37BD465DF8047B7047F4
S214400E6080B483B000AF78607B689B6C18460C37C4
S214400E70BD465DF8047B704780B584B000AF7860AF
S214400E8039607868264B9847F8607868254B9847CD
S214400E900246FB681340FB60FB68002B3CD00023F7
S214400EA0BB6034E0204ABB681B0113441A683B68A9
S214400EB09A4226D11C4ABB681B01134404331A6865
S214400EC0FB681340002B1CD0174ABB681B01134419
S214400ED00C331B681449BA6812010A441068124958
S214400EE0BA6812010A4404321268114698470E4AFC
S214400EF0BB681B01134404331B68DB43FA6813408A
S214400F00FB60BB680133BB60BB68062B03D8FB683D
S214400F10002BC7D100E000BF00BF1037BD4680BDE4
S214400F20490E4000610E40006008402080B586B003
S214400F3000AFF860B9607A603B60214B1B68062BB7
S214400F4001D9012338E00023FB7511E0FB7D1B012E
S214400F501C4A13443B613B691A68BB689A4204D1F9
S214400F603B695A687B689A4208D0FB7D0133FB7523
S214400F70FA7D134B1B689A42E8D900E000BF3B69F4
S214400F80BA681A603B697A685A603B693A689A6000
S214400F903B693A6ADA60FA7D094B1B6801339A422C
S214400FA004D1074B1B680133054A13603A687968D9
S214400FB0F868054B9847002318461837BD4680BD4D
S214400FC0D008402060084020A50D400080B500AF06
S214400FD00A210248024B984700BF80BD000E0E40D3
S214400FE0790E400080B500AF0B210248024B98476F
S214400FF000BF80BD00100E40790E400080B500AFA7
S2144010000C210248024B984700BF80BD00120E409C
S214401010790E400080B500AF10210248024B984739
S21440102000BF80BD00140E40790E400080B500AF72
S21440103011210248024B984700BF80BD00160E4063
S214401040790E400080B483B000AF78607B68013B87
S214401050032B1AD801A252F823F000BF6D104000AF
S214401060731040007B1040008310400000237B60DC
S2144010700EE04FF480737B600AE04FF440737B6071
S21440108006E04FF400737B6002E000237B6000BF05
S2144010900A490A4B1B6B23F440727B6813430B636D
S2144010A000BF064B9B6E03F00803002BF9D000BF31
S2144010B00C37BD465DF8047B704700BF00060E4007
S2144010C080B485B000AF78601D491D4B1B6B23F084
S2144010D070027B6813430B634FF48053FB6007E05A
S2144010E0FB68002B01D1012323E0FB68013BFB603A
S2144010F0134B9B6E03F00803002BF1D0104A104BA5
S2144011001B6B23F0030343F0020313634FF4805337
S214401110FB6007E0FB68002B01D1012309E0FB6878
S214401120013BFB60064B9B6E03F00803002BF1D09F
S214401130002318461437BD465DF8047B704700BF51
S21440114000060E4080B483B000AF78607B68012B09
S21440115005D10749064B9A68064B13438B60044BF0
S214401160054A1A6000BF0C37BD465DF8047B7047E1
S21440117010180E40000010A5080000A580B400AF6F
S214401180094B5B6903F08003002B07D0074B9B6E2F
S21440119003F08003002B01D0012300E00023184613
S2144011A0BD465DF8047B704710180E4000060E40A2
S2144011B080B483B000AF78601549154B1A6A154B5A
S2144011C013430B6200BF124B9B6E03F40033002B9D
S2144011D0F9D00F490E4B1A6A0F4B13407A681343E7
S2144011E043F45C130B6200BF094B9B6E03F4003361
S2144011F0002BF9D00649064B1A6A084B134043F4B5
S2144012005C130B6200BF0C37BD465DF8047B70472D
S21440121000060E40080037008FFFC8FFFFFFC8FEDD
S21440122080B483B000AF786039607B68002B08D00C
S2144012301349134B1B6A134A1A40134B13430B6252
S21440124018E00F490E4B1A6A104B13403A681202C8
S21440125092B21A430E4B13430B6200BF084B9B6E71
S21440126003F00103002BF9D00549054B1A6A094BD8
S21440127013430B6200BF0C37BD465DF8047B7047D6
S21440128000060E40FCFFC8FE02003701FCFFC8FF08
S214401290010037000000370180B400AF044B9B6E5E
S2144012A003F480331846BD465DF8047B704700BFA4
S2144012B000060E4080B400AF044B4FF000529A62D6
S2144012C000BFBD465DF8047B704700BF00060E4079
S2144012D080B400AF044B9B6E03F002031846BD4635
S2144012E05DF8047B704700BF00060E4080B400AF38
S2144012F0044B9B6E03F040031846BD465DF8047BE6
S214401300704700BF00060E4080B483B000AF7860E0
S2144013107B683F2B01D901232FE07B681F2B13D816
S214401320194B9A6901217B6801FA03F31A4001219F
S2144013307B6801FA03F39A421ED0134A01217B6868
S21440134001FA03F3136117E07B68203B7B600E4B8A
S214401350D3F8082101217B6801FA03F31A400121E2
S2144013607B6801FA03F39A4206D0074A01217B685C
S21440137001FA03F3C2F80031002318460C37BD4685
S2144013805DF8047B704700BF00060E4080B485B011
S21440139000AF786039607A683B689B011344FB6015
S2144013A0FB681B6A18461437BD465DF8047B7047D9
S2144013B080B485B000AF786039600023FB607B68FE
S2144013C0AC221A603B681A683B685B68B2FBF3F372
S2144013D01B09FB60FB68002B03D0FB68B3F5803F1E
S2144013E001D301230AE07B68FA681A623B689A6870
S2144013F07B685A607B6850221A6000231846143770
S214401400BD465DF8047B704780B483B000AF78601B
S2144014100B46FB707B685B6903F00203002B01D12F
S214401420012303E0FA787B68DA61002318460C371C
S214401430BD465DF8047B704780B483B000AF7860EB
S21440144039607B685B6903F00103002B01D10123FF
S21440145005E07B689B69DAB23B681A700023184641
S2144014600C37BD465DF8047B704700BF80B489B03A
S21440147000AFF860B9607A60BB681A017B689A4230
S21440148002D81023FB6101E00823FB617B68DA0089
S214401490FB69B96801FB03F35B081A44FB69B9684A
S2144014A001FB03F3B2FBF3F3BB61BB69DB087B6173
S2144014B0BB6903F007033B617B69002B03D07B6964
S2144014C0B3F5803F01D301230FE0FB69082B05D11C
S2144014D0FB685B6843F40022FB685A603B691A0469
S2144014E07B691A43FB681A62002318462437BD46B8
S2144014F05DF8047B704700BF80B582B000AF78606F
S21440150078680D4B98477B6800225A607B680022BB
S2144015105A627B6800229A627868084B98477868D7
S214401520074B98477868074B98477868064B984724
S21440153000BF0837BD4680BDE1164000ED154000AF
S21440154025164000411640005D16400080B584B028
S21440155000AFF860B9607A60F8681A4B98471A4B43
S21440156000221A60BB68002B09D0BB681B687A68EB
S2144015701946F868154B98470346002B01D00123BF
S2144015801BE0BB685A68BB689B681A43BB681B690C
S2144015901A43BB68DB681A430B4B1B6813430A4A63
S2144015A01360094B1B68084A1360FB685A68064B71
S2144015B01B681A43FB685A60002318461037BD461E
S2144015C080BD00BFF9144000D40840206D14400090
S2144015D080B483B000AF78607B6840221A6000BF5A
S2144015E00C37BD465DF8047B704700BF80B483B0BF
S2144015F000AF78607B6888221A6000BF0C37BD4613
S2144016005DF8047B704700BF80B483B000AF78605D
S2144016107B6810221A6000BF0C37BD465DF8047B1D
S214401620704700BF80B483B000AF78607B682422E8
S2144016301A6000BF0C37BD465DF8047B704700BF9C
S21440164080B483B000AF78607B684FF480721A60D5
S21440165000BF0C37BD465DF8047B704780B483B04E
S21440166000AF78607B684FF400221A6000BF0C37EA
S214401670BD465DF8047B704780B483B000AF7860A9
S21440168039607B685B6903F00203002B01D10123BC
S21440169005E03B68C3F308027B68DA61002318461E
S2144016A00C37BD465DF8047B704700BF80B483B0FE
S2144016B000AF786039607B685B6903F00103002BFC
S2144016C001D1012306E07B689B69C3F308023B68AF
S2144016D01A60002318460C37BD465DF8047B7047F9
S2144016E080B483B000AF78607B68044AC3F8E420D7
S2144016F000BF0C37BD465DF8047B7047004153552C
S21440170080B483B000AFEFF310837B607B68002B20
S2144017100CBF01230023DBB23B6072B6BFF35F8F82
S214401720044B00221A703B6818460C37BD465DF8DD
S214401730047B70470000402080B483B000AF7860E0
S2144017407B68002B14BF01230023DBB218460C37FE
S214401750BD465DF8047B704780B582B000AF7860C8
S2144017607868074B98470346002B05D0054B012267
S2144017701A70BFF35F8F62B600BF0837BD4680BDA4
S214401780391740000000402080B584B000AF1E4BA3
S214401790FB601E4BBB60FA68BB689A420CD007E001
S2144017A0BB681A1DBA60FA68111DF96012681A60A3
S2144017B0BB68174A9342F3D3164BBB6004E0BB6842
S2144017C01A1DBA6000221A60BB68134A9342F6D3C9
S2144017D0124BFB60124AFB6823F07F039360114B69
S2144017E098477860104A104B1B6843F470031360A8
S2144017F0BFF34F8FBFF36F8F78680C4B98470C4BF7
S21440180098470C4B9847FEE7F032400000004020D7
S2144018104408402044084020200940200000400062
S21440182000ED00E00117400088ED00E05917400049
S214401830412240007D21400080B400AFFEE700BF5B
S21440184080B400AF524B1B6B03F00303012B14D044
S214401850012B02D3022B38D07AE04E4B5B6903F063
S2144018608003002B04D04C4B4FF400421A606FE0CC
S214401870494B4FF4FA421A606AE0454B1B6A03F044
S2144018808073002B03D0444B444A1A6060E0424BBE
S214401890434A1A603E4B1B6A03F07003102B04D079
S2144018A0202B08D0002B0ED00EE03B4B1B685B0075
S2144018B0394A136008E0384B1A6813465B001344F5
S2144018C0354A136000E000BF42E0314B1B6A03F02C
S2144018D08073002B03D0304B304A1A601CE02E4BEE
S2144018E02F4A1A602A4B1B6A03F07003102B04D051
S2144018F0202B08D0002B0ED00EE0274B1B685B0039
S214401900254A136008E0244B1A6813465B001344CC
S214401910214A136000E000BF1D4B1B6B03F003031E
S214401920022B14D11A4B9A6A1E4B13401B0C0133E0
S214401930194A126802FB03F3174A1360144B9B6A5A
S214401940DBB2154A1268B2FBF3F3134A136000BFCA
S2144019500F4B1B6B03F07003702B08D10E4B1B68AC
S214401960114AA2FB03235B080B4A13600AE0084BAC
S2144019701B6B03F070031B09074A126822FA03F335
S214401980054A136000BFBD465DF8047B704700BF44
S21440199000060E4010180E4004004020001BB70002
S2144019A000093D000000FF07ABAAAAAA80B483B096
S2144019B000AF78607B68194A934204D8184B4FF0C2
S2144019C080621A6023E07B68164A934203D8144B21
S2144019D0154A1A601BE07B68144A934203D8104BA2
S2144019E0134A1A6013E07B68124A934203D80C4BA2
S2144019F0114A1A600BE07B68104A934204D8084BA1
S214401A004FF004221A6002E0054B0D4A1A6000BFF0
S214401A100C37BD465DF8047B704700BFFF2C310194
S214401A20000C0E40FF59620200010004FF8693033B
S214401A3000020004FFB3C40400030004FFE0F50501
S214401A400005000480B485B000AF7860104BFB60A2
S214401A50104B1B68002B02D10E4B0F4A1A600D4BE1
S214401A601B68BB60BA687B681A44FB689A4202DD12
S214401A704FF0FF3306E0074B1A687B681344054A6D
S214401A801360BB6818461437BD465DF8047B704744
S214401A90FCFF4520D8084020202B402080B483B04F
S214401AA000AF78604FF0FF3318460C37BD465DF800
S214401AB0047B704780B483B000AF786039603B6881
S214401AC04FF400525A60002318460C37BD465DF866
S214401AD0047B704780B485B000AFF860B9607A6028
S214401AE0002318461437BD465DF8047B704700BF98
S214401AF080B483B000AF0346FB71094997F90730BD
S214401B005B09FA7902F01F02012000FA02F241F85E
S214401B10232000BF0C37BD465DF8047B704700BFEE
S214401B2000E100E080B483B000AF03463960FB714B
S214401B3097F90730002B0BDA0D49FB7903F00F03BA
S214401B40043B3A68D2B25201D2B20B441A7609E04C
S214401B50084997F907303A68D2B25201D2B20B44DC
S214401B6083F8002300BF0C37BD465DF8047B704702
S214401B7000ED00E000E100E080B483B000AF7860A4
S214401B807B68072B25D801A252F823F0AD1B4000F6
S214401B90B31B4000B91B4000BF1B4000C31B4000A6
S214401BA0C71B4000CB1B4000CF1B40004FF4FA43FE
S214401BB010E04FF400430DE04FF400430AE0084BBA
S214401BC008E0084B06E0084B04E0074B02E0064BF3
S214401BD000E0002318460C37BD465DF8047B70478E
S214401BE000093D0000127A00001BB70080B500AF28
S214401BF00620054B9847024613469B0013449A001E
S214401C001344184680BD00BF791B400080B500AF26
S214401C10024B98470346184680BD00BFED1B400068
S214401C2080B500AF024B984703465B08184680BD18
S214401C30ED1B400080B582B000AF78607868034BFB
S214401C40984700BF0837BD4680BD00BF0913400017
S214401C5080B58CB000AF78603960494B98470346F2
S214401C607B623B681B68BB623B689B68FB623B6869
S214401C701B68FB603B685B683B613B689B687B61BD
S214401C803B68DB68BB610023FB617B683D4A93424F
S214401C9008D107203C4B984707F12403194678683B
S214401CA03A4B98477B683A4A934208D10820364BCD
S214401CB0984707F1240319467868344B98477B6861
S214401CC0344A934208D12C202F4B984707F12403DF
S214401CD0194678682D4B98477B682F4A934208D11F
S214401CE02D20294B984707F1240319467868274B3F
S214401CF098477B68294A934211D10D20224B98473A
S214401D001F4B9847024607F10C0319467868244B48
S214401D1098477868234B98477868234B98477B6862
S214401D20224A934211D10E20174B9847144B98479E
S214401D30024607F10C0319467868194B98477868AD
S214401D40184B98477868184B98477B68184A9342D0
S214401D5011D10F200C4B9847094B9847024607F184
S214401D600C03194678680E4B984778680D4B984791
S214401D7078680D4B984700BF3037BD4680BD00BFE2
S214401D80211C400000080E40351C4000B1134000A6
S214401D90000A0E40001A0E40001C0E400040024052
S214401DA04D154000D1154000091640000080024005
S214401DB000C0024080B582B000AF78600B46FB7032
S214401DC07B68364A93420AD100BFFB78194678684A
S214401DD0334B98470346002BF7D101235AE07B68E4
S214401DE0304A93420AD100BFFB78194678682C4B9C
S214401DF098470346002BF7D101234BE07B682A4ADD
S214401E0093420AD100BFFB7819467868244B98471E
S214401E100346002BF7D101233CE07B68234A9342DC
S214401E200AD100BFFB78194678681D4B9847034691
S214401E30002BF7D101232DE07B681D4A93420AD13F
S214401E4000BFFB78194678681A4B98470346002B24
S214401E50F7D101231EE07B68174A93420AD100BFA0
S214401E60FB7819467868134B98470346002BF7D102
S214401E7001230FE07B68114A93420AD100BFFB78EA
S214401E80194678680B4B98470346002BF7D1012339
S214401E9000E0002318460837BD4680BD00080E40C7
S214401EA009144000000A0E40001A0E40001C0E4066
S214401EB000400240791640000080024000C00240C8
S214401EC080B584B000AF786039600023FB607B68E3
S214401ED0344A934207D100BF39687868324B9847F6
S214401EE00346002BF8D17B68304A934207D100BFA7
S214401EF0396878682C4B98470346002BF8D17B68A6
S214401F002B4A934207D100BF39687868264B9847DA
S214401F100346002BF8D17B68264A934207D100BF80
S214401F2039687868204B98470346002BF8D17B6881
S214401F30214A93420DD100BF07F10C031946786839
S214401F401E4B98470346002BF6D1FB68DAB23B6837
S214401F501A707B681A4A93420DD100BF07F10C03F2
S214401F6019467868154B98470346002BF6D1FB6810
S214401F70DAB23B681A707B68124A93420DD100BFB2
S214401F8007F10C03194678680C4B98470346002B1C
S214401F90F6D1FB68DAB23B681A7000BF1037BD4610
S214401FA080BD00BF00080E4039144000000A0E40B5
S214401FB0001A0E40001C0E4000400240AD16400085
S214401FC00080024000C0024080B582B000AF78601A
S214401FD039600F4A7B6813600E4B0F4A1A600F4BEE
S214401FE00F4A1A60396878680E4B98470E4B1B6844
S214401FF09B68002118460D4B98470B4B1B685B6847
S21440200000211846094B984700BF0837BD4680BD9B
S2144020101809402014094020B51D400010094020F2
S214402020C11E4000511C4000300440202D2340007B
S21440203080B582B000AF786039604FF08051064876
S214402040064B98474FF480710548044B984700BFAD
S2144020500837BD4680BD00BF00140E409D2040009E
S21440206000120E4080B582B000AF01210748084BF1
S214402070984703467B607B684FF480710548064B63
S214402080984700BF0837BD4680BD00BF00C000402F
S2144020908D13400000120E409D20400080B582B057
S2144020A000AF7860396039687868094B98470346CE
S2144020B0002B04D039687868064B984703E03968A7
S2144020C07868054B984700BF0837BD4680BD00BFBF
S2144020D07D0D40006D0B4000510B400090B583B025
S2144020E002AF0A20104B984709224FF400610F4870
S2144020F00F4B98474FF400610C480E4B98470E4BD9
S214402100009350234FF400620A2108480B4CA04726
S2144021100A200B4B984701210A200A4B984700BFDC
S2144021200437BD4690BD00BF09134000000E0E4068
S214402130990C4000110E4000312040002D0F400009
S214402140F11A4000251B400090B585B002AF78607C
S2144021500C20074B98477A680023009300234FF4DF
S21440216080710448044CA04700BF0C37BD4690BD64
S2144021700913400000120E40190D400090B5A1B062
S21440218002AF1F4B98471F4B4FF400425A601E4BFE
S214402190984701201D4B98471D4B98471D4B984725
S2144021A078670B201C4B984701224FF0C0511B48C4
S2144021B01B4B984702224FF0C0511848184B98477F
S2144021C0184B3C460FCB84E80F000D20124B984727
S2144021D03B4619461448154B98471020144B9847D1
S2144021E000230093002300224FF080511148124CE8
S2144021F0A0474FF080510F48104B9847FEE700BF6E
S2144022009D04400050180E406D0A40004921400091
S214402210DD2040000D1C4000351C400000100E40E4
S214402220890B4000B432400000400240C91F4000C5
S2144022300913400000140E40190D40006D0B40007D
S21440224070B50F4E0F4D761BB61018BF002405D044
S214402250013455F8043B9847A642F9D10A4E0B4D37
S214402260761B01F033F8B61018BF002406D00134B0
S21440227055F8043B9847A642F9D170BD70BD00BFE3
S214402280D8324000D8324000E0324000D8324000D9
S21440229070B4840746D0541E002A41D0CDB20346BF
S2144022A002E0621EE4B3144603F8015B9A07F8D1D5
S2144022B0032C2ED9CDB245EA05250F2C45EA054517
S2144022C019D903F110022646103E0F2E42F8105C34
S2144022D042F80C5C42F8085C42F8045C02F11002DA
S2144022E0F2D8A4F1100222F00F0204F00F041032CC
S2144022F0032C13440DD91E462246043A032A46F8B8
S214402300045BFAD8221F22F003020432134404F07E
S21440231003042CB1C9B21C4403F8011BA342FBD1F1
S21440232070BC704714460346C2E700BF00290CBF86
S214402330022200224FF4806300F000B82DE9F043FB
S214402340514C256883B004460F4690461E4615B14C
S214402350AB6B002B79D0B8F1020F04D0B8F1010F67
S2144023607FD8002E7DDB2146284600F043F9216BBE
S21440237041B104F14003994202D0284600F03AFAAF
S21440238000232363B4F90C300022A26162601A066F
S21440239054D423F44A6323F00303B8F1020FA38115
S2144023A039D001AB6A462146284600F035FBA38962
S2144023B01843A08126B327B3AB6B002B4DD0009BB0
S2144023C0B4F90C0027609E421CBF40F40060A08118
S2144023D0B8F1010F08BF40F0010083B208BFA081EA
S2144023E003F0080080B22761666118B313F001005D
S2144023F02FD000207642A661A06003B0BDE8F083EF
S214402400009E304600F038FB074668B3A38943F089
S2144024108003A381D0E7002004F1430243F0020387
S21440242000250121A381A56022602261616103B07D
S214402430BDE8F083A06003B0BDE8F083216928467C
S21440244000F0D8F9B4F90C30A3E7284600F066F956
S21440245081E7A66003B0BDE8F083284600F05EF949
S214402460ADE74FF0FF30E2E7DDF80090B14506D02B
S214402470484600F001FB074608B14E46C6E7B4F9A9
S2144024800C304FF0FF30C7E730044020024B13B10A
S214402490024800F005B870470000000031274000B1
S2144024A0002301461A46184600F016BEB1F90C3015
S2144024B09AB22DE9F0410D46110780463CD46A6831
S2144024C043F40063002AAB8173DDAC6A002C4BD02A
S2144024D09BB203F48052002192B2D8F80060C8F84C
S2144024E00010002A69D02A6D5F0705D569682B6BF6
S2144024F0521A0BB1EB6BD21A0023E9694046A0474B
S214402500441C3CD0B5F90C302A692A6023F4006399
S2144025100022AB81DB046A6049D4296BC8F80060AE
S21440252011B305F14003994202D0404600F062F9EB
S21440253000202863BDE8F0812E69AEB12C682E607D
S21440254090070CBF6B690023A41BAB600AE02346D0
S21440255032466F6AE9694046B8470028A4EB000453
S214402560064404DD002CF2DC0020BDE8F081AB8997
S21440257043F04003AB814FF0FF30BDE8F081D8F820
S21440258000201D2AF3D81A4BD34003F0010383F0F2
S2144025900104002BEBD0B5F90C302969296023F4EF
S2144025A00063D9046C60AB81B7D5002AB5D12865E5
S2144025B0B3E7EA6B002A88DCD6E70123E9694046A0
S2144025C0A047431C024602D0AB89AC6A8CE7D8F8D9
S2144025D00030002BF8D01D2B01D0162B02D1C8F8A6
S2144025E00060C1E7AB8943F04003AB81BDE8F081B2
S2144025F00100402010B5044682B008B1836B53B149
S214402600B1F90C0008B902B010BD204602B0BDE8D2
S2144026101040FFF74BBF019100F080F80199EFE7BB
S214402620014900F0CFB900BFA13140002DE9F04F7D
S214402630354B4568C3630024074600F53B720423C8
S2144026400321C0F8E412C0F8E822C0F8E04283B0A4
S2144026502C606C60AC606C66EC812C616C61AC612B
S214402660AB81214605F15C000822FFF711FEBE68EB
S214402670DFF898B0DFF898A0DFF89890DFF89880F9
S214402680C5F820B001230922C5F824A0C5F8289033
S214402690C5F82C80ED612146F381B28106F15C00DD
S2144026A034607460B460746634617461B4610822E6
S2144026B00193FFF7EDFDFD68F66112200222C6F891
S2144026C020B0C6F824A0C6F82890C6F82C8021462C
S2144026D0A881EA812C606C60AC606C662C616C6191
S2144026E0AC6105F15C000822FFF7D2FD019BED616D
S2144026F0C5F820B0C5F824A0C5F82890C5F82C80A9
S214402700BB6303B0BDE8F08F212640002530400073
S2144027104930400085304000A5304000836B03B10F
S2144027207047FFF783BF00BF704700BF704700BFCA
S21440273038B5074D074C2C1BA41005D0013C55F866
S214402740043D9847002CF9D1BDE8384000F0C8BD9C
S214402750F0324000EC324000F8B5234F0C460646B7
S21440276000F04AFCBB685D6825F00305291B01F6AE
S214402770EF7121F47F6121F00F01A1F58054B4F58B
S214402780805F07DB0021304600F03AFCBB682B44F4
S214402790984204D0304600F031FC0020F8BD61423B
S2144027A0304600F02DFC01300DD0104BBA68196849
S2144027B02D1B45F001053046091B5560196000F099
S2144027C01DFC0120F8BD0021304600F019FCBA6817
S2144027D0831A0F2BDEDD064C0449246843F00103C0
S2144027E0001B53600860D5E734044020E8084020CA
S2144027F040084020002945D02DE9F0410D4680464E
S21440280000F0FAFB55F8047C6A4927F00103A5F16D
S2144028100804E2188E685068B24220F0030062D086
S214402820FE0750600BD455F8087CE41B01F1080EF7
S214402830A56875453B446FD0E768EF60BD601518E6
S2144028406D68ED0742D543F001026260E350B3F590
S214402850007F18D2DB085A1C4D6851F83270A760CA
S21440286001209B1000FA03F301EBC2001D43083819
S214402870E0604D6041F83240FC604046BDE8F041C3
S21440288000F0BCBB70475A0A042A53D89A0902F192
S21440289039077F0002F1380501EB870051F8272001
S2144028A04449083890424DD0516821F003018B428C
S2144028B002D292689042F7D1D068E060A26084600D
S2144028C0D4604046BDE8F04100F098BB95683A4F6A
S2144028D0BD4203443FD0D068E86043F001028560C3
S2144028E06260E350B3E7FF07034407D455F8082C6B
S2144028F0A41A1344A068E268C26090602F4A126827
S21440290043F00100934260608C60B6D32C4B404647
S2144029101968FFF721FFB0E711184968C90744D482
S2144029209168D268CA60034443F0010091606060D9
S214402930E350A2E7142A17D802F15C077F0002F1A1
S2144029405B05A9E7AA104B68012505FA02F2134376
S2144029504B600246B1E743F001024C610C61E56012
S214402960A5606260E35088E7542A06D81A0B02F145
S2144029706F077F0002F16E058EE7B2F5AA7F06D894
S214402980DA0B02F178077F0002F1770584E740F220
S2144029905450824206D89A0C02F17D077F0002F11D
S2144029A07C0579E7FE277E2576E743F001026260E4
S2144029B0E35062E7340440203C0440203C0840207A
S2144029C0E40840202DE9F84310F538771FD08846B4
S2144029D006464FF000097D68BC68013D11D4A389C6
S2144029E0012B05F1FF3508D9B4F90E3001332146E5
S2144029F0304602D0C04749EA00096B1C04F168041F
S214402A00EDD13F68002FE6D14846BDE8F883B94689
S214402A104846BDE8F88300BF70B50D46B1F90E10C4
S214402A20002990B014461E4614DB01AA00F0FAFBBB
S214402A3000280FDB029A02F47042A2F50052B2FA66
S214402A4082F252094FF480634FF400603260236094
S214402A5010B070BDA88900F0800082B200203060BF
S214402A601AB14023236010B070BD4FF48063104607
S214402A70236010B070BD00BF024B0146186800F0DE
S214402A8003B800BF300440202DE9F04F01F10B059C
S214402A90162D83B0064640F29F8035F0070500F1BC
S214402AA0BF80A94200F2BC8000F0A6FAB5F5FC7FD4
S214402AB0C0F09C826B0A00F0BA80042B00F283813F
S214402AC0A80900F1390E4FEA4E033830C44F07EBE1
S214402AD08303A3F108015C68A14207D1ACE0002A59
S214402AE080F2AC80E468A14200F0A680636823F0E0
S214402AF003035A1B0F2AF2DDB9493C6901F1080E5F
S214402B00744500F0B381636823F003035A1B0F2A11
S214402B1000F39981002AC1F814E0C1F810E080F271
S214402B209E80B3F5007F80F06781DB0803F1010CDF
S214402B3001229B1002FA03F34A6851F83C80C4F81D
S214402B40088001EBCC091A43A9F10803E3604A6008
S214402B5041F83C40C8F80C40831001249C40944205
S214402B6000F28A80144206D120F00300640014422A
S214402B7000F10400FAD007EBC009CC468046DCF8EA
S214402B800C108C4507D173E1002A80F28181C96818
S214402B908C4500F06D814B6823F003035A1B0F2AC7
S214402BA0F2DD0C46D1F80CC054F8088F4B1945F0AE
S214402BB001054D6042F00101C8F80CC03046CCF823
S214402BC008807B613B61C3F80CE0C3F808E05960BD
S214402BD09A5000F013FA1FE0102921D800F00CFAA2
S214402BE01025062302207E4F07EB8303A3F108023D
S214402BF05C68944200F045816368E168A56823F00C
S214402C000303234430465A68E96042F001028D606F
S214402C105A6000F0F3F90834204603B0BDE8F08F60
S214402C2000240C232046336003B0BDE8F08F802399
S214402C304FF0400E3F2049E770465DE72344E16889
S214402C405A68A56842F00102E96030468D605A60D5
S214402C5000F0D4F90834204603B0BDE8F08F234492
S214402C6030465A6842F001025A6000F0C7F908340C
S214402C70204603B0BDE8F08FBC68636823F00308C5
S214402C80A84504D3C5EB08030F2B00F38C80554BA7
S214402C90DFF860911A68D9F8003001332A4404EB13
S214402CA0080A00F0608102F580520F3222F47F62FB
S214402CB022F00F0211463046019200F0A1F9B0F121
S214402CC0FF3F8346019A00F05881824500F2FC801F
S214402CD0454B1968DA451144196000F05381D9F81C
S214402CE00000DFF810E101301BBFCAEB0B0A51446D
S214402CF0CEF800B019601BF0070100F01781C1F153
S214402D000800C1F58051834408315A44C2F30B028F
S214402D10C2EB010949463046019300F071F9431C65
S214402D20019B00F03F81CBEB00024A4442F0010297
S214402D301968C7F808B04944BC42CBF8042019606B
S214402D40DFF8A49016D0B8F10F0F40F2FD8062680D
S214402D50A8F10C0323F00703E01802F001024FF03D
S214402D60050E1A430F2B6260C0F804E0C0F808E076
S214402D7000F21C811D4BBC681A68914288BF1960DE
S214402D801B4B1A689142626888BF196022F00302A2
S214402D909542A2EB050301D80F2B04DC304600F029
S214402DA02DF9002438E7621943F0010345F0010588
S214402DB065603046BA60536000F020F9083420461B
S214402DC003B0BDE8F08F142B71D9542B00F2A480C9
S214402DD0280B00F16F0E4FEA4E036E3076E600BFCA
S214402DE034044020E4084020E8084020E008402022
S214402DF0DC084020400840205A0A042A5ED9142A9B
S214402E0000F2B38002F15C0149005B3207EB810CB3
S214402E1057F82110DFF8DC81ACF1080C8C4500F047
S214402E2088804A6822F00302934202D289688C4521
S214402E30F7D1D1F80CC07A68C4F80CC0A160CCF8C1
S214402E400840CC6088E6631942F0010745F001056A
S214402E50656030464B610B61C3F80CE0C3F808E090
S214402E605F609A50083400F0C9F8D5E64A6873E6C1
S214402E7008F1010818F0030F0CF1080C7FF47FAE40
S214402E8030E0DC68A34208BF02303FF435AEB3E61C
S214402E900B440C465A68C96854F8085F42F0010271
S214402EA05A603046E9608D6000F0A8F8B4E603F159
S214402EB05C0E03F15B004FEA4E0307E69A0902F107
S214402EC0390149003832A1E7BC424A4B3FF400AFD3
S214402ED09C68626822F003025AE759F80839994517
S214402EE040F0828010F0030F00F1FF30F5D17B6890
S214402EF023EA04037B6064009C423FF6BDAE002C90
S214402F003FF4BAAE1C4240467FF435AE64001C42E5
S214402F1000F10400FAD02EE6B3F5AA7F18D8E80BE5
S214402F2000F1780E4FEA4E037730CFE54FF48051EC
S214402F30EBE60121D8F80430921001FA02F21A4367
S214402F40C8F80420614677E70123CBF8043025E72C
S214402F5040F25452934220D8A80C00F17D0E4FEA1E
S214402F604E037C30B2E51032A4E6542A26D81A0B1B
S214402F7002F16F0149006E3248E7BC68626822F091
S214402F80030205E7CAF30B0000287FF4A8AE4244CC
S214402F90BB6842F001025A60ECE6FE234FF07F0E1B
S214402FA07E2093E501224FF00009C1E604F10801B6
S214402FB03046FFF71FFCD9F80010DBE6B2F5AA7FD3
S214402FC005D8DA0B02F17801490077321EE740F265
S214402FD054518A4205D89A0C02F17D0149007C3250
S214402FE014E7FE217E2211E77B6884E7E808431C4D
S214402FF05B00F8E534044020704700BF704700BFD0
S21440300038B5074C0023054608462360FEF71AFDF0
S214403010431C00D038BD2368002BFBD02B6038BD46
S2144030201C09402010B50C46B1F90E1000F024F9EA
S214403030002803DB236D0344236510BDA38923F4D6
S2144030408053A38110BD00BF2DE9F0411646B1F96B
S2144030500C201F46D3050C46054607D50022022302
S214403060B1F90E1000F0F2F8B4F90C20B4F90E10D5
S21440307022F48052A2813B4632462846BDE8F041C3
S21440308000F014B810B50C46B1F90E1000F0DEF89A
S214403090A389421C0EBF23F4805343F4805320651B
S2144030A0A38110BDB1F90E1000F068B870B50D469A
S2144030B0084C114606461A46284600232360FDF76C
S2144030C055FA431C00D070BD2368002BFBD03360FC
S2144030D070BD00BF1C0940202DE9F047254C2568EF
S2144030E0D5F848410646884692469946C4B3606835
S2144030F01F2817DC431C76B104EB80050122C5F877
S21440310088A0D4F8881182401143022EC4F8881152
S214403110C5F808911ED00230636044F82080002035
S214403120BDE8F087144B03B34FF4C870FFF7A4FC18
S2144031300446D0B1D5F84831002780E88800C5F865
S214403140484138460123C4F88871C4F88C71002E73
S214403150E1D0D1E7D4F88C110A43C4F88C21DAE7E1
S21440316005F5A674C5F84841C1E74FF0FF30BDE805
S214403170F08700BFC8324000792A400038B5074C77
S2144031800023054608462360FEF788FC431C00D013
S21440319038BD2368002BFBD02B6038BD1C0940206F
S2144031A000293DD070B505460C4608B1836B7BB30D
S2144031B0B4F90C300BB9002070BD21462846FFF705
S2144031C075F9E36A064633B1E16928469847002810
S2144031D0B8BF4FF0FF36A3891B061CD4216B41B104
S2144031E004F14003994202D02846FFF703FB002330
S2144031F02363616C21B12846FFF7FCFA0023636421
S214403200FFF792FA0023A381FFF790FA304670BD8D
S214403210FFF784FACCE721692846FFF7EBFADDE7AB
S2144032200020704738B50B46074C054611461846F1
S21440323000232360FEF73EFC431C00D038BD2368C5
S214403240002BFBD02B6038BD1C09402070B50D46C6
S214403250084C114606461A46284600232360FEF7C9
S21440326039FC431C00D070BD2368002BFBD0336074
S21440327070BD00BF1C09402070B50D46084C114675
S21440328006461A46284600232360FDF745F9431CA8
S21440329000D070BD2368002BFBD0336070BD00BFEC
S2144032A01C09402000C20100C000000000080000C9
S2144032B00000000080250000C0000000000800005C
S2144032C0000000004300000008004020F8B500BFA2
S2144032D0F8BC08BC9E4670478D24400065014000FF
S2144032E0F8B500BFF8BC08BC9E4670474101400098
S2144032F00100000000093D0000000000F4024020EC
S2144033005C034020C4034020000000000000000092
S2144033100000000000000000000000000000000068
S214403320000000000000000000000000C432400022
S2144033300000000000000000000000000000000048
S2144033400000000000000000000000000000000038
S2144033500000000000000000000000000000000028
S2144033600000000000000000000000000000000018
S2144033700000000000000000000000000000000008
S21440338000000000000000000000000000000000F8
S21440339000000000000000000000000000000000E8
S2144033A001000000000000000E33CDAB34126DE685
S2144033B0ECDE05000B0000000000000000000000EE
S2144033C000000000000000000000000000000000B8
S2144033D000000000000000000000000000000000A8
S2144033E00000000000000000000000000000000098
S2144033F00000000000000000000000000000000088
S2144037200800402000000000000000003404402054
S214403730340440203C0440203C04402044044020C4
S214403740440440204C0440204C0440205404402074
S214403750540440205C0440205C0440206404402024
S214403760640440206C0440206C04402074044020D4
S214403770740440207C0440207C0440208404402084
S214403780840440208C0440208C0440209404402034
S214403790940440209C0440209C044020A4044020E4
S2144037A0A4044020AC044020AC044020B404402094
S2144037B0B4044020BC044020BC044020C404402044
S2144037C0C4044020CC044020CC044020D4044020F4
S2144037D0D4044020DC044020DC044020E4044020A4
S2144037E0E4044020EC044020EC044020F404402054
S2144037F0F4044020FC044020FC0440200405402003
S214403800040540200C0540200C05402014054020AF
S214403810140540201C0540201C054020240540205F
S214403820240540202C0540202C054020340540200F
S214403830340540203C0540203C05402044054020BF
S214403840440540204C0540204C054020540540206F
S214403850540540205C0540205C054020640540201F
S214403860640540206C0540206C05402074054020CF
S214403870740540207C0540207C054020840540207F
S214403880840540208C0540208C054020940540202F
S214403890940540209C0540209C054020A4054020DF
S2144038A0A4054020AC054020AC054020B40540208F
S2144038B0B4054020BC054020BC054020C40540203F
S2144038C0C4054020CC054020CC054020D4054020EF
S2144038D0D4054020DC054020DC054020E40540209F
S2144038E0E4054020EC054020EC054020F40540204F
S2144038F0F4054020FC054020FC05402004064020FE
S214403900040640200C0640200C06402014064020AA
S214403910140640201C0640201C064020240640205A
S214403920240640202C0640202C064020340640200A
S214403930340640203C0640203C06402044064020BA
S214403940440640204C0640204C064020540640206A
S214403950540640205C0640205C064020640640201A
S214403960640640206C0640206C06402074064020CA
S214403970740640207C0640207C064020840640207A
S214403980840640208C0640208C064020940640202A
S214403990940640209C0640209C064020A4064020DA
S2144039A0A4064020AC064020AC064020B40640208A
S2144039B0B4064020BC064020BC064020C40640203A
S2144039C0C4064020CC064020CC064020D4064020EA
S2144039D0D4064020DC064020DC064020E40640209A
S2144039E0E4064020EC064020EC064020F40640204A
S2144039F0F4064020FC064020FC06402004074020F9
S214403A00040740200C0740200C07402014074020A5
S214403A10140740201C0740201C0740202407402055
S214403A20240740202C0740202C0740203407402005
S214403A30340740203C0740203C07402044074020B5
S214403A40440740204C0740204C0740205407402065
S214403A50540740205C0740205C0740206407402015
S214403A60640740206C0740206C07402074074020C5
S214403A70740740207C0740207C0740208407402075
S214403A80840740208C0740208C0740209407402025
S214403A90940740209C0740209C074020A4074020D5
S214403AA0A4074020AC074020AC074020B407402085
S214403AB0B4074020BC074020BC074020C407402035
S214403AC0C4074020CC074020CC074020D4074020E5
S214403AD0D4074020DC074020DC074020E407402095
S214403AE0E4074020EC074020EC074020F407402045
S214403AF0F4074020FC074020FC07402004084020F4
S214403B00040840200C0840200C08402014084020A0
S214403B10140840201C0840201C0840202408402050
S214403B20240840202C0840202C084020000002009A
S208403B30FFFFFFFF50
S8044017891B
