:020000040040BA
:10000000202A402051104000011140000111400001
:1000100001114000011140000111400000000000EA
:10002000000000000000000000000000011140007E
:1000300001114000000000000111400001114000CA
:100040000111400001114000011140000111400068
:100050000111400001114000011140000111400058
:1000600001114000000000007908400091084000A4
:10007000A90840004D1A4000011140000111400044
:10008000C1084000D90840000111400001114000A2
:100090000111400001114000011140000111400018
:1000A0000111400001114000011140000111400008
:1000B00001114000011140000111400001114000F8
:1000C00001114000011140000111400001114000E8
:1000D000000000000111400000000000011140007C
:1000E00001114000011140000111400001114000C8
:1000F00001114000011140000111400001114000B8
:1001000001114000011140000111400001114000A7
:10011000011140000000000000000000000000008D
:100120000111400001114000011140000111400087
:1001300001114000000000000111400001114000C9
:1001400010B5054C237833B9044B13B10448AFF311
:1001500000800123237010BD7C08402000000000B7
:10016000904D4000084B10B51BB108490848AFF34B
:1001700000800848036803B910BD074B002BFBD073
:10018000BDE81040184700BF000000008008402074
:10019000904D4000904D40000000000080B582B0BE
:1001A00000AF78607B68072B31D801A252F823F0AA
:1001B0000D024000D1014000D9014000E1014000A2
:1001C000E9014000F1014000F90140000302400054
:1001D0000020114B98471AE001200F4B984716E07A
:1001E00000200E4B984712E010200C4B98470EE071
:1001F00020200A4B98470AE03E210020084B9847F0
:1002000005E03E210120064B984700E000BF00BFFB
:100210000837BD4680BD00BFF10940005D0A4000BF
:10022000CD0A400080B582B000AF78607B68072BB4
:1002300026D801A252F823F0590240005D02400086
:100240005D0240006F0240006F0240006F024000FC
:100250006F0240006F024000012312E00B4B9847F1
:100260000346002B14BF01230023DBB209E0084B37
:1002700098470346002B14BF01230023DBB200E0A4
:10028000002318460837BD4680BD00BF290A40003C
:10029000450B400080B483B000AF78607B68072BCB
:1002A00025D801A252F823F0C9024000CF02400035
:1002B000D5024000DB024000DF024000E3024000C4
:1002C000E7024000EB0240004FF4FA4310E04FF425
:1002D00000430DE04FF400430AE0084B08E0084BF0
:1002E00006E0084B04E0074B02E0064B00E0002369
:1002F00018460C37BD465DF8047B704700093D0089
:1003000000127A00001BB70080B582B000AF034630
:10031000FB7100BFFB791846054B9847034683F0F5
:100320000103DBB2002BF5D100BF0837BD4680BD0D
:100330002502400080B586B000AFF8607A603B606F
:100340000B46FB727B68002B07D13B68002B04D166
:10035000FB684FF470021A6019E0FB7A18460E4BE6
:10036000984702467B68B2FBF3F37B617B693A688E
:1003700002FB03F37B613B68013B1A04074B13400C
:100380007A68D2B2134343F47C52FB681A6000BF10
:100390001837BD4680BD00BF950240000000FF0732
:1003A00080B582B000AF786039603B68002B08D11F
:1003B000094B9847094A7B681B6843F000539362D6
:1003C00005E0064A7B681B6843F48033D36100BFB5
:1003D0000837BD4680BD00BF610B400000060E40DF
:1003E00080B582B000AF78607B68002B03D1054BED
:1003F0009847034602E0044B9847034618460837DF
:10040000BD4680BD7D0B4000990B400080B582B099
:1004100000AF0346FB71FB79033B042B08D8FB7943
:100420001846064B9847FB791846054B984700E05D
:1004300000BF00BF0837BD4680BD00BF9D01400022
:100440000903400080B582B000AF786000BF7868D3
:10045000044B98470346002BF9D000231846083771
:10046000BD4680BDE103400080B500AF0620054BCE
:100470009847024613469B0013449A0013441846BB
:1004800080BD00BF9502400080B500AF024B984789
:100490000346184680BD00BF6904400090B583B094
:1004A00000AF1348134B98470620134B9847381D4D
:1004B000192301220621114CA0473B1D002118469B
:1004C0000F4B984700200F4B984702200E4B984740
:1004D00000200E4B98470E4B98470E4B984703460B
:1004E0001846044B984700BF0C37BD4690BD00BF6F
:1004F00000A3E111751240000D04400035034000D7
:10050000A103400045044000F10840006D0940008F
:10051000091140008904400080B586B000AFF86042
:10052000B9607A6000237B61FB68002B12D04FF02A
:10053000FF3313E00B4B1B680B4A1268B968104677
:100540009847BB680133BB607B6901337B617B6883
:10055000013B7B607B68002BECDC7B69184618371D
:10056000BD4680BD440940204C09402080B586B07E
:1005700000AFF860B9607A6000237B61FB68012BF3
:100580001ED0FB68022B1BD0FB68032B18D04FF04A
:10059000FF3319E00E4B1A680E4B1868BB68591CE4
:1005A000B9601B78194690470346002B02DA4FF0DA
:1005B000FF3309E07B6901337B617B68013B7B6032
:1005C0007B68002BE6D17B6918461837BD4680BD95
:1005D000480940204C09402080B485B000AFF86045
:1005E000B9607A607B68002B03D0FB68BA685A66F2
:1005F00002E0FB68BA681A6600BF1437BD465DF8B2
:10060000047B704780B487B000AFF860B9607A604F
:10061000FB687A685A64BB68B3F1C05F4AD0B3F133
:10062000C05F08D8B3F1006F16D0B3F1805F2CD053
:10063000002B69D064E0B3F1205F65D0B3F1205F97
:1006400003D8B3F1005F4AD05AE0B3F1405F5BD00A
:10065000B3F1605F58D053E0FB681B6F7B61FB68B0
:100660001A6F7B68D9437B690B401A40FB681A6795
:10067000FB685B6F7B61FB685A6F7B68D9437B6962
:100680000B401A40FB685A673AE0FB681B6F7B61BE
:100690007A687B691A43FB681A67FB685B6F7B614A
:1006A000FB685A6F7B68D9437B690B401A40FB6833
:1006B0005A6725E0FB681B6F7B61FB681A6F7B68DC
:1006C000D9437B690B401A40FB681A67FB685B6F74
:1006D0007B617A687B691A43FB685A6710E0FB68A4
:1006E0001B6F7B617A687B691A43FB681A67FB683A
:1006F0005B6F7B617A687B691A43FB685A6700BF4E
:10070000FB687A685A6000E000BF1C37BD465DF8A0
:10071000047B704780B584B000AFF860B9607A6040
:100720003B60B968F868124B9847BA69B968F868CD
:10073000104B98473B68002B03D0FB68BA681A65DA
:1007400002E0FB68BA685A657B68002B03D0FB683F
:10075000BA681A6302E0FB68BA685A63FB68BA6851
:100760001A61FB68BA681A6000BF1037BD4680BDC9
:1007700079074000D905400080B483B000AF7860AD
:1007800039607B683A685A6400BF0C37BD465DF833
:10079000047B704780B483B000AF78607B68DB6C0B
:1007A00018460C37BD465DF8047B704780B483B0B3
:1007B00000AF78607B689B6C18460C37BD465DF8CF
:1007C000047B704780B584B000AF7860396078688A
:1007D000264B9847F8607868254B98470246FB6897
:1007E0001340FB60FB68002B3CD00023BB6034E06F
:1007F000204ABB681B0113441A683B689A4226D101
:100800001C4ABB681B01134404331A68FB6813407D
:10081000002B1CD0174ABB681B0113440C331B6808
:100820001449BA6812010A4410681249BA681201E0
:100830000A4404321268114698470E4ABB681B01ED
:10084000134404331B68DB43FA681340FB60BB6846
:100850000133BB60BB68062B03D8FB68002BC7D1F4
:1008600000E000BF00BF1037BD4680BD95074000C7
:10087000AD0740009808402080B500AF0A2102482B
:10088000024B984700BF80BD000E0E40C5074000D8
:1008900080B500AF0B210248024B984700BF80BDD6
:1008A00000100E40C507400080B500AF0C21024883
:1008B000024B984700BF80BD00120E40C5074000A4
:1008C00080B500AF10210248024B984700BF80BDA1
:1008D00000140E40C507400080B500AF112102484A
:1008E000024B984700BF80BD00160E40C507400070
:1008F00080B483B000AF78607B68013B032B1AD8CB
:1009000001A252F823F000BF190940001F0940005E
:10091000270940002F09400000237B600EE04FF4C0
:1009200080737B600AE04FF440737B6006E04FF415
:1009300000737B6002E000237B6000BF0A490A4B22
:100940001B6B23F440727B6813430B6300BF064BA1
:100950009B6E03F00803002BF9D000BF0C37BD4697
:100960005DF8047B704700BF00060E4080B485B080
:1009700000AF78601D491D4B1B6B23F070027B6834
:1009800013430B634FF48053FB6007E0FB68002BBD
:1009900001D1012323E0FB68013BFB60134B9B6EFD
:1009A00003F00803002BF1D0104A104B1B6B23F00F
:1009B000030343F0020313634FF48053FB6007E02B
:1009C000FB68002B01D1012309E0FB68013BFB60C0
:1009D000064B9B6E03F00803002BF1D00023184652
:1009E0001437BD465DF8047B704700BF00060E401B
:1009F00080B483B000AF78607B68012B05D10749D4
:100A0000064B9A68064B13438B60044B054A1A60E9
:100A100000BF0C37BD465DF8047B704710180E40D0
:100A2000000010A5080000A580B400AF094B5B6969
:100A300003F08003002B07D0074B9B6E03F080036D
:100A4000002B01D0012300E000231846BD465DF8CD
:100A5000047B704710180E4000060E4080B483B02F
:100A600000AF78601549154B1A6A154B13430B629A
:100A700000BF124B9B6E03F40033002BF9D00F49DB
:100A80000E4B1A6A0F4B13407A68134343F45C13FE
:100A90000B6200BF094B9B6E03F40033002BF9D0AF
:100AA0000649064B1A6A084B134043F45C130B6269
:100AB00000BF0C37BD465DF8047B704700060E4052
:100AC000080037008FFFC8FFFFFFC8FE80B483B067
:100AD00000AF786039607B68002B08D01349134B56
:100AE0001B6A134A1A40134B13430B6218E00F4959
:100AF0000E4B1A6A104B13403A68120292B21A4314
:100B00000E4B13430B6200BF084B9B6E03F00103B7
:100B1000002BF9D00549054B1A6A094B13430B62A8
:100B200000BF0C37BD465DF8047B704700060E40E1
:100B3000FCFFC8FE02003701FCFFC8FF01003700C0
:100B40000000370180B400AF044B9B6E03F4803388
:100B50001846BD465DF8047B704700BF00060E4096
:100B600080B400AF044B4FF000529A6200BFBD4604
:100B70005DF8047B704700BF00060E4080B400AFF4
:100B8000044B9B6E03F002031846BD465DF8047BE0
:100B9000704700BF00060E4080B400AF044B9B6E50
:100BA00003F040031846BD465DF8047B704700BF64
:100BB00000060E4080B483B000AF78607B683F2BA6
:100BC00001D901232FE07B681F2B13D8194B9A6999
:100BD00001217B6801FA03F31A4001217B6801FAC5
:100BE00003F39A421ED0134A01217B6801FA03F3F2
:100BF000136117E07B68203B7B600E4BD3F8082124
:100C000001217B6801FA03F31A4001217B6801FA94
:100C100003F39A4206D0074A01217B6801FA03F3E5
:100C2000C2F80031002318460C37BD465DF8047B3E
:100C3000704700BF00060E4080B485B000AF7860FA
:100C400039600023FB607B68AC221A603B681A683D
:100C50003B685B68B2FBF3F31B09FB60FB68002B8E
:100C600003D0FB68B3F5803F01D301230AE07B6822
:100C7000FA681A623B689A687B685A607B685022FF
:100C80001A60002318461437BD465DF8047B704790
:100C900080B483B000AF78607B685B6903F4007355
:100CA000002B14BF01230023DBB218460C37BD46CE
:100CB0005DF8047B704700BF80B483B000AF7860FC
:100CC0000B46FB707B685B6903F00203002B01D1CC
:100CD000012303E0FA787B68DA61002318460C37B9
:100CE000BD465DF8047B704780B483B000AF786088
:100CF00039607B685B6903F00103002B01D101239C
:100D000005E07B689B69DAB23B681A7000231846DD
:100D10000C37BD465DF8047B704700BF80B489B0D6
:100D200000AFF860B9607A60BB681A017B689A42CC
:100D300002D81023FB6101E00823FB617B68DA0025
:100D4000FB69B96801FB03F35B081A44FB69B968E6
:100D500001FB03F3B2FBF3F3BB61BB69DB087B610F
:100D6000BB6903F007033B617B69002B03D07B6900
:100D7000B3F5803F01D301230FE0FB69082B05D1B8
:100D8000FB685B6843F40022FB685A603B691A0405
:100D90007B691A43FB681A62002318462437BD4654
:100DA0005DF8047B704700BF80B582B000AF78600B
:100DB00078680D4B98477B6800225A607B68002258
:100DC0005A627B6800229A627868084B9847786874
:100DD000074B98477868074B98477868064B9847C1
:100DE00000BF0837BD4680BDA90F40009D0E4000E2
:100DF000D50E4000090F4000250F400080B584B09B
:100E000000AFF860B9607A60F8681A4B98471A4BDF
:100E100000221A60BB68002B09D0BB681B687A6887
:100E20001946F868154B98470346002B01D001235B
:100E30001BE0BB685A68BB689B681A43BB681B69A8
:100E40001A43BB68DB681A430B4B1B6813430A4AFF
:100E50001360094B1B68084A1360FB685A68064B0D
:100E60001B681A43FB685A60002318461037BD46BA
:100E700080BD00BFA90D4000080940201D0D4000A5
:100E800080B483B000AF78607B6840221A6000BFF6
:100E90000C37BD465DF8047B704700BF80B483B05B
:100EA00000AF78607B6888221A6000BF0C37BD46AF
:100EB0005DF8047B704700BF80B483B000AF7860FA
:100EC0007B6810221A6000BF0C37BD465DF8047BBA
:100ED000704700BF80B483B000AF78607B68242285
:100EE0001A6000BF0C37BD465DF8047B704700BF39
:100EF00080B483B000AF78607B685B6918460C37BC
:100F0000BD465DF8047B704780B483B000AF786065
:100F10007B684FF480721A6000BF0C37BD465DF8E5
:100F2000047B704780B483B000AF78607B684FF477
:100F300000221A6000BF0C37BD465DF8047B704785
:100F400080B483B000AF786039607B685B6903F080
:100F50000203002B01D1012305E03B68C3F3080223
:100F60007B68DA61002318460C37BD465DF8047BC8
:100F7000704700BF80B483B000AF786039607B6891
:100F80005B6903F00103002B01D1012306E07B68BC
:100F90009B69C3F308023B681A60002318460C37AC
:100FA000BD465DF8047B704780B483B000AF7860C5
:100FB0007B68044AC3F8E42000BF0C37BD465DF8E7
:100FC000047B70470041535580B483B000AFEFF30A
:100FD00010837B607B68002B0CBF01230023DBB2F6
:100FE0003B6072B6BFF35F8F044B00221A703B6800
:100FF00018460C37BD465DF8047B70470C00402056
:1010000080B483B000AF78607B68002B14BF0123ED
:101010000023DBB218460C37BD465DF8047B7047F1
:1010200080B582B000AF78607868074B9847034678
:10103000002B05D0054B01221A70BFF35F8F62B6FB
:1010400000BF0837BD4680BD011040000C004020A5
:1010500080B584B000AF1E4BFB601E4BBB60FA68CE
:10106000BB689A420CD007E0BB681A1DBA60FA68E8
:10107000111DF96012681A60BB68174A9342F3D3D6
:10108000164BBB6004E0BB681A1DBA6000221A60F0
:10109000BB68134A9342F6D3124BFB60124AFB68BB
:1010A00023F07F039360114B98477860104A104BF0
:1010B0001B6843F470031360BFF34F8FBFF36F8F50
:1010C00078680C4B98470C4B98470C4B9847FEE7B9
:1010D000904D4000000040207C0840207C084020CB
:1010E0001C0A40200000400000ED00E0C90F400055
:1010F00088ED00E021104000A51F4000751A400057
:1011000080B400AFFEE700BF80B400AF524B1B6B52
:1011100003F00303012B14D0012B02D3022B38D090
:101120007AE04E4B5B6903F08003002B04D04C4BFC
:101130004FF400421A606FE0494B4FF4FA421A60D4
:101140006AE0454B1B6A03F08073002B03D0444BCD
:10115000444A1A6060E0424B434A1A603E4B1B6AA5
:1011600003F07003102B04D0202B08D0002B0ED0DE
:101170000EE03B4B1B685B00394A136008E0384BBC
:101180001A6813465B001344354A136000E000BF41
:1011900042E0314B1B6A03F08073002B03D0304BCD
:1011A000304A1A601CE02E4B2F4A1A602A4B1B6AE9
:1011B00003F07003102B04D0202B08D0002B0ED08E
:1011C0000EE0274B1B685B00254A136008E0244BA8
:1011D0001A6813465B001344214A136000E000BF05
:1011E0001D4B1B6B03F00303022B14D11A4B9A6A9D
:1011F0001E4B13401B0C0133194A126802FB03F308
:10120000174A1360144B9B6ADBB2154A1268B2FB93
:10121000F3F3134A136000BF0F4B1B6B03F0700313
:10122000702B08D10E4B1B68114AA2FB03235B08ED
:101230000B4A13600AE0084B1B6B03F070031B0999
:10124000074A126822FA03F3054A136000BFBD463D
:101250005DF8047B704700BF00060E4010180E407A
:1012600010004020001BB70000093D000000FF07F0
:10127000ABAAAAAA80B483B000AF78607B68194A91
:10128000934204D8184B4FF080621A6023E07B68C9
:10129000164A934203D8144B154A1A601BE07B6828
:1012A000144A934203D8104B134A1A6013E07B6828
:1012B000124A934203D80C4B114A1A600BE07B6828
:1012C000104A934204D8084B4FF004221A6002E0FF
:1012D000054B0D4A1A6000BF0C37BD465DF8047B14
:1012E000704700BFFF2C3101000C0E40FF59620215
:1012F00000010004FF86930300020004FFB3C4044E
:1013000000030004FFE0F5050005000480B485B08B
:1013100000AF7860104BFB60104B1B68002B02D1B4
:101320000E4B0F4A1A600D4B1B68BB60BA687B6896
:101330001A44FB689A4202DD4FF0FF3306E0074B88
:101340001A687B681344054A1360BB681846143753
:10135000BD465DF8047B7047FCFF45200C0940202A
:10136000202C402080B483B000AF78604FF0FF3372
:1013700018460C37BD465DF8047B704780B483B0D7
:1013800000AF786039603B684FF400525A60002328
:1013900018460C37BD465DF8047B704780B483B0B7
:1013A00000AF7860012318460C37BD465DF8047B1A
:1013B000704700BF80B485B000AFF860B9607A6054
:1013C000002318461437BD465DF8047B704700BF04
:1013D00080B483B000AF78607B68072B25D801A26A
:1013E00052F823F0051440000B1440001114400083
:1013F000171440001B1440001F1440002314400029
:10140000271440004FF4FA4310E04FF400430DE07E
:101410004FF400430AE0084B08E0084B06E0084B95
:1014200004E0074B02E0064B00E0002318460C37AF
:10143000BD465DF8047B704700093D0000127A004C
:10144000001BB70080B500AF0620054B9847024649
:1014500013469B0013449A001344184680BD00BFF6
:10146000D113400080B500AF024B984703461846A1
:1014700080BD00BF4514400080B500AF024B9847C7
:1014800003465B08184680BD4514400080B582B015
:1014900000AF78607868034B984700BF0837BD46B7
:1014A00080BD00BFB50B400080B58CB000AF786048
:1014B0003960494B984703467B623B681B68BB62B7
:1014C0003B689B68FB623B681B68FB603B685B6832
:1014D0003B613B689B687B613B68DB68BB610023C9
:1014E000FB617B683D4A934208D107203C4B9847FB
:1014F00007F12403194678683A4B98477B683A4AC3
:10150000934208D10820364B984707F12403194627
:101510007868344B98477B68344A934208D12C2032
:101520002F4B984707F12403194678682D4B9847AD
:101530007B682F4A934208D12D20294B984707F109
:10154000240319467868274B98477B68294A9342B9
:1015500011D10D20224B98471F4B9847024607F1A7
:101560000C0319467868244B98477868234B9847B2
:101570007868234B98477B68224A934211D10E200A
:10158000174B9847144B9847024607F10C0319462E
:101590007868194B98477868184B98477868184BC3
:1015A00098477B68184A934211D10F200C4B9847FB
:1015B000094B9847024607F10C03194678680E4B11
:1015C000984778680D4B984778680D4B984700BF4F
:1015D0003037BD4680BD00BF7914400000080E4082
:1015E0008D144000390C4000000A0E40001A0E40D5
:1015F000001C0E4000400240FD0D4000810E4000E6
:10160000B90E40000080024000C0024080B582B0A8
:1016100000AF78600B46FB707B68364A93420AD174
:1016200000BFFB7819467868334B98470346002B78
:10163000F7D101235AE07B68304A93420AD100BFB8
:10164000FB78194678682C4B98470346002BF7D156
:1016500001234BE07B682A4A93420AD100BFFB7802
:1016600019467868244B98470346002BF7D101238D
:101670003CE07B68234A93420AD100BFFB781946BD
:1016800078681D4B98470346002BF7D101232DE0C6
:101690007B681D4A93420AD100BFFB7819467868DF
:1016A0001A4B98470346002BF7D101231EE07B68B5
:1016B000174A93420AD100BFFB7819467868134B4A
:1016C00098470346002BF7D101230FE07B68114AAE
:1016D00093420AD100BFFB78194678680B4B9847B4
:1016E0000346002BF7D1012300E0002318460837FA
:1016F000BD4680BD00080E40B90C4000000A0E40F7
:10170000001A0E40001C0E4000400240410F4000F5
:101710000080024000C0024080B584B000AF786015
:1017200039600023FB607B68344A934207D100BFD5
:1017300039687868324B98470346002BF8D17B68AC
:10174000304A934207D100BF396878682C4B9847DC
:101750000346002BF8D17B682B4A934207D100BF88
:1017600039687868264B98470346002BF8D17B6888
:10177000264A934207D100BF39687868204B9847C2
:101780000346002BF8D17B68214A93420DD100BF5C
:1017900007F10C03194678681E4B98470346002B47
:1017A000F6D1FB68DAB23B681A707B681A4A93423A
:1017B0000DD100BF07F10C0319467868154B984707
:1017C0000346002BF6D1FB68DAB23B681A707B68DF
:1017D000124A93420DD100BF07F10C0319467868F5
:1017E0000C4B98470346002BF6D1FB68DAB23B68F6
:1017F0001A7000BF1037BD4680BD00BF00080E4004
:10180000E90C4000000A0E40001A0E40001C0E4079
:1018100000400240750F40000080024000C00240BE
:1018200080B582B000AF786039600F4A7B68136082
:101830000E4B0F4A1A600F4B0F4A1A6039687868CE
:101840000E4B98470E4B1B689B68002118460D4BAA
:1018500098470B4B1B685B6800211846094B98475B
:1018600000BF0837BD4680BD4C09402048094020D4
:101870000D1640004409402019174000A9144000EB
:1018800040044020B920400090B585B002AF786098
:101890000C20074B98477A680023009300234FF4ED
:1018A00080710448044CA04700BF0C37BD4690BD72
:1018B000B50B400000120E401507400090B585B0F2
:1018C00000AF0B20154B98470A20144B9847102265
:1018D0004FF000511248134B98474FF400124FF04D
:1018E000006111480F4B9847104A104BD3F8143140
:1018F00043F01003C2F814310D4B3C460FCB84E883
:101900000F000E20054B98473B46194609480A4BE5
:10191000984700BF1437BD4690BD00BF8D144000EE
:1019200000100E4005064000000E0E4000800840EA
:10193000D44C4000008002402118400080B586B0A1
:1019400000AF0B20194B984701224FF0C0511848A7
:10195000184B984702224FF0C0511548154B984735
:101960003B4600221A605A609A60DA601A615A6136
:101970004FF416533B60C0237B604FF40063BB60A1
:101980000D200A4B98470C4B984702463B46194698
:101990000A480B4B984709480A4B984707480A4B97
:1019A000984700BF1837BD4680BD00BF8D1440006A
:1019B00000100E400506400079144000004002402F
:1019C000FD0D4000810E4000B90E400080B584B08E
:1019D00000AF78600023FB6010E0FB685A1CFA60DF
:1019E0007A6813441B7819460A480B4B984700BF86
:1019F00008480A4B98470346002BF9D07A68FB68E1
:101A000013441B78002BE8D1FB6818461037BD46FD
:101A100080BD00BF004002400D164000910C400008
:101A200080B584B000AF78600023FB607A68FB6803
:101A3000134419460348044B9847FB68184610376F
:101A4000BD4680BD004002401917400080B582B0FD
:101A500000AF0648064B984778607B6803F00103A7
:101A6000002B00BF0837BD4680BD00BF00400240CC
:101A7000F10E40002DE9F04F89B000AF714B98474F
:101A8000714B4FF400425A60704B98470120704BE5
:101A90009847704B9847704B9847034619464FF04C
:101AA00000020B4614464FEA840B4BEA937B4FEA45
:101AB000830A53465C464FEA441949EAD3694FEA20
:101AC0004318B8EB030869EB040918EB010849EB6C
:101AD00002094FEAC9037B617B6943EA58737B6162
:101AE0004FEAC8033B61D7E9048941464A4641F2BF
:101AF0002B734FF0000411EB030842EB040940463E
:101B00004946564C41F22C724FF00003A047034661
:101B10000C461846524B98475248534B98474E4BE9
:101B20009847034619464FF000020B461446A000A2
:101B3000F860F86840EA9370F8609B00BB60D7E9F2
:101B40000234660146EAD3665D01ED1A66EB0406CF
:101B50006D1846EB0206F3007B607B6843EA557321
:101B60007B60EB003B60D7E900562946324641F2E4
:101B70002B734FF00004CD1842EB04062846314683
:101B8000364C41F22C724FF00003A04703460C463E
:101B90001846334B9847354A354B15461C460FCCF3
:101BA00028606960AA60EB602388A2782B821346C4
:101BB000AB742E482F4B98472F48304B984707F16E
:101BC0001B0319462E482F4B984707F11A03194655
:101BD0002B482C4B9847FB7EAA2BF0D1BB7EAA2B1F
:101BE000EDD107F11B0319462548264B9847FB7E8C
:101BF000042BE4D107F11B0319462148214B9847D8
:101C0000FB7E802BDBD107F11B0319461C481D4BC3
:101C10009847FB7E022BD2D107F11B0319461848C7
:101C2000184B984707F11A0319461548154B984762
:101C3000FB7E1B02BA7E1343FB61F96912480A4B13
:101C40009847BCE79D04400050180E40BD18400066
:101C5000891840003D194000651440008D1C40006B
:101C600001004020E44C4000F51F4000B409402032
:101C7000F04C4000CD19400050094020211A40008E
:101C80000040024019174000044D400053B94AB9C2
:101C9000002908BF00281CBF4FF0FF314FF0FF3074
:101CA00000F07EB9ADF1080C6DE904CE00F006F845
:101CB000DDF804E0DDE9022304B070472DE9F047C8
:101CC0008C460E460446089D002B50D18A4217468A
:101CD0006CD9B2FA82FEBEF1000F0BD0CEF1200417
:101CE00020FA04F401FA0EF644EA060C02FA0EF7A2
:101CF00000FA0EF44FEA1749220CBCFBF9F01FFA68
:101D000087F809FB10C642EA064600FB08F3B34217
:101D100009D9F61900F1FF3280F02281B34240F276
:101D20001F8102383E44F61AA2B2B6FBF9F309FB52
:101D3000136642EA064403FB08F8A04509D9E419F2
:101D400003F1FF3280F00A81A04540F20781023B97
:101D50003C44C8EB040443EA00400021002D62D05B
:101D600024FA0EF400232C606B60BDE8F0878B42F0
:101D700007D9002D55D0002185E841000846BDE86F
:101D8000F087B3FA83F1002940F09080B34202D388
:101D9000824200F2F880841A66EB03060120B44602
:101DA000002D40D085E81010BDE8F08712B901275A
:101DB000B7FBF2F7B7FA87FEBEF1000F35D1F31B80
:101DC0004FEA17481FFA87FC0121B3FBF8F0220CF9
:101DD00008FB103642EA06460CFB00F3B34207D973
:101DE000F61900F1FF3202D2B34200F2CE80104663
:101DF000F61AA2B2B6FBF8F308FB136642EA0644F1
:101E00000CFB03FCA44507D9E41903F1FF3202D20D
:101E1000A44500F2B5801346CCEB040443EA00402D
:101E20009CE729462846BDE8F087CEF1200106FA56
:101E30000EF307FA0EF720FA01F94FEA1748CE40E1
:101E400049EA0309B6FBF8FA4FEA194408FB1A6697
:101E50001FFA87FC44EA06430AFB0CF29A4200FA96
:101E60000EF40AD9DB190AF1FF3180F087809A421B
:101E700040F28480AAF1020A3B449B1A1FFA89F9B6
:101E8000B3FBF8F108FB113349EA034301FB0CF6FD
:101E90009E4207D9DB1901F1FF326BD29E4269D90C
:101EA00002393B449B1B41EA0A418EE7C1F1200EF7
:101EB00022FA0EF48B40234320FA0EF706FA01F4BF
:101EC0004FEA134C26FA0EF63C43B6FBFCF9270CFE
:101ED0000CFB19661FFA83F847EA064609FB08F768
:101EE000B74202FA01F200FA01FA08D9F61809F12C
:101EF000FF3041D2B7423FD9A9F102091E44F61B77
:101F0000A0B2B6FBFCF40CFB146640EA064704FBE7
:101F100008F8B84507D9FF1804F1FF3028D2B845B2
:101F200026D9023C1F4444EA0940C8EB0707A0FB3E
:101F300002894F4544464E4614D329D065B3BAEBC7
:101F4000040367EB060707FA0EFECB40CF404EEACC
:101F5000030385E888000021BDE8F0871346F8E612
:101F60001046E0E6B8EB020469EB03060138E5E74A
:101F70000446D8E7114695E78146C0E78A467CE7E4
:101F8000023B3C4448E708460AE702383E442FE754
:101F9000C245E7D33E46D1E72946BDE8F08700BFFA
:101FA000704700BF70B50F4E0F4D761BB61018BFAF
:101FB000002405D0013455F8043B9847A642F9D1D6
:101FC0000A4E0B4D761B02F0CDFEB61018BF002452
:101FD00006D0013455F8043B9847A642F9D170BDAC
:101FE00070BD00BF704D4000704D4000784D400006
:101FF000704D40000FB400B5074983B004AB0868CA
:1020000053F8042B8168019300F042F903B05DF8A6
:1020100004EB04B0704700BF4004402070B4840754
:1020200046D0541E002A41D0CDB2034602E0621EC3
:10203000E4B3144603F8015B9A07F8D1032C2ED9B8
:10204000CDB245EA05250F2C45EA054519D903F11E
:1020500010022646103E0F2E42F8105C42F80C5C2F
:1020600042F8085C42F8045C02F11002F2D8A4F1D4
:10207000100222F00F0204F00F041032032C13445C
:102080000DD91E462246043A032A46F8045BFAD8C4
:10209000221F22F003020432134404F003042CB183
:1020A000C9B21C4403F8011BA342FBD170BC7047AA
:1020B00014460346C2E700BF00290CBF02220022DB
:1020C0004FF4806300F000B82DE9F043514C2568CF
:1020D00083B004460F4690461E4615B1AB6B002BED
:1020E00079D0B8F1020F04D0B8F1010F7FD8002EDB
:1020F0007DDB2146284601F017F9216B41B104F13F
:102100004003994202D0284601F06CFA0023236371
:10211000B4F90C300022A26162601A0654D423F490
:102120004A6323F00303B8F1020FA38139D001AB56
:102130006A462146284601F0F3FCA3891843A08192
:1021400026B327B3AB6B002B4DD0009BB4F90C002A
:1021500027609E421CBF40F40060A081B8F1010FCF
:1021600008BF40F0010083B208BFA08103F008005F
:1021700080B22761666118B313F001002FD00020F0
:102180007642A661A06003B0BDE8F083009E3046B1
:1021900001F03AFD074668B3A38943F08003A381A9
:1021A000D0E7002004F1430243F00203002501219F
:1021B000A381A56022602261616103B0BDE8F08364
:1021C000A06003B0BDE8F0832169284601F00AFA57
:1021D000B4F90C30A3E7284601F03AF981E7A6608C
:1021E00003B0BDE8F083284601F032F9ADE74FF0C7
:1021F000FF30E2E7DDF80090B14506D0484601F037
:1022000003FD074608B14E46C6E7B4F90C304FF05F
:10221000FF30C7E7400440204B6E2DE9F0479C0497
:1022200092462CD5936812683BB30F46804602F164
:10223000080919E96000B60817D0043D002401E040
:10224000A64210D03A4655F8041F404601F06AF9FC
:10225000431C04F10104F3D10023CAF80830CAF882
:102260000430BDE8F087DAF80830A3EB8603CAF83B
:10227000083009F10809002BDBD10020ECE701F060
:1022800099FA0023CAF80830CAF80430BDE8F0878C
:102290002DE9F04FABB01C46009190460493059099
:1022A00018B1836B002B00F0DE800098B0F90C10A1
:1022B0008AB2950407D4436E41F4005223F40053CC
:1022C0008281436692B2110740F1B180009B1B6985
:1022D000002B00F0AC8002F01A020A2A00F0B58050
:1022E00000230DF1680B02930F930E93CDF834B0D9
:1022F000DA4698F800304446FBB1252B02D11CE0A9
:10230000252B03D014F8013F002BF9D1C8EB0405AD
:102310009DB10E9B0F9ACAF8008001332A44072B07
:10232000CAF804500F920E937BDD002A40F02885F6
:10233000029B0E922B44DA4602932378002B00F086
:102340003E8400214FF000034FF0FF328DF82F3014
:1023500004F101086378019208460E460C4608F124
:102360000108A3F12002582A00F29383DFE812F05B
:102370004603910391034E0391039103910391034B
:102380009103910389026702910380006C0291031B
:10239000C6015902590259025902590259025902F9
:1023A00059025902910391039103910391039103FF
:1023B0009103910391039103CB0191039103910345
:1023C00091039103910391039103910391031402EB
:1023D00091039103910391039103EE029103910301
:1023E00011039103910391039103910391039103CD
:1023F00091039103910334038A03910391039103A1
:1024000067038A03910391036C0391037903950297
:102410008500E90291039B029103BA0291039103A3
:1024200053030AF1080A029B2B44029385E70099A3
:10243000059800F061FE002840F05885009B9A89BD
:1024400002F01A020A2A7FF44BAF0099B1F90E305C
:10245000002BFFF645AF23464246059800F016FED6
:102460002BB0BDE8F08F00F0F3FF1EE76442049349
:1024700046F0040698F8003071E7302104988DF892
:102480003010019906944FF0000378228DF82F3018
:10249000002903468DF83120046803F104034FF04E
:1024A000000546F00202C0F2258526F0800654EAB7
:1024B000050246F00206049340F0BF84B348019B36
:1024C000002B40F01C8499460023019303935F4640
:1024D000019B039A9342B8BF13461D46B9F1000F02
:1024E00000D0013516F00203079318BF023516F02D
:1024F0008403089340F0F182069B5C1B002C40F3A0
:10250000EC82102C40F35685DFF88492DDF838E039
:102510000F9AD4461023C2467046A8464D46DDF8B1
:10252000149007E000F1020E0CF1080C0846103C74
:10253000102C13DD411C103207290F92CCF80050EB
:10254000CCF804300E91EDDD002A40F0B782103C4B
:10255000102C10464FF0010EDC46EBDCA94670460D
:102560004546D046E246224407280F92CAF800901A
:10257000CAF804400E9000F375839DF82F300AF1DD
:10258000080A00F1010E002B40F0B082079B002BDF
:1025900000F0C38202320CA90223BEF1070F0F9292
:1025A000CDF838E08AE80A0040F37883002A40F04A
:1025B0000A84089B802B4FF0010E1046DA4640F04B
:1025C000B082069B5C1B002C40F3AB82102CDFF822
:1025D000C49140F30B85D6461023C246A8464D460B
:1025E000DDF8149007E000F1020C0EF1080E084629
:1025F000103C102C13DD411C103207290F92CEF82D
:102600000050CEF804300E91EDDD002A40F0158325
:10261000103C102C4FF0010C1046DE46EBDCA946B6
:102620004546D046F2462244BCF1070F0F92CAF845
:102630000090CAF80440CDF838C000F3D283019B63
:1026400003995C1A002C0AF1080A0CF1010E60468D
:1026500000F36D820399CAF800700A44BEF1070FB7
:102660000F92CAF80410CDF838E040F3CE82002A69
:1026700040F03A8370070E9238D5069B5C1B002C05
:1026800034DDDA46102C40F3AB84DFF804910E9968
:102690004F461026DDF8149006E0881C0AF1080A5F
:1026A0001946103C102C13DD4B1C1032072B0F92D7
:1026B000CAF80070CAF804600E93EEDD002A40F0FC
:1026C0008E82103C102C4FF001001146DA46EBDCF4
:1026D000B946224407280F92CAF80090CAF804406D
:1026E0000E9040F39B82002A40F02584029B069ABC
:1026F000AA42ACBF9B185B19029399E246F0800690
:1027000098F800302BE60694002940F0AF8446F09C
:102710001006B30640F112830499073121F0070136
:10272000D1E900230831049114461D46002A73F1B3
:102730000003C0F28683019B9DF82F90002BC0F20E
:102740001A8354EA050326F0800600F0ED80002D80
:1027500008BF0A2CC0F0ED805F46204629460A22B9
:102760000023FFF793FA303207F8012D204629465F
:1027700000230A22FFF78AFA04460D4654EA0503AD
:10278000EBD1C7EB0B030393A2E600BF384D40002B
:10279000544D4000144D40000694002940F06284DE
:1027A00046F0100616F0200300F0AE82049B0733BB
:1027B00023F007034FF000028DF82F20D3E90045E6
:1027C00003F10802019B0492002BC0F2748154EAC9
:1027D000050326F0800640F06E81019B002B00F07F
:1027E00030844FF00009002400255F46E20842EAE9
:1027F0004572E90804F007030D461446303354EAE5
:10280000050207F8013DF1D1F407BAD5302BB8D055
:1028100030227B1E07F8012CC3EB0B0203921F46EC
:1028200056E6A3F13002002418F8013B04EB8404BF
:1028300002EB4404A3F13002092AF5D991E598F896
:10284000003001212B208AE598F800302A2B08F16E
:10285000010500F0DD83A3F13002092AA84698BFE4
:10286000002500F2CE8318F8013B05EB850502EB4D
:102870004505A3F13002092AF5D945EAE57201922E
:102880006FE5049A14681346002C03F10403FFF665
:10289000EDAD049398F8003061E50694002981D0ED
:1028A0008DF82F007EE7049A069417684FF0000316
:1028B0008DF82F30141D019B002F00F08683002B14
:1028C000C0F25F831A460021384601F061FC0028FF
:1028D00000F08F83C31B0393002304949DF82F9073
:1028E0000193F5E50694002940F0B98316F020091C
:1028F00035D116F0100303D116F0400940F02A83B9
:10290000049A13461468019A8DF82F90002A03F157
:1029100004034FF00005C0F2328354EA050226F0AA
:10292000800604937FF413AF019B002B3FF4CCADE2
:1029300000242AAF303407F8414DC7EB0B03039353
:10294000C6E546F0200698F8003008E50694002910
:1029500040F06E8346F0100616F02009C9D0049BA3
:10296000073323F007034FF000028DF82F20D3E93F
:10297000004503F10802019B0492002BC0F2F9818B
:1029800054EA050326F080064FF000097FF4DFAE1D
:10299000CAE70694002940F05183B206AE4841D5FB
:1029A000049A073222F00702D2E9004502F1080139
:1029B000049116F0010900F0778154EA050240F015
:1029C00026824FF000038DF82F30019B002BC0F2C0
:1029D000968126F0800672E5049A069413688DF8B5
:1029E000403013464FF00001012504338DF82F10BD
:1029F0000493039510AF0023019373E598F800301A
:102A000000287FF4ACAC01212020A8E446F00106A8
:102A100098F80030A3E40694002940F00C83B20635
:102A20008E48BDD40499F7060A4600F19D817506CB
:102A300040F19A8104320C8804920025B9E746F0EF
:102A4000400698F800308AE498F800306C2B03BFF9
:102A500098F8013046F0200608F1010846F010060B
:102A60007DE4002940F00983B40640F11C82049AF9
:102A700002991368CD170846043229460492C3E927
:102A8000000136E4069400293FF443AE8DF82F0090
:102A90003FE60694002940F0ED82002B00F08F8085
:102AA00001258DF840304FF000038DF82F3003954D
:102AB00010AFA0E704934FF0000996E60DAA009925
:102AC00009934846FFF7A8FB00287FD10E980F9A7C
:102AD000099B00F1010EDC4629E50E980F9A00F1E2
:102AE000010E9DF82F30002B3FF450AD01320DF157
:102AF0002F010123BEF1070F0F92CDF838E08AE8CD
:102B00000A0040F3BF80002A40F04E810799002957
:102B100040F0BE809E461046DA46089B802B3FF46C
:102B200050AD019B03995C1A002C7FF793AD102CDC
:102B3000DFF82C9125DDD4461023C246A8464D4629
:102B4000DDF8149007E000F1020E0CF1080C0846C5
:102B5000103C102C11DD411C103207290F92CCF8CB
:102B60000050CCF804300E91EDDDD2B9103C102CA1
:102B70004FF0010E1046DC46EDDCA9464546D04636
:102B8000E2462244BEF1070F0F92CAF80090CAF83D
:102B90000440CDF838E02EDC0AF1080A0EF1010EEF
:102BA00058E50DAA009901934846FFF735FB68B92F
:102BB0000E980F9A019B00F1010EDC46C8E70F9BAF
:102BC00023B1059800990DAAFFF726FB009B9B896E
:102BD0005A0600F18B8102982BB0BDE8F08F0DAA48
:102BE00000994846FFF718FB0028EFD10E990F9A7D
:102BF000481CDA4655E5002A40F0FB80039A1B92F8
:102C000001230F921A970E93DA460AF1080A710708
:102C100004D5069B5C1B002C3FF734AD029B069944
:102C2000A942ACBF5B185B190293002A40F0B38045
:102C300000230E93DA46FFF75CBB0DAA00990793B9
:102C40004846FFF7E9FA0028C0D10E980F9A079B73
:102C500000F1010CDE46CBE4244D4000384D40002D
:102C6000144D4000002A40F033819DF82F30002B96
:102C700000F0F58001230DF12F011A461B939E46AB
:102C80001A91DA4670460AF1080A0EF1010E7DE447
:102C90000CA902229E461A911B92DA4670460AF14E
:102CA000080A0EF1010E38E7019B8DF82F90002BDA
:102CB000C0F22A8154EA050326F080063FF4FFABF8
:102CC0005F46230904F00F0143EA05732A091C46F5
:102CD0001546435C07F8013D54EA0503F1D1C7EB03
:102CE0000B030393FFF7F4BB0DAA00990598FFF7B8
:102CF00093FA00287FF46AAF0F9ADA4687E74FF01D
:102D0000000900240025DBE716F0100200F0B28075
:102D100004998DF82F300A460C680199002902F1B8
:102D200004024FF00005C0F2598154EA050126F073
:102D3000800604923FF451AD994656E5F7060AD451
:102D4000750608D50499B1F900400431E51722460B
:102D50002B460491EAE4049A146813460433E517F9
:102D6000049322462B46E1E41468043204920025C1
:102D70001FE64FF0000954EA05037FF4E8ACD8E5FC
:102D80000DAA00990598FFF747FA00287FF41EAFB7
:102D9000DA46FFF748BB0DAA00990598FFF73CFA01
:102DA00000283FF445AF11E70DAA00990598FFF7F9
:102DB00033FA00287FF40AAF0E980F9A00F1010E43
:102DC000DA46FFF7E3BB0DAA00990598FFF724FA4E
:102DD00000287FF4FBAE0E980F9A00F1010EDA4640
:102DE0009BE6002A40F0D8804FF0010E1046DA46EC
:102DF00097E60DAA00990598FFF70EFA00287FF4D0
:102E0000E5AE0E9B0F9A03F1010EDA4622E4302262
:102E10008DF83020019A8DF83130002A4FF00003F0
:102E20008DF82F3046F00203C0F2CB8026F08006EA
:102E300046F002064FF0000942E74FF000099048C3
:102E40003EE7019B64424FF02D0965EB4505002BE1
:102E50008DF82F90FFF67BAC26F0800677E4079B79
:102E6000002B72D00CAB02221A931B924FF0010E72
:102E7000DA4613E716F0400948D004998DF82F2060
:102E80000B460C880199002903F104034FF000055B
:102E9000FFF610AE54EA050126F0800604933FF4D5
:102EA0009CAC9146A1E4F0060AD4710608D5049AB8
:102EB000136804320492BDF808201A80FFF719BA8B
:102EC000049A136804320492029A1A60FFF711BA46
:102ED0000DAA00990598FFF79FF900287FF476AEB8
:102EE0000E980F9A00F1010EDA46FAE54FF0FF3026
:102EF000FFF7B6BA6248164654EA050204934FF04B
:102F000000097FF4DDAEFCE6049BF5E7049A8DF83A
:102F10002F9013461468019A002A03F104034FF01E
:102F20000005FFF6C7AD54EA050226F080060493BB
:102F30007FF45BAC51E40DAA00990598FFF76CF99A
:102F400000287FF443AE0F9A68E610464FF0010E5A
:102F5000DA46E6E504998DF82F300A460C88019987
:102F6000002902F104024FF000054EDB54EA05018E
:102F700026F08006049299467FF4E9ABD4E40493EA
:102F8000F9E63846049401F09BFC002303909DF879
:102F90002F900193FFF79CBA0DAA00990598FFF7AF
:102FA0003BF900287FF412AE0E980F9A00F1010E43
:102FB000DA46B6E50E980F9ADFF8CC900130FFF7AD
:102FC000D2BA1E464FF000097AE6062B28BF062328
:102FD0000393049423EAE3752A4F0CE504926AE50F
:102FE0000E98DFF8A4900130FFF773BBF446FFF7AB
:102FF0001ABB019B9DF82F90039304940190FFF757
:1030000067BA00220192FFF7ACB904929946B2E682
:10301000049A136801930432002B049298F801304B
:10302000A846BFF69CA94FF0FF320192FFF797B96F
:103030008DF82F008EE48DF82F00F0E48DF82F002E
:10304000ABE49946F30705D52AAF302307F8413D95
:10305000FFF797BB019B03935F46FFF739BA8DF8E3
:103060002F0043E48DF82F00FFF79ABB8DF82F0057
:10307000FFF74DBB8DF82F000FE58DF82F00F3E41F
:10308000384D40004C4D4000544D4000F0B50C46CA
:10309000ADF26C4D8989666EE589199621F00201C1
:1030A000666AADF80E500025E769ADF80C10099678
:1030B00006951AAE4FF4806569460096049602950F
:1030C000059507970646FFF7E3F8051E07DB304630
:1030D000694600F029F9002818BF4FF0FF35BDF808
:1030E0000C305B0603D5A38943F04003A381284637
:1030F0000DF26C4DF0BD00BF38B5304B1B68054676
:103100000C4613B19A6B002A38D0B4F90C2093B254
:1031100018070CD52069A8B113F001021ED063690D
:1031200000225B42A361A260F0B1002038BDD90645
:103130003CD5580726D4206942F00803A3819BB2EE
:103140000028E9D103F42072B2F5007FE4D02846CC
:10315000214600F015FDA3892069DDE7990758BFD6
:103160006269A2600028E0D1B4F90C301A06DDD5FE
:1031700043F04003A3814FF0FF3038BD184600F004
:1031800067F9C2E7216B51B104F14003994204D0C1
:10319000284600F027FAB4F90C200023236300230B
:1031A0002069636022F024022060C5E742F04002FB
:1031B00009232B604FF0FF30A28138BD400440202E
:1031C000024B13B1024800F005B870470000000040
:1031D00065344000002301461A46184601F082BCBF
:1031E000B1F90C309AB22DE9F0410D461107804635
:1031F0003CD46A6843F40063002AAB8173DDAC6A97
:10320000002C4BD09BB203F48052002192B2D8F82C
:103210000060C8F80010002A69D02A6D5F0705D544
:1032200069682B6B521A0BB1EB6BD21A0023E96958
:103230004046A047441C3CD0B5F90C302A692A60AE
:1032400023F400630022AB81DB046A6049D4296B5C
:10325000C8F8006011B305F14003994202D040461E
:1032600000F0C0F900202863BDE8F0812E69AEB1FE
:103270002C682E6090070CBF6B690023A41BAB6009
:103280000AE0234632466F6AE9694046B84700289B
:10329000A4EB0004064404DD002CF2DC0020BDE8B1
:1032A000F081AB8943F04003AB814FF0FF30BDE8C4
:1032B000F081D8F800201D2AF3D81A4BD34003F030
:1032C000010383F00104002BEBD0B5F90C30296920
:1032D000296023F40063D9046C60AB81B7D5002A60
:1032E000B5D12865B3E7EA6B002A88DCD6E701236D
:1032F000E9694046A047431C024602D0AB89AC6A4C
:103300008CE7D8F80030002BF8D01D2B01D0162BFD
:1033100002D1C8F80060C1E7AB8943F04003AB813C
:10332000BDE8F0810100402010B5044682B008B12C
:10333000836B53B1B1F90C0008B902B010BD20463F
:1033400002B0BDE81040FFF74BBF019100F080F8DC
:103350000199EFE7014900F0AFBB00BFAD4B400062
:103360002DE9F04F354B4568C3630024074600F54F
:103370003B7204230321C0F8E412C0F8E822C0F82D
:10338000E04283B02C606C60AC606C66EC812C61B8
:103390006C61AC61AB81214605F15C000822FEF74F
:1033A0003DFEBE68DFF898B0DFF898A0DFF898908F
:1033B000DFF89880C5F820B001230922C5F824A0C1
:1033C000C5F82890C5F82C80ED612146F381B281C3
:1033D00006F15C0034607460B460746634617461DA
:1033E000B46108220193FEF719FEFD68F661122010
:1033F0000222C6F820B0C6F824A0C6F82890C6F865
:103400002C802146A881EA812C606C60AC606C66DF
:103410002C616C61AC6105F15C000822FEF7FEFDD9
:10342000019BED61C5F820B0C5F824A0C5F828902F
:10343000C5F82C80BB6303B0BDE8F08F5533400066
:10344000394840005D48400099484000B948400074
:10345000836B03B17047FFF783BF00BF704700BFA6
:10346000704700BF38B5074D074C2C1BA41005D082
:10347000013C55F8043D9847002CF9D1BDE838408F
:1034800001F07ABC884D4000844D40002DE9F047A2
:1034900082B080468946144600F03CFB012833D0B8
:1034A00004F15C034A4601A9404601F0CDFAB0F1AF
:1034B000FF3F824621D088B39DF80460002508E0D4
:1034C00023685A1C22601E700135554526D201AB77
:1034D0005E5DA368013B002BA360F1DAA769BB42E4
:1034E00031462246404601DB0A2EE9D101F056FA68
:1034F000431CE9D102B0BDE8F087A38943F0400343
:10350000A38102B0BDE8F08709F1FF33FE2BC7D8D5
:103510005FFA89F682468DF80460CFE7484602B02C
:10352000BDE8F087B2F90C3013F4005F0AD110B493
:10353000546E43F4005344F400545466938110BC19
:10354000FFF7A4BFFFF7A2BFF8B5234F0C4606460E
:1035500000F06CFFBB685D6825F00305291B01F6D0
:10356000EF7121F47F6121F00F01A1F58054B4F5D2
:10357000805F07DB0021304601F04CF9BB682B442B
:10358000984204D0304600F053FF0020F8BD61425D
:10359000304601F03FF901300DD0104BBA68196880
:1035A0002D1B45F001053046091B5560196000F0E0
:1035B0003FFF0120F8BD0021304601F02BF9BA6829
:1035C000831A0F2BDEDD064C0449246843F0010307
:1035D000001B53600860D5E7680440201C094020A8
:1035E00074084020002945D02DE9F0410D46804661
:1035F00000F01CFF55F8047C6A4927F00103A5F18F
:103600000804E2188E685068B24220F0030062D0CD
:10361000FE0750600BD455F8087CE41B01F1080E3E
:10362000A56875453B446FD0E768EF60BD6015182D
:103630006D68ED0742D543F001026260E350B3F5D7
:10364000007F18D2DB085A1C4D6851F83270A76011
:1036500001209B1000FA03F301EBC2001D43083860
:10366000E0604D6041F83240FC604046BDE8F0410A
:1036700000F0DEBE70475A0A042A53D89A0902F1B4
:1036800039077F0002F1380501EB870051F8272048
:103690004449083890424DD0516821F003018B42D3
:1036A00002D292689042F7D1D068E060A260846054
:1036B000D4604046BDE8F04100F0BABE95683A4F8C
:1036C000BD4203443FD0D068E86043F0010285600A
:1036D0006260E350B3E7FF07034407D455F8082CB2
:1036E000A41A1344A068E268C26090602F4A12686E
:1036F00043F00100934260608C60B6D32C4B40468F
:103700001968FFF721FFB0E711184968C90744D4C9
:103710009168D268CA60034443F001009160606020
:10372000E350A2E7142A17D802F15C077F0002F1E8
:103730005B05A9E7AA104B68012505FA02F21343BD
:103740004B600246B1E743F001024C610C61E56059
:10375000A5606260E35088E7542A06D81A0B02F18C
:103760006F077F0002F16E058EE7B2F5AA7F06D8DB
:10377000DA0B02F178077F0002F1770584E740F267
:103780005450824206D89A0C02F17D077F0002F164
:103790007C0579E7FE277E2576E743F0010262602B
:1037A000E35062E768044020700440207008402025
:1037B000180940209368002B76D02DE9F04F8B89B3
:1037C00085B00C4619070190164629D522693AB3EF
:1037D00003F002081FFA88F0356800282FD04FF058
:1037E0000009B44FC846B246B84543464A4628BFCA
:1037F0003B460198B8F1000F50D0E169666AB047C6
:10380000002871DDDAF808301B1A8144C0EB080883
:10381000CAF80830002BE7D1002005B0BDE8F08FD2
:1038200021460198FFF768FC002840F03A81A389FF
:10383000356803F002081FFA88F00028CFD113F092
:1038400001095BD14F4602961FB39A05D4F8088050
:103850002CD54745C246C0F0A48013F4906F40F0C9
:10386000B18020685246494600F07CFDA06823687C
:10387000C8EB00005344A06023603846029A936866
:103880001B1A81443F1A9360002BC5D0A389002FD7
:10389000DBD1D5F800906F680835D5E7D5F80090F2
:1038A000D5F8048008359FE7002070472068236919
:1038B000984203D861698F4280F0B780B84528BF2D
:1038C000B8464246494600F04DFDA3682268C8EB61
:1038D00003034244A3602260002B49D12146019892
:1038E000FFF722FD002843D0B4F90C3043F0400329
:1038F0004FF0FF30A38105B0BDE8F08F8046029005
:1039000082468146B9F1000F2AD0029B002B4CD091
:10391000206823696269C845C34628BFCB469842E0
:103920005F4604D9A36813449B4500F390809345F8
:1039300020DB1346676AE16901985246B847071EC3
:10394000D2DDB8EB070823D0B368DB1BBA44C7EB62
:103950000909B360002B3FF45FAFB9F1000FD4D178
:103960000023D5F800A0D5F8049002930835C9E7E4
:10397000404683E75A46514600F0F4FCA2682368AB
:10398000CBEB02025B44B8EB0708A2602360DBD1FB
:1039900021460198FFF7C8FC0028A5D1CDF8088082
:1039A000D2E72068B846BA465CE74A460A21504644
:1039B00000F0EEFB00286FD001300123CAEB0008B5
:1039C0000293A5E762692068216902EB4208C1EB16
:1039D000000A08EBD8780AF101004FEA6808384479
:1039E0004045424684BF804642465B0542D511466B
:1039F000019800F011F98346002855D052462169FC
:103A000000F016FCA38923F4906343F08003A381A4
:103A1000CAEB08030BEB0A00C4F81480C4F810B01A
:103A20002060A360B846BA461CE76FF00043BB4273
:103A300028BF3B464A4693FBF1F30198666A01FBB7
:103A400003F3E169B04700283FF718AF4CE71A4687
:103A50005146039300F086FC2268039B01981A44A8
:103A600022602146FFF760FC039B00287FF43CAFF7
:103A70001F4666E7019800F0DDFC83460028C7D1A9
:103A8000019D21692846FFF7ADFDB4F90C300C22E9
:103A900023F080032A6029E7012309F1010802933A
:103AA00036E74FF0FF30B8E6019A0C231360B4F903
:103AB0000C301BE700FCFF7F2DE9F84310F5387749
:103AC0001FD0884606464FF000097D68BC68013D5E
:103AD00011D4A389012B05F1FF3508D9B4F90E30B3
:103AE00001332146304602D0C04749EA00096B1C29
:103AF00004F16804EDD13F68002FE6D14846BDE8E7
:103B0000F883B9464846BDE8F88300BF00487047CF
:103B100044044020014B1868704700BF64044020F3
:103B200070B50D46B1F90E10002990B014461E462E
:103B300014DB01AA01F07CF800280FDB029A02F4E2
:103B40007042A2F50052B2FA82F252094FF4806339
:103B50004FF400603260236010B070BDA88900F09F
:103B6000800082B2002030601AB14023236010B080
:103B700070BD4FF480631046236010B070BD00BF6D
:103B80008A8992070B4606D501F1430201211A608A
:103B90001A6159617047F0B583B001AB6A460C46B3
:103BA0000546FFF7BDFF00990646284600F034F8A9
:103BB000B4F90C30D0B1019A124F0099EF6343F081
:103BC0008003A3812060206161611AB93343A3811E
:103BD00003B0F0BD2846B4F90E1001F03DF8B4F979
:103BE0000C300028F2D043F00103EFE79A05EFD440
:103BF00004F1430243F002030121A3812260226108
:103C00006161E5E755334000024B0146186800F05A
:103C100003B800BF400440202DE9F04F01F10B052F
:103C2000162D83B0064640F29F8035F0070500F15F
:103C3000BF80A94200F2BC8000F0F8FBB5F5FC7F24
:103C4000C0F09C826B0A00F0BA80042B00F28381E2
:103C5000A80900F1390E4FEA4E033830C44F07EB84
:103C60008303A3F108015C68A14207D1ACE0002AFC
:103C700080F2AC80E468A14200F0A680636823F083
:103C800003035A1B0F2AF2DDB9493C6901F1080E02
:103C9000744500F0B381636823F003035A1B0F2AB5
:103CA00000F39981002AC1F814E0C1F810E080F215
:103CB0009E80B3F5007F80F06781DB0803F1010C83
:103CC00001229B1002FA03F34A6851F83C80C4F8C1
:103CD000088001EBCC091A43A9F10803E3604A60AC
:103CE00041F83C40C8F80C40831001249C409442A9
:103CF00000F28A80144206D120F0030064001442CE
:103D000000F10400FAD007EBC009CC468046DCF88D
:103D10000C108C4507D173E1002A80F28181C968BB
:103D20008C4500F06D814B6823F003035A1B0F2A6A
:103D3000F2DD0C46D1F80CC054F8088F4B1945F051
:103D400001054D6042F00101C8F80CC03046CCF8C6
:103D500008807B613B61C3F80CE0C3F808E0596060
:103D60009A5000F065FB1FE0102921D800F05EFB9F
:103D70001025062302207E4F07EB8303A3F10802E0
:103D80005C68944200F045816368E168A56823F0AF
:103D90000303234430465A68E96042F001028D6013
:103DA0005A6000F045FB0834204603B0BDE8F08FB0
:103DB00000240C232046336003B0BDE8F08F80233D
:103DC0004FF0400E3F2049E770465DE72344E1682D
:103DD0005A68A56842F00102E96030468D605A6079
:103DE00000F026FB0834204603B0BDE8F08F2344E2
:103DF00030465A6842F001025A6000F019FB08345C
:103E0000204603B0BDE8F08FBC68636823F0030868
:103E1000A84504D3C5EB08030F2B00F38C80554B4A
:103E2000DFF860911A68D9F8003001332A4404EBB6
:103E3000080A00F0608102F580520F3222F47F629E
:103E400022F00F0211463046019200F0E3FCB0F17F
:103E5000FF3F8346019A00F05881824500F2FC80C2
:103E6000454B1968DA451144196000F05381D9F8BF
:103E70000000DFF810E101301BBFCAEB0B0A514410
:103E8000CEF800B019601BF0070100F01781C1F1F6
:103E90000800C1F58051834408315A44C2F30B0233
:103EA000C2EB010949463046019300F0B3FC431CC4
:103EB000019B00F03F81CBEB00024A4442F001023B
:103EC0001968C7F808B04944BC42CBF8042019600F
:103ED000DFF8A49016D0B8F10F0F40F2FD806268B1
:103EE000A8F10C0323F00703E01802F001024FF0E1
:103EF000050E1A430F2B6260C0F804E0C0F808E01A
:103F000000F21C811D4BBC681A68914288BF196081
:103F10001B4B1A689142626888BF196022F0030245
:103F20009542A2EB050301D80F2B04DC304600F0CC
:103F30007FFA002438E7621943F0010345F00105D8
:103F400065603046BA60536000F072FA083420466B
:103F500003B0BDE8F08F142B71D9542B00F2A4806C
:103F6000280B00F16F0E4FEA4E036E3076E600BF6D
:103F700068044020180940201C09402014094020F2
:103F800010094020740840205A0A042A5ED9142AD5
:103F900000F2B38002F15C0149005B3207EB810C57
:103FA00057F82110DFF8DC81ACF1080C8C4500F0EB
:103FB00088804A6822F00302934202D289688C45C5
:103FC000F7D1D1F80CC07A68C4F80CC0A160CCF865
:103FD0000840CC6088E6631942F0010745F001050E
:103FE000656030464B610B61C3F80CE0C3F808E034
:103FF0005F609A50083400F01BFAD5E64A6873E611
:1040000008F1010818F0030F0CF1080C7FF47FAEE3
:1040100030E0DC68A34208BF02303FF435AEB3E6BF
:104020000B440C465A68C96854F8085F42F0010214
:104030005A603046E9608D6000F0FAF9B4E603F1A9
:104040005C0E03F15B004FEA4E0307E69A0902F1AA
:10405000390149003832A1E7BC424A4B3FF400AF76
:104060009C68626822F003025AE759F808399945BA
:1040700040F0828010F0030F00F1FF30F5D17B6833
:1040800023EA04037B6064009C423FF6BDAE002C33
:104090003FF4BAAE1C4240467FF435AE64001C4289
:1040A00000F10400FAD02EE6B3F5AA7F18D8E80B89
:1040B00000F1780E4FEA4E037730CFE54FF4805190
:1040C000EBE60121D8F80430921001FA02F21A430B
:1040D000C8F80420614677E70123CBF8043025E7D0
:1040E00040F25452934220D8A80C00F17D0E4FEAC2
:1040F0004E037C30B2E51032A4E6542A26D81A0BBF
:1041000002F16F0149006E3248E7BC68626822F034
:10411000030205E7CAF30B0000287FF4A8AE42446F
:10412000BB6842F001025A60ECE6FE234FF07F0EBE
:104130007E2093E501224FF00009C1E604F1080159
:104140003046FFF74FFAD9F80010DBE6B2F5AA7F48
:1041500005D8DA0B02F17801490077321EE740F208
:1041600054518A4205D89A0C02F17D0149007C32F3
:1041700014E7FE217E2211E77B6884E7E808431CF0
:104180005B00F8E56804402000000000000000002B
:1041900001F0FF01102A2BDB10F0070F08D010F8F8
:1041A000013B013A8B422DD010F0070F42B3F6D1FC
:1041B000F0B441EA012141EA014122F007047FF015
:1041C00000070023F0E80256083C85EA010586EA6C
:1041D000010685FA47F5A3FA87F586FA47F6A5FAA8
:1041E00087F68EB9EED1F0BC01F0FF0102F00702B4
:1041F00032B110F8013B013A83EA010313B1F8D15F
:104200000020704701387047002D06BF354603383F
:10421000073815F0010F07D1013015F4807F02BF78
:10422000013015F4C03F0130F0BC0138704700BFC9
:10423000844641EA000313F003036DD1403A41D3B1
:1042400051F8043B40F8043B51F8043B40F8043B70
:1042500051F8043B40F8043B51F8043B40F8043B60
:1042600051F8043B40F8043B51F8043B40F8043B50
:1042700051F8043B40F8043B51F8043B40F8043B40
:1042800051F8043B40F8043B51F8043B40F8043B30
:1042900051F8043B40F8043B51F8043B40F8043B20
:1042A00051F8043B40F8043B51F8043B40F8043B10
:1042B00051F8043B40F8043B51F8043B40F8043B00
:1042C000403ABDD2303211D351F8043B40F8043BA0
:1042D00051F8043B40F8043B51F8043B40F8043BE0
:1042E00051F8043B40F8043B103AEDD20C3205D3B0
:1042F00051F8043B40F8043B043AF9D2043208D0A8
:10430000D2071CBF11F8013B00F8013B01D30B8819
:1043100003806046704700BF082A13D38B078DD0F7
:1043200010F003038AD0C3F10403D21ADB071CBFC9
:1043300011F8013B00F8013B80D331F8023B20F833
:10434000023B7BE7043AD9D3013A11F8013B00F86C
:10435000013BF9D20B7803704B7843708B788370F4
:10436000604670478842F0B50DD98B1898420AD242
:104370008118002A51D09A1A13F8014D01F8014D05
:104380009342F9D1F0BD0F2A48D941EA00039B07B7
:1043900046D100F1100401F11003154653F8106CDA
:1043A00044F8106C53F80C6C44F80C6C53F8086C1F
:1043B00044F8086C103D53F8046C44F8046C0F2D5D
:1043C00003F1100304F11004E8D8A2F1100323F064
:1043D0000F0302F00F0E1033BEF1030F1944034414
:1043E00021D91E1F0D467446043C55F8047B46F83F
:1043F000047F032CF8D8AEF1040424F00304043441
:104400002344214402F0030262B1013B0A4411F843
:10441000014B03F8014F8A42F9D1F0BD0346F3E79F
:104420000346F2E7F0BD7246EEE700BF704700BFFB
:10443000704700BF2DE9F04F174683B0002900F008
:10444000C1800E46814607F10B05FFF7EFFF56F8D6
:1044500004EC162D2EF00304A6F1080840D8102213
:104460001546AF4241D8944275DAC94B996808EBBA
:1044700004008842416800F0D98021F00103034420
:104480005B68DB077DD51EF0010F35D03946484605
:10449000FFF7C2FB0746E0B156F8043C23F00103E6
:1044A0004344A0F108029A4200F04481221F242ACA
:1044B00000F23181132A00F204810346324611686A
:1044C00019605168596092689A6031464846FFF712
:1044D00089F84846FFF7ACFF384603B0BDE8F08FD7
:1044E00025F00705002D2A46BBDA0C230020C9F869
:1044F000003003B0BDE8F08F56F8083CC3EB080A63
:10450000DAF8043023F0030C04EB0C039342BDDB18
:104510005746DAF80C1057F8080F221F242AC160FA
:10452000886000F21781132A40F212813168CAF8BC
:1045300008107168CAF80C101B2A00F22B8108368B
:104540000AF110023168116071685160B1689160C0
:104550003E461C46D046631B0F2B1DD8D8F80430AE
:1045600003F0010323434444C8F80430636843F074
:10457000010363604846FFF75BFF304603B0BDE8C8
:10458000F08F21F003012144914221DBC36882684E
:104590000C46D3609A60DEE7D8F8042008EB0501EA
:1045A00002F00102154343F001020B44C8F8045025
:1045B0004A605A6842F0010208315A604846FFF7E3
:1045C00011F8D7E7114603B0BDE8F04FFFF724BB61
:1045D0001EF0010F7FF45AAF56F8083CC3EB080AEF
:1045E000DAF8043023F0030C01EB0C0E96458BDB5C
:1045F000C36882685746D3609A6057F8081FDAF894
:104600000C30CB60221F242A996000F29980132A73
:1046100062D93368CAF808307368CAF80C301B2AAC
:1046200000F2A08008360AF1100356E021F0030BD7
:10463000A34405F11000834559DA1EF0010F7FF401
:1046400025AF56F8081CC1EB080ADAF8041021F06F
:10465000030CE34458453FF757AF5746DAF80C10C0
:1046600057F8080F221F242AC160886000F2B48026
:10467000132A40F2A5803168CAF808107168CAF898
:104680000C101B2A00F2AF8008360AF110023168C4
:10469000116071685160B16891600AEB0501C5EB6A
:1046A0000B0242F0010299604A60DAF8043003F02C
:1046B00001031D434846CAF80450FFF7B9FE3846C7
:1046C0005CE733680360736843601B2A27D800F1F6
:1046D000080306F10802F2E63B4632681A60726887
:1046E0005A60B2689A603E467446D04633E708EB9B
:1046F0000501C5EB0B0B4BF0010299604A6056F8BF
:10470000043C03F001031D43484646F8045CFFF7F0
:104710008FFE304632E73146FFF724FED5E6B36818
:104720008360F368C360242A28D000F1100306F1E7
:104730001002C4E650F8043C23F003031C440AE7CB
:10474000314638467446D046FFF70CFE3E4602E737
:104750003A46F7E6314638461C46D046FFF702FE99
:104760003E46F8E6B368CAF81030F368CAF8143069
:10477000242A1BD010360AF11803AEE7336903610F
:104780007369436106F1180200F1180397E600BF50
:1047900068044020B168CAF81010F168CAF8141013
:1047A000242A0FD010360AF11802CBE63369CAF872
:1047B00018307369CAF81C3018360AF120038CE7E8
:1047C0003A4664E73269CAF818207269CAF81C20B0
:1047D00018360AF12002B5E6314638460193FFF754
:1047E000C1FD019B59E7B168CAF81010F168CAF819
:1047F0001410242A03D010360AF1180247E7326950
:10480000CAF818207269CAF81C2018360AF120026A
:104810003DE700BF38B5074C002305460846236036
:10482000FCF774FD431C00D038BD2368002BFBD07F
:104830002B6038BD180A402010B50C46B1F90E1097
:1048400000F032FA002803DB236D0344236510BD1A
:10485000A38923F48053A38110BD00BF2DE9F0414B
:104860001646B1F90C201F46D3050C46054607D560
:1048700000220223B1F90E1000F000FAB4F90C2066
:10488000B4F90E1022F48052A2813B4632462846EB
:10489000BDE8F04100F010B910B50C46B1F90E10AA
:1048A00000F0ECF9A389421C0EBF23F4805343F4BB
:1048B00080532065A38110BDB1F90E1000F064B9DA
:1048C00090F800F06DE9024520F007016FF0000C50
:1048D00010F0070491F820F040F049804FF00004F8
:1048E0006FF00700D1E9002391F840F000F10800D3
:1048F00082FA4CF2A4FA8CF283FA4CF3A2FA8CF30B
:104900004BBBD1E9022382FA4CF200F10800A4FA71
:104910008CF283FA4CF3A2FA8CF3E3B9D1E90423C5
:1049200082FA4CF200F10800A4FA8CF283FA4CF3FC
:10493000A2FA8CF37BB9D1E9062301F1200182FAB6
:104940004CF200F10800A4FA8CF283FA4CF3A2FABC
:104950008CF3002BC6D0002A04BF04301A4612BACA
:10496000B2FA82F2FDE8024500EBD2007047D1E9CD
:10497000002304F00305C4F100004FEAC50514F05C
:10498000040F91F840F00CFA05F562EA05021CBF2D
:1049900063EA050362464FF00004A9E7F8B50E4646
:1049A0001446074610B1836B002B4AD0B4F90C2093
:1049B000A369A36091B2080738D52369002B35D0CD
:1049C0008904F5B215D522686169D31A8B421CDAC5
:1049D0000133A168501C0139A16020601670626922
:1049E0009A421AD0A389DB0701D50A2D15D0284693
:1049F000F8BD616E42F4005221F40051A281226898
:104A000061666169D31A8B42E2DB21463846FEF7C4
:104A10008BFC40B922680123DBE721463846FEF7CC
:104A200083FC0028E3D04FF0FF30F8BD2146384624
:104A3000FEF762FB0028F6D1B4F90C20236991B28D
:104A4000BEE7FEF705FDB1E72DE9F041054686B06A
:104A50001E460C46A1B1104B1746D3F80080FFF755
:104A600055F8009603463A4621462846C047431C5F
:104A700003D100228A2332602B6006B0BDE8F081AA
:104A8000054B1F68FFF742F800960346224603A92C
:104A90002846B847EBE700BF7808402021B1FF2A3D
:104AA00004D80A7001207047084670478A230360C3
:104AB0004FF0FF30704700BF70B50D46084C1146EF
:104AC00006461A46284600232360FBF74FFD431C89
:104AD00000D070BD2368002BFBD0336070BD00BFD9
:104AE000180A40202DE9F047254C2568D5F84841A3
:104AF0000646884692469946C4B360681F2817DC6C
:104B0000431C76B104EB80050122C5F888A0D4F8D7
:104B1000881182401143022EC4F88811C5F808910B
:104B20001ED00230636044F820800020BDE8F0878A
:104B3000144B03B34FF4C870FFF766F80446D0B1C6
:104B4000D5F84831002780E88800C5F84841384644
:104B50000123C4F88871C4F88C71002EE1D0D1E72C
:104B6000D4F88C110A43C4F88C21DAE705F5A67451
:104B7000C5F84841C1E74FF0FF30BDE8F08700BFFE
:104B8000104D4000093C400038B5074C0023054655
:104B900008462360FCF7E6FB431C00D038BD2368C1
:104BA000002BFBD02B6038BD180A402000293DD0D7
:104BB00070B505460C4608B1836B7BB3B4F90C3075
:104BC0000BB9002070BD21462846FEF709FBE36AB9
:104BD000064633B1E169284698470028B8BF4FF030
:104BE000FF36A3891B061CD4216B41B104F140039D
:104BF000994202D02846FEF7F5FC00232363616C3E
:104C000021B12846FEF7EEFC00236364FEF726FC84
:104C10000023A381FEF724FC304670BDFEF718FC8C
:104C2000CCE721692846FEF7DDFCDDE70020704770
:104C300038B50B46074C054611461846002323603D
:104C4000FCF79CFB431C00D038BD2368002BFBD035
:104C50002B6038BD180A402038B5074C00230546A4
:104C600008462360FCF79AFB431C00D038BD23683C
:104C7000002BFBD02B6038BD180A402070B50D46C4
:104C8000084C114606461A46284600232360FCF7C6
:104C900091FB431C00D070BD2368002BFBD0336018
:104CA00070BD00BF180A402070B50D46084C114673
:104CB00006461A46284600232360FBF72DFC431CBA
:104CC00000D070BD2368002BFBD0336070BD00BFE7
:104CD000180A402000C20100C000000000080000C7
:104CE0000000000041542B4D4F4445310D0A000097
:104CF00041542B434F4E41383142364141423442B8
:104D0000383600002564200A00000000430000003F
:104D100018004020303030303030303030303030DB
:104D20003030303030313233343536373839414233
:104D300043444546000000003031323334353637C5
:104D4000383961626364656600000000286E756C26
:104D50006C2900002020202020202020202020203E
:104D600020202020F8B500BFF8BC08BC9E46704744
:104D7000C131400065014000F8B500BFF8BC08BC77
:084D80009E467047410140000E
:084D880034CFFF7F01000000A1
:104D9000BFF35F8F0138FBD1704700BF01000000F7
:104DA00000093D0000000000000000000403402056
:104DB0006C034020D40340200000000000000000ED
:104DC00000000000000000000000000000000000E3
:104DD0000000000000000000000000000C4D40003A
:104DE00000000000000000000000000000000000C3
:104DF00000000000000000000000000000000000B3
:104E000000000000000000000000000000000000A2
:104E10000000000000000000000000000000000092
:104E20000000000000000000000000000000000082
:104E30000000000000000000000000000000000072
:104E40000000000000000000000000000000000062
:104E500001000000000000000E33CDAB34126DE6FF
:104E6000ECDE05000B000000000000000000000068
:104E70000000000000000000000000000000000032
:104E80000000000000000000000000000000000022
:104E90000000000000000000000000000000000012
:104EA0000000000000000000000000000000000002
:1051D00018004020415343494900000000000000EE
:1051E00000000000000000000000000000000000BF
:1051F00000000000010000000000000000000000AE
:10520000680440206804402070044020700440205E
:10521000780440207804402080044020800440200E
:1052200088044020880440209004402090044020BE
:105230009804402098044020A0044020A00440206E
:10524000A8044020A8044020B0044020B00440201E
:10525000B8044020B8044020C0044020C0044020CE
:10526000C8044020C8044020D0044020D00440207E
:10527000D8044020D8044020E0044020E00440202E
:10528000E8044020E8044020F0044020F0044020DE
:10529000F8044020F804402000054020000540208C
:1052A000080540200805402010054020100540203A
:1052B00018054020180540202005402020054020EA
:1052C000280540202805402030054020300540209A
:1052D000380540203805402040054020400540204A
:1052E00048054020480540205005402050054020FA
:1052F00058054020580540206005402060054020AA
:105300006805402068054020700540207005402059
:105310007805402078054020800540208005402009
:1053200088054020880540209005402090054020B9
:105330009805402098054020A0054020A005402069
:10534000A8054020A8054020B0054020B005402019
:10535000B8054020B8054020C0054020C0054020C9
:10536000C8054020C8054020D0054020D005402079
:10537000D8054020D8054020E0054020E005402029
:10538000E8054020E8054020F0054020F0054020D9
:10539000F8054020F8054020000640200006402087
:1053A0000806402008064020100640201006402035
:1053B00018064020180640202006402020064020E5
:1053C0002806402028064020300640203006402095
:1053D0003806402038064020400640204006402045
:1053E00048064020480640205006402050064020F5
:1053F00058064020580640206006402060064020A5
:105400006806402068064020700640207006402054
:105410007806402078064020800640208006402004
:1054200088064020880640209006402090064020B4
:105430009806402098064020A0064020A006402064
:10544000A8064020A8064020B0064020B006402014
:10545000B8064020B8064020C0064020C0064020C4
:10546000C8064020C8064020D0064020D006402074
:10547000D8064020D8064020E0064020E006402024
:10548000E8064020E8064020F0064020F0064020D4
:10549000F8064020F8064020000740200007402082
:1054A0000807402008074020100740201007402030
:1054B00018074020180740202007402020074020E0
:1054C0002807402028074020300740203007402090
:1054D0003807402038074020400740204007402040
:1054E00048074020480740205007402050074020F0
:1054F00058074020580740206007402060074020A0
:10550000680740206807402070074020700740204F
:1055100078074020780740208007402080074020FF
:1055200088074020880740209007402090074020AF
:105530009807402098074020A0074020A00740205F
:10554000A8074020A8074020B0074020B00740200F
:10555000B8074020B8074020C0074020C0074020BF
:10556000C8074020C8074020D0074020D00740206F
:10557000D8074020D8074020E0074020E00740201F
:10558000E8074020E8074020F0074020F0074020CF
:10559000F8074020F807402000084020000840207D
:1055A000080840200808402010084020100840202B
:1055B00018084020180840202008402020084020DB
:1055C000280840202808402030084020300840208B
:1055D000380840203808402040084020400840203B
:1055E00048084020480840205008402050084020EB
:1055F000580840205808402060084020600840209B
:0C56000000000200FFFFFFFF9D4A400079
:040000050040105156
:00000001FF
